:020000040800F2
:1000000000B00120FD160008190600081B060008B4
:100010001F0600082306000827060008000000004D
:100020000000000000000000000000002B06000897
:100030002D060008000000002F0600083106000809
:1000400017170008171700081717000817170008D8
:1000500017170008171700081717000817170008C8
:1000600017170008171700081717000817170008B8
:1000700017170008171700081717000817170008A8
:100080001717000817170008171700081717000898
:100090001717000817170008171700081717000888
:1000A0001717000817170008171700081717000878
:1000B0001717000817170008171700081717000868
:1000C0001717000817170008171700081717000858
:1000D00017170008C31200080B14000817170008B0
:1000E0001717000817170008171700081717000838
:1000F0001717000817170008171700081717000828
:100100001717000817170008171700081717000817
:100110001717000817170008171700081717000807
:1001200017170008171700081717000817170008F7
:1001300017170008171700081717000817170008E7
:1001400017170008171700081717000817170008D7
:1001500017170008171700081717000817170008C7
:1001600017170008171700081717000817170008B7
:1001700017170008171700081717000817170008A7
:10018000171700081717000800F002F800F050F8E1
:100190000AA090E8000C82448344AAF10107DA45E2
:1001A00001D100F045F8AFF2090EBAE80F0013F0E4
:1001B000010F18BFFB1A43F001031847785F0000D6
:1001C000985F0000103A24BF78C878C1FAD8520767
:1001D00024BF30C830C144BF04680C6070470000C1
:1001E0000023002400250026103A28BF78C1FBD840
:1001F000520728BF30C148BF0B607047662905F021
:10020000AA86642903F06A82002070471FB505F0B2
:1002100098FE9DE8030003F041FB03F0FFFD04009E
:100220000020002105F0C0F8E0601FBD10B510BD32
:1002300003F031FF1146FFF7E9FF00F009F803F082
:100240004FFF03B4FFF7F2FF03BC00F0C5FF00004F
:100250002DED108B86B000BFDDA000680590002654
:100260004FF4A06001F06AFAA82000F033FF4FF4C9
:10027000E13000F0C1FF4FF4E13001F074F800F01C
:10028000E1FA002001F03BF9022001F038F90724DF
:10029000B7EE000AF0EE408A9FEDCE0AB0EE40BA0B
:1002A000B7EE000AF0EE40BA9FEDCB0AB0EE40FA8E
:1002B0009FEDCA0BB0EE40CAF0EE60CA224621465E
:1002C000049802F0A7FB0490002527E04FF00009F6
:1002D00021E04D4507D14A4629469FEDC20B0498BF
:1002E00002F022FC15E009F10100854207D14A46DF
:1002F00029469FEDBE0B049802F016FC09E0681C2D
:10030000814506D14A4629469FEDB80B049802F074
:100310000BFC09F10109A145DBDB6D1CA542D5DB16
:1003200022460121404602F075FB8046404602F01D
:10033000E5FD204605F003FB41EC1E0B53EC1E2BA4
:100340009FEDAC0B51EC100B05F036F941EC1D0B99
:1003500005F04CF808EE100A22462146039802F0F8
:1003600059FB0390002529E04FF0000923E04D459B
:1003700007D14A4629469FED9B0B039802F0D4FB18
:1003800017E0A9EB050000EE100AB8EEC00A20EE57
:10039000080A10EE101A084605F062FD41EC1D0B2C
:1003A0004A462946B0EE4D0AF0EE6D0A039802F077
:1003B000BBFB09F10109A145D9DB6D1CA542D3DBCB
:1003C00002222146504602F025FB824600250EE01F
:1003D000002229469FED830B504602F0A5FB012227
:1003E00029469FED860B504602F09EFB6D1CDAF805
:1003F0000400A842ECDC02220121384602F00AFB8C
:100400000746384602F0F6FA9FED769B9FED75ABF6
:10041000002001F08FF8054629467AA003F052F932
:10042000022105A801F02EF8D0E04FF4967196FB5A
:10043000F1F001FB106000287DD100259CE0002236
:100440002946504602F05DFBB0EE40DAF0EE60DA8D
:10045000B86890ED001BB0EE410AF0EE610A53EC73
:10046000102B51EC1D0B05F011FC41EC190B012276
:100470002946504602F045FBB0EE40DAF0EE60DA75
:10048000B86890ED021BB0EE410AF0EE610A53EC41
:10049000102B51EC1D0B05F0F9FB41EC1A0B0298E7
:1004A00002F0E8FA019802F0E5FA584602F0E2FAA2
:1004B000534600954146B0EE4C0AF0EE6C0ADDE979
:1004C000032002F059F90290D8F8080000EBC500AB
:1004D00090ED001BB0EE410AF0EE610A51EC100BFA
:1004E00004F084FF0DEE100AB0EE4D4AF0EE6B3AC8
:1004F000B0EE4B3AF0EE682AB0EE4F2AB0EE4A1A50
:10050000F0EE6A1AB0EE490AF0EE690A029802F0BB
:1005100027F801903946019802F016FB8346DBF874
:10052000080090ED001BB0EE410AF0EE610A0022D7
:100530002946504600E022E002F0F6FADBF8080017
:1005400090ED021BB0EE410AF0EE610A012229464D
:10055000504602F0E9FA69000022504602F0D1FA52
:10056000B0EE40DAF0EE60DA00F082FD81464946F6
:10057000284600F096FD6D1CA542FFF660AF1E20D8
:1005800096FBF0F100FB116068B9002000F0D2FF8B
:10059000054629461BA003F095F8022105A800F0A6
:1005A00071FF00F043FD1E2096FBF0F100FB11608F
:1005B00038B91848006808B9012000E00020154942
:1005C00008600A2000F0E8FD701C86B22DE70000EC
:1005D0000D0A0000DA0FC93F0AD7233C00000000D3
:1005E00000000040000000000000000000000000CB
:1005F0000000E03F3822CE797CD922407B14AE4700
:10060000E17A843FC4DAB4E6CAB9D3C3C2CAA3BA92
:1006100025640A00A4824242704700BFFEE700BF83
:10062000FEE700BFFEE700BFFEE770477047704778
:10063000704700000CB500200190009076480068DB
:1006400040F480307449086000BF7348006800F4CB
:10065000003000900198401C0190009818B9019852
:10066000B0F5A04FF1D16C48006800F4003010B133
:100670000120009001E0002000900098012846D160
:1006800065484030006840F0805063494031086060
:100690006248006840F44040604908605E480830A5
:1006A00000685D49083108600846006840F4004071
:1006B00008600846006840F4A05008605848091FC8
:1006C0000860081F006840F08070091F086000BFC4
:1006D0005148006800F000700028F9D040F2057021
:1006E000504908604C480830006820F003004A492F
:1006F000083108600846006840F00200086000BF4A
:1007000045480830006800F00C000828F8D10CBDFE
:1007100010B54548006840F47000434908603E4801
:10072000006840F001003C49086000203A49083167
:100730000860394800683D490840374908603C482E
:10074000091D0860081F006820F48020091F086048
:10075000002031490C310860FFF76CFF4FF000605A
:1007600031498039086010BD70B500200022022395
:1007700000240221284D08352D6805F00C0020B119
:10078000042806D0082834D107E02A4D2A4E3560C7
:1007900033E02A4D284E35602FE01F4D2D1D2D686A
:1007A000C5F380541C4D2D1D2D6805F03F0154B13B
:1007B000224DB5FBF1F5184E361D3668C6F3881686
:1007C00005FB06F209E01B4DB5FBF1F5124E361D97
:1007D0003668C6F3881605FB06F20F4D2D1D2D68F1
:1007E000C5F301456D1C6B00B2FBF3F5124E35608D
:1007F00003E0104D104E356000BF00BF064D0835B8
:100800002D68C5F303150E4E705D0B4D2D68C54068
:10081000094E356070BD0000003802400070004095
:1008200008544007003C024088ED00E0FFFFF6FE60
:10083000103000240024F4000000002000127A0090
:10084000040000201CB50121202001F00BFB4FF417
:10085000C060009001208DF8040000208DF8060093
:1008600003208DF8050001208DF807006946044833
:1008700001F05AF84FF4C061014801F0D1F81CBDF5
:100880000014024070B505460C460020F949088066
:10089000F94908802146284600F028FDA04204D1ED
:1008A0000020F6490860012070BD0020F44908606E
:1008B00000BFF9E77CB504460D46A01C2844C043A0
:1008C000C6B2FF208DF801008DF800008DF80240BF
:1008D00002208DF803008DF804508DF80560062184
:1008E0006846FFF7CFFF50B10620E6490870E6489A
:1008F00004700846007800F024FD01207CBD002033
:10090000E0490870E049087000BFF7E710B50446F9
:1009100001212046FFF7CEFF10BD10B5044605218A
:100920002046FFF7C7FF10BD10B50446062120463C
:10093000FFF7C0FF10BD10B5044608212046FFF7A1
:10094000B9FF10BD2DE9F84F0746884691461E466F
:10095000F01C00F0FF0AF01D0090009802F05CFE11
:1009600004464FF0000B002506E019F80500584436
:1009700000F0FF0B681CC5B2B542F6DB07EB0A00BE
:10098000C01C40445844C04300F0FF0BFF2060707F
:100990002070A77084F803A00320207184F80580DC
:1009A000002505E019F80510A81D2154681CC5B2E2
:1009B000B542F7DBA81D04F800B00AF10400C1B28B
:1009C0002046FFF75FFF70B10620AE490870084669
:1009D000007800F0B6FCAC480770204602F04BFEF1
:1009E0000120BDE8F88F0020A6490870A6490870CC
:1009F000204602F040FE0020F3E713B50446012331
:100A000001AA1A212046FFF79DFF1CBD2DE9FC41DC
:100A100004460E461546A01D30442844C043C7B2C4
:100A20009AA103C9CDE900018DF802408DF8056057
:100A30008DF806508DF8077008216846FFF722FFF1
:100A400058B1A81D8F4908708F4804700846007877
:100A500000F077FC0120BDE8FC8100208949087086
:100A60008949087000BFF6E710B5044601221A2133
:100A70002046FFF7CBFF10BD13B50446012301AAA2
:100A80001B212046FFF75EFF1CBD10B50446012266
:100A90001B212046FFF7BAFF10BD13B50446012302
:100AA00001AA1C212046FFF74DFF1CBD10B50446CE
:100AB00001221C212046FFF7A9FF10BD13B50446F3
:100AC000012301AA1D212046FFF73CFF1CBD10B5E4
:100AD000044601221D212046FFF798FF10BD10B5E6
:100AE0000446022200212046FFF790FF10BD10B5FA
:100AF0000446012202212046FFF788FF10BD13B5EE
:100B00000446012301AA03212046FFF71BFF1CBD59
:100B100010B50446012203212046FFF777FF10BDE0
:100B200013B50446012301AA04212046FFF70AFF5A
:100B30001CBD10B50446012204212046FFF766FFC4
:100B400010BD13B50446012301AA05212046FFF775
:100B5000F9FE1CBD10B50446012205212046FFF711
:100B600055FF10BD13B50446022301AA06212046F5
:100B7000FFF7E8FE1CBD13B50446022301AA0821B5
:100B80002046FFF7DFFE1CBD10B5044602220621F9
:100B90002046FFF73BFF10BD10B504460222082196
:100BA0002046FFF733FF10BD13B50446012301AA09
:100BB0000B212046FFF7C6FE1CBD10B504460122DE
:100BC0000B212046FFF722FF10BD13B50446012379
:100BD00001AA0C212046FFF7B5FE1CBD10B5044646
:100BE00001220C212046FFF711FF10BD13B504466A
:100BF000012301AA0D212046FFF7A4FE1CBD10B55C
:100C0000044601220D212046FFF700FF10BD13B559
:100C10000446022301AA0E212046FFF793FE1CBDC5
:100C200010B5044602220E212046FFF7EFFE10BD4C
:100C300013B50446012301AA10212046FFF782FEC6
:100C40001CBD10B50446012210212046FFF7DEFE30
:100C500010BD13B50446012301AA11212046FFF758
:100C600071FE1CBD10B50446012211212046FFF77C
:100C7000CDFE10BD14000020240000202000002024
:100C8000180000201600002017000020FFFF0004BD
:100C90000200000013B50446012301AA12212046D8
:100CA000FFF750FE1CBD10B504460122122120465C
:100CB000FFF7ACFE10BD13B50446012301AA1821AD
:100CC0002046FFF73FFE1CBD10B504460122182147
:100CD0002046FFF79BFE10BD13B50446012301AA71
:100CE00019212046FFF72EFE1CBD10B50446012237
:100CF00019212046FFF78AFE10BD13B504460223D2
:100D000001AA1E212046FFF71DFE1CBDF8B50646B0
:100D10000C461546ADF80040ADF8025004236A4673
:100D20001E213046FFF70EFEF8BD13B50446022320
:100D300001AA20212046FFF705FE1CBD13B504467D
:100D4000022301AA22212046FFF7FCFD1CBD10B59D
:100D50000446022224212046FFF758FE10BD10B59C
:100D60000446022226212046FFF750FE10BD10B592
:100D70000446022228212046FFF748FE10BD10B588
:100D8000044601222A212046FFF740FE10BD10B57F
:100D9000044601222B212046FFF738FE10BD10B576
:100DA000044601222C212046FFF730FE10BD10B56D
:100DB000044601222E212046FFF728FE10BD13B560
:100DC0000446012301AA2F212046FFF7BBFD1CBDCD
:100DD00010B5044601222F212046FFF717FE10BD53
:100DE00013B50446022301AA30212046FFF7AAFDCD
:100DF0001CBD10B50446022230212046FFF706FE36
:100E000010BD9449086070479248006870472DE90A
:100E1000F84F0746884691461E46F01C00F0FF0A30
:100E2000F01D0090009802F0F7FB04464FF0000B15
:100E3000002506E019F80500584400F0FF0B681C77
:100E4000C5B2B542F6DB07EB0A00001D404458442A
:100E5000C04300F0FF0BFF2060702070A77084F883
:100E600003A00420207184F80580002505E019F80E
:100E70000510A81D2154681CC5B2B542F7DBA81D9A
:100E800004F800B00AF10400C1B22046FFF7FAFCF2
:100E900070B10620704908707048077008460078E5
:100EA00000F04FFA204602F0E6FB0120BDE8F88F83
:100EB00000206949087069490870204602F0DBFB90
:100EC0000020F3E710B56448007808B9002010BD91
:100ED00000F03CFA60490978884204DB6048006809
:100EE00008B90120F3E70020F1E72DE9FC474FF0B6
:100EF000000859480078801FC5B2A946484602F04C
:100F00008BFB0646C24600F01FFA044620788DF897
:100F1000000060788DF80100A0788DF80200E0787C
:100F20008DF8030020798DF80400002007E0617936
:100F30003154315C414401F0FF08411CC8B2A84261
:100F4000F5DB0DB994F805A094F806A09DF8000013
:100F5000FF2801D1012000E000209DF80110FF29A9
:100F600001D1012100E00021084028B93D48008856
:100F700040F400703B4908809DF802003749097829
:100F8000884205D03748008840F4804035490880C1
:100F90009DF80310A81C814209D09DF80300801E13
:100FA000C5B23048008840F400602E4908809DF8A2
:100FB000040030B19DF804002A49098808432949F2
:100FC00008809DF802009DF8031008449DF8041065
:100FD00008444044C043C0B2504505D02148008871
:100FE00040F400501F4908801DB900201E490880A8
:100FF0000DE0012D03D130781B49088007E0022D58
:1010000005D13078717840EA012017490880002026
:10101000114908701549086010490870124807887E
:10102000304602F028FB3846BDE8FC8710B500F0DA
:101030008DF910B94FF6FF7010BDFFF756FFFBE7B3
:1010400010B500F083F910B1FFF74FFF10BD054850
:101050000088FBE71C00002016000020170000207D
:101060002000002014000020240000201800002090
:1010700010B52DED048BB0EE408AF0EE608A9FED46
:10108000130B53EC102B51EC180B04F0BFFC41EC8C
:10109000190B04F025FC044604F50070BDEC048B2C
:1010A00010BD70B504460D46E0B24FF4FA7229B295
:1010B000FFF72CFE70BD70B504460D461646E0B233
:1010C00032B229B2FFF722FE70BD0000000000001E
:1010D0000000084010B504466FF0040000F080FBEB
:1010E000E11704EB5171C1F3C701394A1170104681
:1010F000007800EB4001C1EBC0104FF6FF7101EA30
:10110000C0003449088010BD0146314A12784A4374
:101110004FF0E0235A6100229A611A46126942F0A8
:1011200001021A6100BF4FF0E022106900F00102D5
:101130001AB100F48032002AF5D04FF0E022126993
:1011400022F001024FF0E0231A6100229A617047F9
:101150000146204A12884A434FF0E0235A61002298
:101160009A611A46126942F001021A6100BF4FF0FB
:10117000E022106900F001021AB100F48032002A66
:10118000F5D04FF0E022126922F001024FF0E02387
:101190001A6100229A61704770B504464FF40770D7
:1011A00094FBF0F0C6B24FF4077094FBF0F100FB33
:1011B000114085B205E04FF40770FFF7C9FF701EBC
:1011C000C6B2002EF7D115B12846FFF7C1FF70BD9A
:1011D000260000202800002000BF704700BF704795
:1011E00000BFB34A128802F04002002AF9D0C2B20E
:1011F000AF4B1B1D1A80704710B588B00446012103
:10120000084600F02FFE0121102000F085FE072285
:101210000921A84800F013FC01208DF81E008DF86C
:101220001F0002208DF81C000002069002208DF89D
:101230001D0006A99F4800F077FB02940020ADF83E
:101240000C00ADF80E00ADF81000ADF814000C2045
:10125000ADF8120002A9984800F0BFFF012196489E
:1012600001F0AFF80121944801F03FF84021924885
:1012700001F023F9012240F225518F4801F0EBF8EB
:10128000012240F225518C4801F0E5F825208DF827
:10129000040003208DF805008DF8060001208DF86C
:1012A000070001A800F04FFA8348808940F004004D
:1012B000814988810846808920F00800888108B02B
:1012C00010BD10B540F225517B4801F0FFF860B128
:1012D000794801F039F8C4B278487949097844541A
:1012E00077480078401C7649087010BD70B50646F6
:1012F0000C467148808940F008006F498881084693
:10130000808920F00400888100250BE0715D6A4827
:1013100001F016F800BF4021674801F0C1F801282C
:10132000F9D16D1CA542F1DB6348808940F00400CF
:10133000614988810846808920F00800888120461C
:1013400070BD6049087070475C4870475D48007820
:101350005B490978884204D100205949087001206E
:1013600070470020FCE710B588B00446012108460C
:1013700000F078FD0121480400F0BDFD07220221A4
:101380004C4800F05CFB072203214A4800F057FB61
:101390000C20069002208DF81C008DF81D00002006
:1013A0008DF81E0001208DF81F0006A9414800F0AD
:1013B000BBFA02940020ADF80C00ADF80E00ADF8B9
:1013C0001000ADF814000C20ADF8120002A9384846
:1013D00000F003FF0121364800F087FF012240F2B0
:1013E0002551334801F037F826208DF804000020FD
:1013F0008DF8050003208DF8060001208DF8070008
:1014000001A800F0A0F908B010BD10B540F22551B8
:10141000274801F05BF810B3254800F095FFC4B2EF
:101420002948008800F40040C8B92748008800F423
:10143000804060B10A2C03D000202349088020E0BE
:101440002148008840F400401F49088019E00D2C15
:1014500006D11D48008840F480401B49088010E0F8
:1014600019480088C0F30D0018490C54164800882C
:10147000401C1549088008460088132801DD00201B
:10148000088010BD70B506460C4600250BE0715D66
:10149000074800F055FF00BF4021054801F000F863
:1014A0000128F9D16D1CA542F1DB204670BD00007A
:1014B0000044004000000240001001406C00002089
:1014C000340000202C000020360000208000002086
:1014D00070B503460C4603E014F8015B03F8015BAA
:1014E000151EA2F10102F7D170BD30B5034601E02F
:1014F00003F8011B141EA2F10102F9D130BD10B591
:1015000004467A4951F824104A00794951F82400D8
:101510000021FFF7EAFF774951F8242074490C397C
:1015200051F824000021FFF7E0FF012170480C3042
:10153000015510BD10B501460023002207E06C489C
:1015400050F8210030F8120000B15B1C521C6748B3
:1015500050F821009042F2D864205843634C54F86C
:101560002140B0FBF4F0C0B210BD2DE9F0470446B5
:101570000F460025A9465E480C30005D20B95C4846
:1015800014380168204688471FB94FF0FF30BDE886
:10159000F087594850F82400B7FBF0F6564850F849
:1015A0002400B7FBF0F100FB117000B1761C4F482E
:1015B00050F82400451E20E04D4850F8240030F833
:1015C000150010B909F1010901E04FF00009B1451A
:1015D00012D14FF0000808E0454850F8240005EB10
:1015E000080220F8126008F10108B045F4D342481F
:1015F00050F824006843CAE76D1E002DDCDA4FF076
:10160000FF30C4E72DE9F04104460E4638480C305F
:10161000005D38B9364814380168204688470120F3
:10162000BDE8F081334850F82400B04217D9324861
:1016300050F82400B6FBF0F12D4850F8240030F8A3
:101640001120002507E00023294850F824004F19F5
:1016500020F817306D1C9542F5DB0020E0E70220F2
:10166000DEE770B505460C4604B970BD20480C385D
:1016700050F82500261A31462846FFF7C3FF00BF61
:10168000F3E770B504460E4631462046FFF76DFF7E
:101690000546681C08B9002070BD15480C3850F884
:1016A00024002844F8E72DE9F04104460F46164689
:1016B00031462046FFF759FF0546681C10B9002047
:1016C000BDE8F0810A490C3951F824104819324616
:1016D0003946FFF7FDFE39462046FFF7C2FF0448B2
:1016E0000C3850F824002844EAE700005C5F00084A
:1016F0004C000020745F0008685F000809488047BC
:1017000009480047FEE7FEE7FEE7FEE7FEE7FEE7E3
:10171000FEE7FEE7FEE7FEE704480549054A064BFB
:1017200070470000110700088901000800AA012085
:1017300000B0012000AC012000AC0120324901437F
:10174000324A1160704770B5002100230F22C4781F
:101750001CB32E4C246804F4E064C4F5E064C4F3C4
:101760000721C1F10404E3B20A4144789C40E1B28C
:101770008478144021430C07210E254C05786155CF
:10178000047804F01F050124AC4005786D11AD000C
:1017900005F1E025C5F8004109E0047804F01F05D3
:1017A0000124AC401B4D0678761145F8264070BDEB
:1017B000194A0A400243154B1B1F1A60704739B182
:1017C000124A121D12680243104B1B1D1A6006E0DC
:1017D0000E4A121D126882430C4B1B1D1A60704783
:1017E000042808D14FF0E021096941F004014FF0CD
:1017F000E022116107E04FF0E021096921F00401C6
:101800004FF0E022116170470000FA050CED00E096
:1018100000E400E080E100E080FFFF1F10B5044617
:101820009848844208D10121084600F086FB002137
:10183000012000F082FB76E09348844208D1012128
:10184000022000F07AFB0021022000F076FB6AE023
:101850008E48844208D10121042000F06EFB002153
:10186000042000F06AFB5EE08948844208D101212F
:10187000082000F062FB0021082000F05EFB52E02F
:101880008448844208D10121102000F056FB002139
:10189000102000F052FB46E07F48844208D101212D
:1018A000202000F04AFB0021202000F046FB3AE017
:1018B0007A48844208D10121402000F03EFB0021FB
:1018C000402000F03AFB2EE07548844208D1012107
:1018D000802000F032FB0021802000F02EFB22E06F
:1018E0007048844208D10121801500F026FB0021B8
:1018F000A01500F022FB16E06B48844208D10121BC
:10190000401500F01AFB0021601500F016FB0AE0FC
:101910006648844207D10121001500F00EFB00212A
:10192000201500F00AFB10BDF0B50A460021002387
:10193000002400BF3DE0012505FA01F3156805EA22
:1019400003049C4234D105684F000326BE40B543D2
:10195000056015794E00B540066835430560157978
:10196000012D02D01579022D16D185684F0003266E
:10197000BE40B543856055794E00B5408668354315
:101980008560456801268E40B54345604568967977
:101990008E40B6B235434560C5684F000326BE4051
:1019A000B543C560D5794E00B540C6683543C560BE
:1019B000491C1029BFD3F0BD4FF6FF710160002113
:1019C000017141718171C171704708B54FF4803266
:1019D0000092009A0A430092009AC261C161009A83
:1019E000C261C2690092C269009208BD024600202D
:1019F00013690B400BB1012000E000207047014645
:101A0000086980B270470246002053690B400BB151
:101A1000012000E0002070470146486980B270470D
:101A200001837047418370470AB1018300E041831D
:101A300070474161704742694A4042617047F0B562
:101A4000002300244D07ED0E02FA05F3CE1000F13D
:101A5000200555F826504E07F70E0F26BE40B54319
:101A6000CF1000F1200646F82750CE1000F12005D7
:101A700055F8265045EA0304CE1000F1200545F83C
:101A80002640F0BD00000240000402400008024071
:101A9000000C0240001002400014024000180240F6
:101AA000001C0240002002400024024000280240A6
:101AB000F948006840F00100F74908600020F64945
:101AC00008310860F4480068F4490840F2490860A9
:101AD000F348091D0860F348EF4984310860F04875
:101AE0001038091D0860EC48006820F48020EA499D
:101AF00008600020E8490C310860E7498C31086033
:101B000070470021E44A921C11701146087070471A
:101B100010B501460022002300204A11012A02D1FB
:101B2000DD4C236808E0022A03D1DB4C70342368C3
:101B300002E0D94C7434236801F01F020124944060
:101B40001C400CB1012000E0002010BD38B5002081
:101B500000900024002500BF3120FFF7D9FF054683
:101B60000098401C00900098B0F5A04F01D0002DC7
:101B7000F2D03120FFF7CCFF08B1012400E00024AF
:101B8000204638BD01460020C34A106820F0F80006
:101B900040EAC10010607047C349086070470021E7
:101BA000BD4A703211701170012802D004280AD188
:101BB00004E00121B84A7032117005E00521B64AEF
:101BC0007032117000E000BF00BF7047B749086075
:101BD000704770B5049C41EA82150126C6EB530696
:101BE00045EA0645054345EA0465AB4E361D3560BA
:101BF00070BDAD4908667047820142EA0172A64B8A
:101C000084331A607047A8498866704710B583010D
:101C100043EA016343EA02739F4C8834236010BD9A
:101C2000A14908677047A049C86470470246002070
:101C3000994B0833186820F0EC6042EA010318431E
:101C4000954B08331860704702460020924B0833CA
:101C5000186820F0784042EA010318438E4B08339D
:101C600018607047014600208B4A0832106820F047
:101C7000030008431060704787480830006800F090
:101C80000C00704701460020834A0832106820F09B
:101C9000F000084310607047014600207E4A083279
:101CA000106820F4E050084310607047014600209F
:101CB000794A0832106820F4604040EAC1001060A0
:101CC0007047F0B5002100220024022500260223DF
:101CD000714F08373F6807F00C0121B1042905D086
:101CE000082937D105E0724F076036E0714F076071
:101CF00033E0694F3F1D3F68C7F38056664F3F1D75
:101D00003F6807F03F036EB16A4FB7FBF3F7DFF8A8
:101D100088C10CF1040CDCF800C0CCF3881C07FB74
:101D20000CF40CE0624FB7FBF3F7DFF86CC10CF179
:101D3000040CDCF800C0CCF3881C07FB0CF4564FF5
:101D40003F1D3F68C7F301477F1C7D00B4FBF5F7DB
:101D5000076002E0564F076000BF00BF4E4F0837D4
:101D60003F6807F0F0010909534F7A5C0768D740D4
:101D70004760494F08373F6807F4E051890A4E4FE2
:101D80007A5C4768D7408760434F08373F6807F45D
:101D90006041490B484F7A5C4768D740C760F0BD47
:101DA000002100F44072B2F5407F0AD13A4A08326D
:101DB000116821F4F811414A02401143364A0832B1
:101DC0001160354A70321268C0F30B031A43324B6C
:101DD00070331A6070473549443908607047334999
:101DE0004039086070473649086070470146002056
:101DF000294A8C32106820F01F004A1E1043264AE0
:101E00008C321060704701460020234A8C321068E3
:101E100020F4F8504A1E40EA02201F4A8C3210601B
:101E20007047014600201C4A8C32106820F4401094
:101E300008431060704701460020174A8C32106832
:101E400020F4400008431060704701460020124A09
:101E50008C32106820F440300843106070471949F4
:101E60000860704739B10C4A3032126802430A4B9D
:101E700030331A6006E0084A303212688243064B5B
:101E800030331A607047F9B1034A343212680243A2
:101E9000014B34331A601CE000380240FFFFF6EAC1
:101EA000103000240030002000004742800E4742DE
:101EB0000024F40000127A005C000020FFFCFF0FF9
:101EC0005C014742E01147428F4A126882438E4BC1
:101ED0001A60704739B18C4A121D126802438A4B4E
:101EE0001B1D1A6006E0884A121D12688243864B49
:101EF0001B1D1A60704739B1834A0C3212680243C5
:101F0000814B0C331A6006E07F4A0C321268824320
:101F10007D4B0C331A60704739B17B4A103212681E
:101F20000243794B10331A6006E0774A1032126888
:101F30008243754B10331A60704739B1724A243AA4
:101F400012680243704B243B1A6006E06E4A243A42
:101F5000126882436C4B243B1A60704739B16A4A5D
:101F6000203A12680243684B203B1A6006E0664A3A
:101F7000203A12688243644B203B1A60704739B1A3
:101F8000614A1C3A126802435F4B1C3B1A6006E030
:101F90005D4A1C3A126882435B4B1C3B1A607047D7
:101FA00039B1594A143A12680243574B143B1A602C
:101FB00006E0554A143A12688243534B143B1A60A8
:101FC000704739B1504A103A126802434E4B103BE9
:101FD0001A6006E04C4A103A126882434A4B103BA2
:101FE0001A60704739B1484A1C3212680243464BA6
:101FF0001C331A6006E0444A1C3212688243424B8A
:102000001C331A60704739B13F4A203212680243CC
:102010003D4B20331A6006E03B4A2032126882436F
:10202000394B20331A60704739B1374A243212686D
:102030000243354B24331A6006E0334A24321268D7
:102040008243314B24331A60704739B12E4A2C3207
:10205000126802432C4B2C331A6006E02A4A2C32B9
:1020600012688243284B2C331A60704739B1264AD4
:10207000303212680243244B30331A6006E0224AA1
:10208000303212688243204B30331A607047012887
:1020900008D11D493C31096841F008011A4A3C3217
:1020A000116007E018493C31096821F00801164A1F
:1020B0003C321160704739B1134A273A1278024313
:1020C000114B273B1A7006E00F4A273A12788243D9
:1020D0000D4B273B1A7070470B484030006840F0AA
:1020E0008070094940310860704701460020064A67
:1020F000283A12680A400AB1012000E00020704727
:1021000001492639087070473438024010B504463A
:10211000FA48844208D101211020FFF752FF002124
:102120001020FFF74EFF57E0F548844209D1012106
:102130004804FFF735FF00214FF40030FFF730FF70
:102140004AE0F048844209D101218804FFF728FFC2
:1021500000214FF48020FFF723FF3DE0EA4884424E
:1021600009D10121C804FFF71BFF00214FF4002013
:10217000FFF716FF30E0E548844209D10121080548
:10218000FFF70EFF00214FF48010FFF709FF23E057
:10219000DF48844208D101212020FFF712FF0021EF
:1021A0002020FFF70EFF17E0DA48844209D1012111
:1021B0008807FFF7F5FE00214FF08040FFF7F0FEA3
:1021C0000AE0D548844207D101214005FFF7E8FE27
:1021D00000216005FFF7E4FE10BD2DE9FF4705462D
:1021E0000E460024A14600BFA046B08900B100BF42
:1021F0002C8A24F44054F08804432C82AC8941F2A8
:102200000C608443B08831890843718908430443D2
:10221000AC81AC8A24F44074B0890443AC82684633
:10222000FFF74FFDB548854202D0B948854202D13B
:10223000DDF80C9001E0DDF80890A88900F400407A
:1022400040B109EBC90000EB091031684900B0FB4F
:10225000F1F707E009EBC90000EB091031688900CC
:10226000B0FBF1F76420B7FBF0F004012009642112
:1022700001FB1078A88900F4004040B1322000EB47
:10228000C800B0FBF1F000F00700044308E0322082
:1022900000EB08106421B0FBF1F000F00F000443E4
:1022A0002C81BDE8FF874FF4165101600021818029
:1022B000C18001810C21418100218181704710B5CD
:1022C00002460020108A20F470600B884C8823435B
:1022D0008C882343CC8823431843108210BD0021EF
:1022E000018041808180C180704721B1828942F4A0
:1022F0000052828104E082894DF6FF731A40828188
:102300007047028B02F47F420283028B0A430283EE
:10231000704721B1828942F40042828103E08289C0
:10232000C2F30E028281704721B1828A42F40062B8
:10233000828204E0828A4FF2FF731A4082827047E1
:10234000C1F308028280704701468888C0F3080004
:102350007047028A4FF6F0731A400282028A0A43DB
:102360000282704721B1828942F00202828104E038
:1023700082894FF6FD731A408281704782894FF23D
:10238000FF731A40828182890A4382817047028AE0
:102390004FF6DF731A400282028A0A4302827047B4
:1023A00021B1028A42F48042028204E0028A4BF6A2
:1023B000FF731A4002827047818941F001018181D7
:1023C000704721B1828A42F00802828204E0828A48
:1023D0004FF6F7731A4082827047028BD2B20283A3
:1023E000028B42EA01220283704721B1828A42F0C5
:1023F0002002828204E0828A4FF6DF731A408282D2
:10240000704721B1828A42F01002828204E0828AFF
:102410004FF6EF731A4082827047828A4FF6FB7341
:102420001A408282828A0A438282704721B1828A5C
:1024300042F00202828204E0828A4FF6FD731A4063
:10244000828270471AB1838A0B43838202E0838AB7
:102450008B4383827047F0B5034600240026002595
:10246000002040F66A17B94200D100BF1846C1F3F8
:10247000421401F01F06012707FA06F5012C01D1CD
:102480000C3004E0022C01D1103000E014301AB1FD
:1024900007682F43076002E00768AF430760F0BD9D
:1024A00002460020B1F5007F00D100BF13880B4029
:1024B0000BB1012000E00020704701F40072B2F57A
:1024C000007F00D100BFCA430280704770B502464A
:1024D000002400230025002040F66A16B14200D1F6
:1024E00000BFC1F3421501F01F03012606FA03F3F2
:1024F000012D13D19689334017E0000000100140F0
:102500000044004000480040004C004000500040A3
:102510000014014000780040007C0040022D02D1F0
:10252000168A334001E0968A33400C12012606FADF
:1025300004F41688344013B10CB1012000E00020EF
:1025400070BD10B50022002340F66A14A14200D1EC
:1025500000BF0A1201249440A3B2DC43048010BDE2
:1025600030B52DED108B8FB0B0EE408AF0EE608A62
:10257000B0EE419AF0EE619AB0EE42AAF0EE62AA95
:10258000B0EE43BAB0EE63EAF0EE44BA044653EC60
:10259000192B51EC190B03F039FA41EC1F0B53ECDA
:1025A000182B51EC180B03F031FA41EC1D0B53ECD6
:1025B0001F2B02F04DFFCDE90C012BEEAB0AF0EE24
:1025C00040BA1EEE100A03F04BFCCDE906011BEEEB
:1025D000900A03F045FC41EC1D0B53EC1D2B9DEDC7
:1025E0000C0B51EC100B02F0E7FF41EC1F0B9DEDC3
:1025F000060B53EC102B03F049FB41EC1C0B0022A3
:102600001146204600F07DFA8DED060B1AEE900A79
:1026100003F026FC41EC1D0B53EC1C2B03F0F6F9E8
:1026200041EC1F0B53EC182B03F0F0F9B1EE4B0A01
:10263000CDE9020110EE100A03F012FC41EC1D0B73
:1026400053EC192B03F0E2F9CDE900019DED020BEB
:1026500053EC102B9DED000B51EC100B03F016FB0F
:10266000CDE904019DED060B53EC102B9DED040B01
:1026700051EC100B02F0ECFECDE90A010122002121
:10268000204600F03EFA8DED060B1AEE900A03F09C
:10269000E7FB41EC1D0B53EC1C2B03F0B7F941ECAD
:1026A0001F0B53EC192B03F0B1F9CDE902011BEE1E
:1026B000100A03F0D5FB41EC1D0B53EC182B03F073
:1026C000A5F9CDE900019DED020B53EC102B9DED1A
:1026D000000B51EC100B03F0D9FACDE904019DED8C
:1026E000060B53EC102B9DED040B51EC100B02F07C
:1026F000AFFECDE9080102220121284600F08AF947
:1027000005461AEE100A03F0ABFB41EC1D0B9DEDE4
:102710000A0B53EC102B03F079F941EC1F0B53EC2F
:10272000182B02F095FE0022CDE9060111469DED21
:10273000060B284600F0F8F91AEE100A03F090FB99
:1027400041EC1D0B9DED080B53EC102B03F05EF9D3
:1027500041EC1F0B53EC192B02F07AFE0122CDE95C
:10276000060100219DED060B284600F0DDF9284604
:102770000FB0BDEC108B30BD2DE9F04F2DED088B67
:102780008DB0B0EE408AF0EE608A81460E46174664
:102790001D46DDF87880012202210C9800F03AF9FC
:1027A0000C90012202210B9800F034F90B900222C8
:1027B00011460A9800F02EF90A9001220221089889
:1027C00000F028F90890D5F804A02021684601F00F
:1027D0001DF800224146284600F093F9B0EE409AD9
:1027E000F0EE609A002211460C9800F09DF901224B
:1027F0004146284600F085F9B0EE409AF0EE609A26
:10280000002201210C9800F08FF90024CEE022462E
:102810004146384600F075F9B0EE409AF0EE609A05
:1028200002F0CEF88DED000B22464146384600F00E
:1028300068F9B0EE40AAF0EE60AA02F031F9B0EE0D
:10284000409AF0EE609A9FED690B53EC102B51EC1F
:10285000190B03F00FFACDE902019DED021BB0EE5A
:10286000410AF0EE610A53EC102B9FED601B51EC16
:10287000110B03F00BFACDE904019DED000B8DED7A
:10288000060B9DED001BB0EE410AF0EE610A00223E
:1028900011460A9800F048F99DED021BB0EE410A7E
:1028A000F0EE610A012200210A9800F03DF99DED49
:1028B000041BB0EE410AF0EE610A002201210A98E1
:1028C00000F032F99DED061BB0EE410AF0EE610A10
:1028D000012211460A9800F027F9002221462846D5
:1028E00000F00FF9B0EE409AF0EE609A0022114627
:1028F0000B9800F019F901222146284600F001F951
:10290000B0EE409AF0EE609A002201210B9800F0A0
:102910000BF9DDE90A0100F01DFA099022460021B9
:10292000304600F0EEF8B0EE40AAF0EE60AA424663
:102930000021304600F0E5F8B0EE40BAF0EE60BAA3
:1029400053EC1A2B51EC1B0B02F036FE41EC190B29
:10295000B0EE490AF0EE690A099800F089F90C997D
:10296000099800F03BF98346099800F083F8224665
:102970004146484600F0C5F8B0EE409AF0EE609A45
:10298000584600F075F95946089800F0DDF80990AE
:10299000584600F06FF8089800F06CF8DDE9081070
:1029A00000F073F8099800F065F8641C5445FFF6D0
:1029B0002EAFB0EE480AF0EE680A089800F058F919
:1029C000089800F03AFA0C9800F054F80B9800F0D0
:1029D00051F80A9800F04EF8099800F04BF8089862
:1029E0000DB0BDEC088BBDE8F08F000000000000CA
:1029F00000000000002107E09FEDFE0B826802EB63
:102A0000C10282ED000B491CD0E900235A438A42DF
:102A1000F2DC704770B504460D461646002E14DDF4
:102A2000002D12DD0C210020FEF72BFE044626604F
:102A30006560F00000FB05F10020FEF722FEA060BB
:102A40002046FFF7D7FF204670BD0020FCE770B599
:102A500004460D46A06838B1D4E900135943CA00B2
:102A60002946A068FEF734FD70BD0146D1E9000299
:102A70005043704710B504460020A168FEF7F1FDF1
:102A800021460020FEF7EDFD10BD70B504460D4651
:102A900020682860606868602046FFF7E6FFC6008F
:102AA000A1683246A868FEF713FD70BD38B504462C
:102AB000D2A00068009004B938BD002500BF19E01D
:102AC000A06800EBC50090ED001BB0EE410AF0EEEF
:102AD000610A53EC102BCAA000F0F4FD681C2168B9
:102AE00090FBF1F201FB120018B902216846FEF7D3
:102AF000C9FC6D1C2046FFF7B8FFA842E0DC00BF10
:102B0000DAE710B543688B4202DB0368934202DACE
:102B10009FEDB80B10BD046801FB0424836803EB30
:102B2000C40393ED000BF5E710B543688B420ADD53
:102B30000368934207DD046801FB0424836803EB08
:102B4000C40383ED000B10BD2DE9F04104460F4690
:102B50002068396888423FD16068796888423BD1F3
:102B60004046D4E90021FFF755FF804600252DE0BF
:102B7000002627E0B868216805FB016100EBC10071
:102B800090ED002BB0EE420AF0EE620A216805FBE0
:102B90000161A06800EBC10090ED002BB0EE421A7D
:102BA000F0EE621A53EC102B51EC110B02F050FCBA
:102BB000D8F8003005FB0363D8F8082002EBC30205
:102BC00003C2761C2068B042D4DC6D1C6068A84249
:102BD000CEDC4046BDE8F0810020FBE72DE9F04166
:102BE00004460F462068396888423FD1606879689A
:102BF00088423BD14046D4E90021FFF70BFF8046D5
:102C000000252DE0002627E0B868216805FB01615A
:102C100000EBC10090ED002BB0EE420AF0EE620A2C
:102C2000216805FB0161A06800EBC10090ED002B5D
:102C3000B0EE421AF0EE621A53EC102B51EC110B6D
:102C400003F024F8D8F8003005FB0363D8F8082017
:102C500002EBC30203C2761C2068B042D4DC6D1CB8
:102C60006068A842CEDC4046BDE8F0810020FBE76A
:102C700070B52DED028B0446B0EE408AF0EE608A0E
:102C8000002513E0A06800EBC50090ED001BB0EE3E
:102C9000410AF0EE610A53EC182B51EC100B02F0D4
:102CA000B5FEA26802EBC50203C26D1CD4E9001098
:102CB0004843A842E6DCBDEC028B70BD70B52DED3B
:102CC000028B0446B0EE408AF0EE608A002513E0E5
:102CD000A06800EBC50090ED001BB0EE410AF0EEDD
:102CE000610A53EC182B51EC100B02F0B1FBA268F7
:102CF00002EBC50203C26D1CD4E900104843A84290
:102D0000E6DCBDEC028B70BD70B52DED028B044688
:102D1000B0EE408AF0EE608A002513E0A06800EB78
:102D2000C50090ED001BB0EE410AF0EE610A53ECD5
:102D3000182B51EC100B02F0A9FFA26802EBC502A0
:102D400003C26D1CD4E900104843A842E6DCBDEC88
:102D5000028B70BD2DE9F0472DED028B04460D4628
:102D600020686968884266D12A6840466168FFF732
:102D700051FE8046002656E0002750E04FF0000943
:102D800049E0296809FB0171A86800EBC10090EDDA
:102D9000002BB0EE420AF0EE620A216806FB0191B8
:102DA000A06800EBC10090ED002BB0EE421AF0EEEF
:102DB000621A53EC102B51EC110B02F027FE41EC80
:102DC000180BD8F8001006FB0171D8F8080000EBCA
:102DD000C10090ED001BB0EE410AF0EE610A53EC29
:102DE000102B51EC180B02F033FBD8F8003006FB27
:102DF000037309E000000000000000000D0A00005D
:102E0000256C660900000000D8F8082002EBC30218
:102E100003C209F1010920684845B2DC7F1C28681B
:102E2000B842ABDC761C6068B042A5DC4046BDEC25
:102E3000028BBDE8F0870020F9E72DE9F041044658
:102E4000D4E90001884229D13846D4E90021FFF7AE
:102E5000E1FD074639462046FFF717FE002516E03C
:102E6000002610E0B868216806FB015100EBC100A4
:102E700090ED000B216805FB0161A06800EBC1002B
:102E800080ED000B761C6068B042EBDC6D1C2068A6
:102E9000A842E5DC3846FFF7EDFD2DE03846D4E9E1
:102EA0000021FFF7B7FD074639462046FFF7EDFD45
:102EB0007868206038686060002516E0002610E021
:102EC000396806FB0151B86800EBC10090ED000BBA
:102ED000216805FB0161A06800EBC10080ED000BDB
:102EE000761C2068B042EBDC6D1C6068A842E5DC13
:102EF0003846FFF7BFFD00BFBDE8F081002107E0C5
:102F00009FEDFE0B826802EBC10282ED000B491CB3
:102F1000D0E900235A438A42F2DC7047002105E0E1
:102F2000826802EBC10282ED000B491CD0E900234C
:102F30005A438A42F4DC704770B50646002416E016
:102F4000002510E0AC4202D19FEDEC1B01E01FED2B
:102F5000571BB0EE410AF0EE610A2A462146304680
:102F6000FFF7E2FD6D1C3068A842EBDC641C706862
:102F7000A042E5DC70BD2DE9F0472DED0C8B074636
:102F8000D7E90001884204D00020BDEC0C8BBDE8DD
:102F9000F0877E684846D7E90021FFF73BFD814670
:102FA0005046D7E90021FFF735FD8246002513E0A2
:102FB00000240EE0224629463846FFF7A2FDB0EE77
:102FC000401AF0EE601A224629465046FFF7ACFD43
:102FD000641CB442EEDB6D1CB542E9DB002515E054
:102FE000002410E0A54202D19FEDC41B01E01FEDBB
:102FF0007F1BB0EE410AF0EE610A224629464846A0
:10300000FFF792FD641CB442ECDB6D1CB542E7DBBC
:10301000002543E12A4629465046FFF772FDB0EEEF
:10302000409AF0EE609AA8466C1C2AE0B0EE490A7D
:10303000F0EE690A01F028FDB0EE40AAF0EE60AAB9
:103040002A4621465046FFF75CFDB0EE40CAF0EE3E
:1030500060CA01F019FDB0EE40BAF0EE60BA53EC70
:103060001A2B51EC1B0B02F0CFFD09D22A46214648
:103070005046FFF746FDB0EE409AF0EE609AA0464B
:10308000641CB442D2DBA84544D0002440E0224670
:1030900029465046FFF735FDB0EE408AF0EE608AD3
:1030A000224641465046FFF72CFDB0EE401AF0EEA6
:1030B000601A224629465046FFF736FD2246414611
:1030C000B0EE480AF0EE680A5046FFF72DFD2246A2
:1030D00029464846FFF715FDB0EE408AF0EE608ABB
:1030E000224641464846FFF70CFDB0EE401AF0EE8E
:1030F000601A224629464846FFF716FD22464146F9
:10310000B0EE480AF0EE680A4846FFF70DFD641C71
:10311000B442BCDB2A4629465046FFF7F2FCB0EE2B
:1031200040AAF0EE60AA1FEDCD0B53EC102B51EC32
:103130001A0B02F099FB01D1002026E72A46294606
:103140005046FFF7DEFCB0EE408AF0EE608A0024C5
:1031500034E0224629465046FFF7D3FCB0EE40BA91
:10316000F0EE60BA53EC182B51EC1B0B02F024FA72
:1031700041EC1A0B22462946B0EE4A0AF0EE6A0AE2
:103180005046FFF7D1FC224629464846FFF7B9FCD6
:10319000B0EE40BAF0EE60BA53EC182B51EC1B0BBA
:1031A00002F00AFA41EC1A0B22462946B0EE4A0A0E
:1031B000F0EE6A0A4846FFF7B7FC641CB442C8DB6D
:1031C000002468E0AC4265D02A4621465046FFF70D
:1031D00098FCB0EE408AF0EE608A4FF0000857E0AD
:1031E000424629465046FFF78CFCB0EE40DAF0EE3E
:1031F00060DA53EC182B51EC1D0B02F007FC41EC8C
:103200001B0B424621465046FFF77BFCB0EE40CAFE
:10321000F0EE60CA53EC1B2B51EC1C0B02F036FD98
:1032200041EC1A0B42462146B0EE4A0AF0EE6A0A19
:103230005046FFF779FC424629464846FFF761FCB5
:10324000B0EE40DAF0EE60DA53EC182B51EC1D0BC7
:1032500002F0DCFB41EC1B0B424621464846FFF7DF
:1032600050FCB0EE40CAF0EE60CA53EC1B2B51ECA0
:103270001C0B02F00BFD41EC1A0B42462146B0EE4E
:103280004A0AF0EE6A0A4846FFF74EFC08F10108C8
:10329000B045A5DB641CB44294DB6D1CB542FFF65F
:1032A000B9AE5046FFF7E6FB48466EE670B52DED29
:1032B000068B04460D46606803287DD120680128EE
:1032C000FBD16868032877D12868012874D10122CE
:1032D00003213046FFF79EFB0646A86890ED022BBF
:1032E000B0EE420AF0EE620AA06890ED042BB0EE58
:1032F000421AF0EE621A53EC102B03E000000000BB
:103300000000F03F51EC110B02F080FB41EC190B77
:10331000A86890ED042BB0EE420AF0EE620AA068B5
:1033200090ED022BB0EE421AF0EE621A53EC102B25
:1033300051EC110B02F06AFB41EC1A0B53EC192B08
:1033400002F0A4FC41EC180B00221146B0EE480A32
:10335000F0EE680A3046FFF7E7FBA86890ED042B13
:10336000B0EE420AF0EE620AA06890ED002BB0EEDB
:10337000421AF0EE621A53EC102B51EC110B02F0D2
:1033800045FB41EC190BA86890ED002BB0EE420A0A
:10339000F0EE620AA06890ED042BB0EE421AF0EE57
:1033A000621A53EC102B51EC110B02F02FFB41EC85
:1033B0001A0B53EC192B00E04BE002F067FC41ECD8
:1033C000180B00220121B0EE480AF0EE680A3046E0
:1033D000FFF7AAFBA86890ED002BB0EE420AF0EED2
:1033E000620AA06890ED022BB0EE421AF0EE621A6B
:1033F00053EC102B51EC110B02F008FB41EC190BB4
:10340000A86890ED022BB0EE420AF0EE620AA068C6
:1034100090ED002BB0EE421AF0EE621A53EC102B36
:1034200051EC110B02F0F2FA41EC1A0B53EC192B90
:1034300002F02CFC41EC180B00220221B0EE480AED
:10344000F0EE680A3046FFF76FFB3046BDEC068BA6
:1034500070BD6068012808D12068032805D168681C
:10346000012802D12868032817D06068012808D1F4
:103470002068032805D16868032802D1286801283C
:103480000BD0606803287DD1206801287AD1686854
:10349000012877D12868032874D1032201213046FE
:1034A000FFF7B8FA0646A86890ED022BB0EE420A84
:1034B000F0EE620AA06890ED042BB0EE421AF0EE36
:1034C000621A53EC102B51EC110B02F09FFA41ECF5
:1034D000190BA86890ED042BB0EE420AF0EE620AD8
:1034E000A06890ED022BB0EE421AF0EE621A53EC97
:1034F000102B51EC110B02F089FA41EC1A0B53EC32
:10350000192B02F0C3FB41EC180B00221146B0EE60
:10351000480AF0EE680A3046FFF706FBA86890ED0F
:10352000042BB0EE420AF0EE620AA06890ED002B88
:10353000B0EE421AF0EE621A53EC102B51EC110B64
:1035400002F064FA41EC190BA86890ED002BB0EE84
:10355000420AF0EE620AA06890ED042BB0EE421A27
:10356000F0EE621A53EC102B51EC110B02F04EFAF4
:1035700041EC1A0B53EC192B02F088FB41EC180BB1
:10358000012200E044E00021B0EE480AF0EE680AB3
:103590003046FFF7C9FAA86890ED002BB0EE420A5A
:1035A000F0EE620AA06890ED022BB0EE421AF0EE47
:1035B000621A53EC102B51EC110B02F027FA41EC7C
:1035C000190BA86890ED022BB0EE420AF0EE620AE9
:1035D000A06890ED002BB0EE421AF0EE621A53ECA8
:1035E000102B51EC110B02F011FA41EC1A0B53ECB9
:1035F000192B02F04BFB41EC180B02220021B0EE1C
:10360000480AF0EE680A3046FFF78EFA30461DE7AA
:1036100000BF00201AE7704770B5064600F022F997
:10362000056806F10B0020F00704B4429CBF00209F
:1036300070BD2B466A68BAB11068A04210D304F17D
:10364000080188423CBF5068586007D35168101980
:1036500041601168091B016058601460101D70BD45
:1036600013465268002AE7D12146284600F002F9A5
:103670000028DED170BD70B50446051F00F0F2F8D9
:103680000068002C14BF446870BD002C18BFAC4209
:103690003CBF20466468F8D301680A18AA4218BFE4
:1036A000456003D12A680546114401602868411924
:1036B000A1421CBF6C6070BD6168696021680844EC
:1036C000286070BD0FB4044910B503AA029800F039
:1036D0008FFB10BC5DF814FB300000202DE9F04199
:1036E0000646002410687529314616A510D0AFF3A0
:1036F0000080002802DA404213A507E031688A07FB
:1037000001D512A502E0490704D511A5012401E065
:10371000AFF3008000210A2206F1240709E0B0FB84
:10372000F2FCB0FBF2F302FB1C0030307854184678
:10373000491C0028F3D123462A463046BDE8F04113
:1037400000F0EDB8000000002D0000002B0000008C
:10375000200000002DE9F0410F46054600202862B8
:103760002846E968884770B3252805D0D5E90121A6
:103770009047286A401CF2E7E968284600268847F7
:103780006C2804460AD0682C08D04C2C35D06A2C02
:1037900031D0742C31D07A2C2FD016E0E96806464F
:1037A00028468847B042044608D16C2E23D04FF4F7
:1037B00080662846E9688847044606E06C2E03D0F8
:1037C0004FF4807601E01EE04026E4B1A4F1410010
:1037D000192802D8203446F400663A462146284685
:1037E0002E60FCF70BFD60B1012808D0FF1D27F00B
:1037F00007070837B4E78026DBE70026D9E73F1D37
:10380000AEE72046B2E7286ABDE8F0814FF000023B
:1038100000B5134694469646203922BFA0E80C50C6
:10382000A0E80C50B1F12001BFF4F7AF090728BFA1
:10383000A0E80C5048BF0CC05DF804EB890028BF1D
:1038400040F8042B08BF704748BF20F8022B11F046
:10385000804F18BF00F8012B7047704770477047C2
:103860007047000000487047A8A9012070477047C2
:103870007047704738B504460A4600206946AFF3E2
:103880000080002808BF38BD02460099204600F09D
:10389000CDFA012038BD012000F0F6BBF8B5AFF33A
:1038A0000080054600200C46102000BF0646A819DF
:1038B000A0420DD9324669460020AFF300800700D0
:1038C00008BF00F0E1FB0098A04218BF0546C419EC
:1038D000FFF7C8FF05600746F01D20F007004619F6
:1038E000284600F00AF8B44208BFF8BDA21B3146D2
:1038F0003868BDE8F84000F099BA00210160C0E9DD
:10390000011070471020704710B500F08BFA006866
:1039100010BD10B5044600F085FA046010BD2DE915
:10392000F0470D4699469246044600F12408016886
:10393000880604D5E06921F01001216000E0012033
:10394000A84201DD471B00E00027A1697A1902EBBC
:103950000900081AA0612078C00602D42046AFF3FF
:103960000080002608E0D4E901211AF806009047FB
:10397000206A401C761C20624E45F4DB2078C0068D
:103980000AD52046AFF3008006E0D4E901213020BB
:103990009047206A401C2062381EA7F10107F4DC22
:1039A00007E0D4E9012118F805009047206A401C7F
:1039B0002062281EA5F10105F3DC2046AFF300804C
:1039C0002078000602D50220BDE8F0870120FBE741
:1039D00070472DE9FF4F0C461E464FF0FF378BB066
:1039E000D2E90001DDF860800A908A46C1F30A55E9
:1039F00005B93D46002108464FF00000BAF1000F1E
:103A000000F4400005DA00EB80004FF4400101EAC9
:103A100050004FEA9059B9F1010F00DDB9460A98FC
:103A200050EA4A000ED044F61050A5F2FF35454347
:103A30002F14B8F1000F1ED07542291E1EDDC9F1EA
:103A400000021CE0B8F1010F4FF0000001D030215E
:103A500003E0F24305E02154401CB042FBDB30465A
:103A60000022002121540B99C1F80880C1E90020EF
:103A70000FB0BDE8F08FBD1B6D1CDEE74A4600DAD3
:103A8000694206A800F08AFA06AB93E8070003AB88
:103A900083E8070050460A9900F0B1FB8DE8070063
:103AA000A0F500501F3800900398002D0ADD42F267
:103AB0001F014A460844002303A90390684600F00A
:103AC0001AFE09E0A0F500504A461F38002303A95A
:103AD0000390684600F024FE8DE807000004000C07
:103AE00003D04FF0FF30410800E01046B8F1000F5E
:103AF00003D00022009215461EE0751E05D400F08A
:103B0000AFF9303262556D1EF9D5B3460122084334
:103B100002D000227F1C04E02078302801D100224E
:103B20007F1E002A099784D01DE0112D07DA00F0CE
:103B300097F9303262556D1C50EA0102F5D1084305
:103B400002D00098C8B10EE00021681E05E0235C99
:103B5000625C63542254401E491C8142F7DBAB4631
:103B6000A81B401E0990002004F80B000B98099A2E
:103B7000C0F80880C0E9002B7AE711264FF0000852
:103B800057E72DE9F04F88460446D21D22F0070181
:103B900091B0D1E90001CDE90A0100F0F8FE02463A
:103BA0000B98C00F01D02D2007E02068810701D5B8
:103BB0002B2002E0202101EAC000032A099001D055
:103BC000072A05DB03464146204600F0A7F90BE132
:103BD0002078800601D5E06900E00620B8F1650F85
:103BE000814606D0B8F1660F18D0B8F1670F70D1D2
:103BF00031E00020B9F1110F009001DB112301E049
:103C000009F101030AAA01A90CA8FFF7E2FEDDE908
:103C10000C70002609F10105834647E001204B4660
:103C200000904FF000470AAA01A90CA8FFF7D1FEA7
:103C3000DDE90DB00C995D46002610B909F10100CF
:103C40000D18B9EB050003D4C0F1FF3609F10105E9
:103C5000A5EB09002BE0B9F1010F01DA4FF00109E2
:103C60000020B9F1110F0090484601DD112300E05A
:103C700003460AAA01A90CA8FFF7ABFEDDE90C7008
:103C80004D4600268346207800070AD4AB4500DA6B
:103C90005D4601A8012D04DD411911F8011C3029F0
:103CA00007D04F4502DA17F1040F04DA01208246EB
:103CB0000FE06D1EEEE7002F02DCED1B3E4403E03B
:103CC000781CA84200DD7D1CB81B00F1010A4FF0F2
:103CD00000472078000703D4AA4501DB4FF0FF3AE4
:103CE0000021B7F1004F0DF143088DF8431024D0A7
:103CF00002202B23002F01DA7F422D230A21021EEE
:103D0000A0F1010000DC5FB197FBF1FC97FBF1F241
:103D100001FB1C7C17460CF1300C08F801CDEEE7D6
:103D2000A8F1010003702188090501D5452100E0B3
:103D30006521A0F1010800F8011C09980FA9A1EB69
:103D40000807FF1D00B10120411901EBEA70A169CC
:103D50003844081A401EA0612078C00602D42046CC
:103D6000AFF30080099828B1D4E901219047206A77
:103D7000401C20622078C00622D52046AFF3008088
:103D80001EE0002E04DBB34502DD01A8805D00E0EB
:103D90003020D4E901219047206A401C2062761C23
:103DA000AAF101005FEA000A0AD100F037F8C06802
:103DB0000168405CD4E901219047206A401C2062E0
:103DC000281EA5F10105DCDC07E0D4E9012118F883
:103DD000010B9047206A401C2062381EA7F10107A2
:103DE000F3DC2046AFF30080032011B041E6000071
:103DF000074B70B50D467B4400F07DF8044628461D
:103E000000F03EF910B14FF0FF3070BD204670BD9C
:103E1000E7D3FFFF00487047A0A901200048704782
:103E2000C0A9012000487047A0A9012003464068AE
:103E30008C46002818BF88423CBF03464068F8D330
:103E400018681844884207D00CF1030020F00700DE
:103E5000001D411A521A0146081D0A60FFF70BBCEB
:103E600030B5B0F10A024FEA900E71F100034EEA4C
:103E7000817EB0EB0E0061EB91014FEA101E4EEA1D
:103E8000017E10EB0E0041EB11114FEA102E4EEAAD
:103E9000016E10EB0E0041EB11214FEA104E4EEA7D
:103EA000014E10EB0E0041EB1141401841F10001B1
:103EB0004FEAD00040EA41704FEAD10110EB800593
:103EC0004FEA810444EA907444EB01046D1944EB19
:103ED0000404521BA3414FF0000348BF0A3200D52F
:103EE00030BD401C41F1000130BD000001694A1C99
:103EF00002610878704700B58FB0CDE9013100212B
:103F0000059105497944CDE9031011466846FFF74C
:103F100021FC0FB000BD0000E5FFFFFF2DE9F041DF
:103F20001F46044603260168072A01F4006004DBEB
:103F300008B116A505E016A503E008B115A500E037
:103F400015A521F010002060A069C01EA0610FB16E
:103F5000401EA0612046AFF300804FB1D4E901219B
:103F600038469047206A401C2062C01C206206E050
:103F7000206AFAE7D4E9012115F8010B9047761E73
:103F8000F8D22046AFF30080BDE8F0814E414E00EC
:103F90006E616E00494E4600696E66002DE9F0477D
:103FA000814616468AB0354878440DC88DE80D0024
:103FB00032487844801C03AC0DC884E80D0041F6FB
:103FC0009B300844372190FBF1F290FBF1F5A5F10D
:103FD000800501FB12041B3C02D56442012000E075
:103FE0000020DFF898A080460027FA44AAF1BE0A14
:103FF0000EE0E0070AD03246684607EB470101238E
:104000000AEB810100F08CFB8DE8070064107F1C37
:10401000002CEED1194F7F44AE3F19E0E80715D0D0
:1040200007EB04100DF1180A90E80E008AE80E0064
:10403000C068F04201D1981908903246012306A9C0
:1040400003A800F06DFB03AB83E807006D10641C50
:10405000002DE3D14FF0010332466946B8F1000F5D
:1040600003A802D000F047FB01E000F059FBC9E9CA
:104070000001C9F808200AB0BDE8F08770210000EF
:10408000007B00F08000704710B500F037F8BDE805
:10409000104000F02EB87546FFF7BCFEAE46050096
:1040A0006946534620F00700854618B020B5FDF755
:1040B00033FBBDE820404FF000064FF000074FF003
:1040C00000084FF0000B21F00701AC46ACE8C00936
:1040D000ACE8C009ACE8C009ACE8C0098D4670473F
:1040E00010B50446AFF300802046BDE81040FCF751
:1040F000A8B8002801D0FDF76FB8704710B50128A7
:1041000005D0002103A000F061F8012010BD09A135
:10411000F8E7000053494752544D454D3A204F753A
:1041200074206F662068656170206D656D6F7279AF
:10413000000000003A2048656170206D656D6F7267
:104140007920636F72727570746564004FF0013C82
:1041500050F8042B51F8043B9A4221D1A2EB0C03F6
:10416000934313EACC1317D150F8042B51F8043BB6
:104170009A4215D1A2EB0C03934313EACC130BD153
:1041800050F8042B51F8043B9A4209D1A2EB0C03DE
:10419000934313EACC13DBD04FF00000704700BF0D
:1041A000D01A01BAB1FA81F101F0180122FA01F036
:1041B000CB40C1F12001DBB2C0B2C01A2CFA01F32E
:1041C000D11A914311EAC311E6D1704770B5054683
:1041D0000C460A2000E06D1CFDF700F835B1287888
:1041E0000028F8D102E0641CFCF7F8FF14B1207835
:1041F0000028F8D1BDE870400A20FCF7EFBF5FEA65
:10420000400C08BF91F0000F4FEA8C234FEAC12207
:1042100043EA51514FEA1C5018BF00F5F0404FEAF5
:10422000300018BF41F000415FEA6C5C00F029806B
:10423000BCF1FF3F08BF40F080407047130C06BF41
:1042400012044FF0100C4FF0000C130E04BF1202BA
:104250000CF1080C130F04BF12010CF1040C930FA6
:1042600004BF92000CF1020CD30F04BF52000CF1FA
:10427000010C11464FF00002A0F11F00A0EB0C0052
:10428000704711F0004F08BF704731F000413FF414
:10429000D5AF0B0C06BF09044FF0100C4FF0000C0B
:1042A0000B0E04BF09020CF1080C0B0F04BF09012F
:1042B0000CF1040C8B0F04BF89000CF1020CCB0F26
:1042C00004BF49000CF1010CCCF12003A0EB0C0061
:1042D00022FA03F302FA0CF241EA030100F10100B1
:1042E000704720F07F4C80EA030023F07F47ACEB5F
:1042F000070303F57C5300F0004003F1FF032DE9B1
:1043000080494FEA154B09B44FEA144325EA0B4E96
:1043100024EA03480FF2042606EB132749083E78E7
:104320005FEA320203FB0667C7F5000707FB06F6E4
:104330004FEA54374FEAD64606F1020607FB066CF1
:10434000CCF1005C4FEA1C472CEA074C07FB06F453
:104350000CFB06F504EB15464FEA961634BF002019
:104360004FF000404FEAD13706FB07FC4FEA1C4CE8
:104370000CFB0BF7D21B03FB0CF761EB07010CFBEB
:104380000EF7B0EB074072EB17420CFB08F734BF97
:10439000A2EB0742B2EB074261EB17414FEA0C4434
:1043A0004FEA910706FB07FC4FEA1C4C0CFB0BF78E
:1043B000B0EBC74072EB573203FB0CF734BFA2EBF4
:1043C000C742B2EBC74261EB57310CFB0EF7B0EBC3
:1043D000C70072EB57720CFB08F734BFA2EBC702A1
:1043E000B2EBC70261EB5771039F4FEA816141EA6B
:1043F000921104EBCC044FEAD1374FEA826206FBFC
:1044000007FC42EA90124FEA80604FEA1C4C0CFB1A
:104410000BF7D21B03FB0CF761EB07010CFB0EF74C
:10442000B0EB074072EB17420CFB08F734BFA2EB6E
:104430000742B2EB074261EB17414FEA8C554FEA56
:10444000910704EB9C2406FB07FC4FEA1C4C0CFB79
:104450000BF7B0EBC74072EB573203FB0CF734BFDE
:10446000A2EBC742B2EBC74261EB57310CFB0EF730
:10447000B0EBC70072EB57720CFB08F734BFA2EB2E
:10448000C702B2EBC70261EB577115EB4C254FEA3F
:10449000816141EA92114FEA82624FEAD13742EAE2
:1044A000901206FB07FC44F100044FEA80604FEADB
:1044B0001C4C0CFB0BF7D21B03FB0CF761EB070149
:1044C0000CFB0EF7B0EB074072EB17420CFB08F742
:1044D00034BFA2EB0742B2EB074261EB174115EB89
:1044E0001C154FEA813141EA92414FEA823242EA99
:1044F00090424FEA80304FEA0C7644F1000448EADB
:1045000003434EEA0B484FF0000EB2EB080C71EB80
:10451000030724BF624639464EEB0E0E4FF0000BE8
:104520000018524149414BEB0B0BB2EB080C71EBFD
:1045300003077BF1000B24BF624639464EEB0E0E9B
:104540004FF0000B0018524149414BEB0B0BB2EB03
:10455000080C71EB03077BF1000B24BF6246394660
:104560004EEB0E0E51EA020718BF46F0010616EB9D
:104570000E7655F1000254F1000103D5BDE8890122
:10458000BDE80088BDE88901BDE80048B619524180
:1045900041EB0101A3F10103704780807F7E7D7CA8
:1045A0007B7A7978777676757473727171706F6EC5
:1045B0006E6D6C6C6B6A6A69686867666665646470
:1045C000636362616160605F5F5E5E5D5D5C5C5BFA
:1045D0005B5A5A5959585857575656555555545469
:1045E000535352525251515050504F4F4F4E4E4DC7
:1045F0004D4D4C4C4C4B4B4B4A4A4A494949484813
:104600004847474747464646454545444444444352
:1046100043434342424242414141002B9C4630D4F5
:1046200077002BD01CB54FEA370703B44FF01000CA
:104630004FF01001BAF1000F06D0BCF1000FDCBF43
:1046400040F0080040F008014FF000000FBCBDE84A
:1046500010400BF1010BBBF1010F08BF5FEA170718
:1046600022BF12F1010211F101014FF0004143F1AB
:10467000000300F0004043EA00007047F9D35708F8
:10468000D0E746EA064613F1400F4FEA16461FDD13
:1046900013F1200FDFBF16430A46002120335B428F
:1046A000BED0C3F1200746EA064602FA07F74FEAF2
:1046B000164646EA0706C3F1200722FA03F201FA7A
:1046C00007F721FA03F14FF0000342EA0702A7E7D8
:1046D00046EA020646EA06464FEA164646EA01065A
:1046E000BCBF46EA0646360C4FF000034FF000020E
:1046F0004FF0000194E72DE9804C9A46934670B440
:1047000091E8380007C831EA400C48BF34EA430C4E
:1047100003D5FFF7E6FDFFF780FFF0BCBDE8008C96
:104720002DE9804C9A46934670B491E8380007C84A
:1047300010F0804F08BF13F0804F03D100F005F850
:10474000FFF76BFFF0BCBDE8008C20F07F4780EAEC
:10475000030023F07F4C07EB0C03A3F57C5300F020
:104760000040A3F1FE0392F0000F00F0B38095F03B
:10477000000F00F077802DE901494FEA11404FEA20
:10478000144621EA004800FB06FC24EA064708FB21
:1047900006F607FB08F800FB07F718EB06484CEB9A
:1047A000164C4FEA124B18EB07484FEA15464CEBF4
:1047B000174022EA0B4E0BFB06FC25EA06470EFBD0
:1047C00006F607FB0EFE0BFB07F71EEB064E4CEB47
:1047D000164C4FF000061EEB074E4CEB174B18EB38
:1047E0000B0840F1000018EB0E0B58EB000840F1ED
:1047F00000008F1A4FF000013CBFC943661B14BF75
:10480000B5EB040C00213CBFC943F61B4FEA17442B
:104810004EEA8E0E27EA04454FEA1C4704FB076266
:104820002CEA074C05FB07F70CFB05F604FB0CFC18
:1048300016EB074642EB174216EB0C4642EB1C42C6
:104840001BEB060658EB0202414146EA9E0601D5E3
:10485000BDE80189B619524141EB0101A3F1010301
:10486000BDE801894FEA14454FEA114724EA05469D
:1048700021EA074C05FB07F406FB07F70CFB06F1E2
:1048800005FB0CFC11EB074144EB17444FEA1247C0
:1048900011EB0C4144EB1C4422EA074C05FB07F2E8
:1048A00006FB07F70CFB06F605FB0CFC16EB0746B0
:1048B00042EB174216EB0C4642EB1C456A1854F1CA
:1048C000000148BF7047B619524141EB0101A3F105
:1048D0000103704795F0000F37D04FEA11424FEABD
:1048E000144721EA024624EA074C02FB07F106FBC3
:1048F00007F70CFB06F402FB0CFC14EB074441EB3E
:1049000017414FEA154714EB0C4441EB1C4125EAD3
:10491000074C02FB07F506FB07F70CFB06F602FB4C
:104920000CFC16EB074645EB174516EB0C4645EB22
:104930001C42121951F1000148BF7047B61952418B
:1049400041EB0101A3F1010370474FEA14454FEA1F
:10495000114724EA054621EA074C05FB07F106FB4F
:1049600007F70CFB06F24FF0000605FB0CFC12EB00
:10497000074241EB174112EB0C4251EB1C4148BF7F
:104980007047921841EB0101A3F10103704703B492
:1049900001984100009850EAC12018BF04204A0D38
:1049A00018BF40F0010040F2FF72B2EB515F08BF48
:1049B00040F00200012808BF052002B07047000047
:1049C00010B52F499FED2C1B2DED020B84B00598DF
:1049D00020F000408842D8BF9DED040B2DDD294911
:1049E000884209D1049840B94FF00100FEF791FFC9
:1049F00000F0AEFC06B010BD05DB9DED040B00F031
:104A00009BFC06B010BD68469DED040B00F0ACF8B1
:104A100010F0030004BF9DED021B9DED000B0CD0B8
:104A200001280ED09DED021B9DED000B022817D032
:104A3000012000F0E9FB06B010BD00F0B1FA06B0AD
:104A400010BD9DED021B9DED000B012000F0DCFB75
:104A500051EC100B00F0BEFC06B041EC100B10BD89
:104A600000F09EFA51EC100B00F0B4FC06B041ECE3
:104A7000100B10BD0000000000000000000000004E
:104A8000FB21E93F0000F07F2DED020B019820F0A3
:104A9000004001909DED000B02B070470000000047
:104AA00010B52F499FED2C1B2DED020B84B00598FE
:104AB00020F000408842DCBF00209DED040B32DD79
:104AC0002849884209D1049840B94FF00100FEF707
:104AD00020FF00F03DFC06B010BD05DB9DED040B92
:104AE00000F02AFC06B010BD68469DED040B00F0F6
:104AF0003BF810F0030011D0012818D09DED021BE7
:104B00009DED000B02281AD000F04AFA51EC100B70
:104B100000F060FC06B041EC100B10BD9DED021BD7
:104B20009DED000B012000F06FFB06B010BD9DED68
:104B3000021B9DED000B00F033FA06B010BD012002
:104B400000F062FB51EC100B00F044FC06B041ECAD
:104B5000100B10BD0000000000000000000000006D
:104B6000FB21E93F0000F07F2DE9F14F04462DEDD8
:104B7000020B2DED088B8AB09FEDE70B80ED020B49
:104B8000139EE74826F0004585420ADC9DED120B96
:104B9000002084ED000B0AB0BDEC088B03B0BDE82B
:104BA000F08FE0489FEDE0AB9FEDE1BBA84247DD11
:104BB000E14F9FEDE39B9FEDE48B9DED120B53ECDA
:104BC0001A2B51EC100B002E1CDD01F05FF841ECAC
:104BD000100BBD4208D053EC1B2B51EC100B01F015
:104BE00055F8C4E900010BE053EC192B51EC100B04
:104BF00001F04CF853EC182B01F048F8C4E900011F
:104C00000120C8E700F024FC41EC100BBD4208D0A5
:104C100053EC1B2B51EC100B00F01AFCC4E9000103
:104C20000BE053EC192B51EC100B00F011FC53EC82
:104C3000182B00F00DFCC4E900014FF0FF30AAE78B
:104C4000C348A84279DB9DED120B51EC100B00F02C
:104C50009FFB41EC180B9FEDC00B53EC102B00F0A9
:104C6000D5FE9FEDBF1B53EC112B00F0F1FB00F0C4
:104C700037FE074600F063FE41EC190B53EC1A2B8C
:104C800000F0C4FE53EC182B00F0F4FF41EC180BBD
:104C900053EC1B2B51EC190B00F0B8FEDFF8C8A247
:104CA00041EC100B4FEA15580125FA4453EC102B38
:104CB00051EC180B00F0EAFF032DC4E900013DD0D0
:104CC000C1F30A5005EB4511A8EB000011398142F0
:104CD00034DA0AEB051BB0EE48AA9BED000BF0EEB0
:104CE00068AA53EC102B51EC190B00F08FFE41EC2D
:104CF0001B0B51EC1A0B53EC1B2B00F0C7FF41ECC4
:104D0000180B51EC1A0B53EC182B00F0BFFF53ECAF
:104D10001B2B00F0BBFF9BED020B41EC1A0B53EC7D
:104D2000102B51EC190B00F071FE53EC1A2B00F014
:104D3000ADFF41EC100B6D1CB8E70EE0002EA8BFD4
:104D40003846BFF628AF94ED000B51EC100B00F085
:104D500041FBC4E9000178421DE7C6F3130040F4AB
:104D6000801EC6F30A50A0F2F530471100F01F056F
:104D7000C5F12000DDF848B00890002006900790AB
:104D80000520EC467949002D07EB0002794408BF65
:104D900051F8221009D051F8223001EB8201AB40CA
:104DA0004A68089922FA01F11943A1FB0E26A1FBDA
:104DB0000B131A449A4234BF0123002303EB060865
:104DC0000CEB8003D3E901A60E448E4234BF0121CF
:104DD000002192448A4411B1924502D903E09245E0
:104DE00001D2012100E00021C3E901A641444CF8B1
:104DF0002010011EA0F10100C4DC029800F1005057
:104E0000850F0298DDE903678000DDF8148000F06B
:104E100096FD41EC1A0B304600F0A8FD9FED541BA7
:104E200053EC112B00F0F2FD41EC1B0B384600F067
:104E30009DFD9FED511B53EC112B00F0E7FD41EC64
:104E4000180B404600F092FD9FED4D1B53EC112BCB
:104E500000F0DCFD41EC190B51EC180B53EC192B55
:104E600000F0F6FA53EC1B2B00F0F2FA53EC1A2B7D
:104E700000F0EEFACDE90801002008909DED080B46
:104E800053EC1A2B51EC100B00F000FF53EC1B2BD2
:104E900000F0FCFE53EC182B00F0F8FE53EC192B3D
:104EA00000F0E8FE9FED381B53EC112B00F0AEFD37
:104EB0009FED370B41EC180B53EC102B9DED080BBD
:104EC00051EC100B00F0A2FD53EC182B00F0C0FACF
:104ED0009FED310B41EC180B53EC102B9DED080BA3
:104EE00051EC100B00F092FD53EC182B00F0B0FACF
:104EF00041EC100B139810F0004F06D06D4251ECAE
:104F0000100B00F067FA41EC100B284684ED000B03
:104F100041E600000000000000000000000000006A
:104F2000FB21E93F7CD9024000004054FB21F93FBE
:104F30003163621A61B4D03DFB21F93F00000000EB
:104F40000000601A61B4D03D7370032E8A19A33B30
:104F5000FB2139410000000083C8C96D305FE43F88
:104F6000000000000000E03F0213000050120000AB
:104F7000000000000000103E000000000000103C97
:104F8000000000000000103A182D4454FB21F93DA8
:104F90003326A611460B113C00000054FB21F93DBD
:104FA00010B52DED040B2DED088B82B0B0EE419ABB
:104FB000F0EE619A0B9820F000449FED4BABB4F1FA
:104FC000795F11DA9DED0A0B51EC100B00F088FCB3
:104FD000002801BFB0EE4A0AF0EE6A0A02B0BDEC4A
:104FE000088B04BF04B010BD9DED0A0B53EC102BD1
:104FF00051EC100B00F00AFD41EC180B3C48062167
:10500000B0EE480AF0EE680A784400F081F853ECFC
:10501000182B51EC100B00F0F9FC9DED0A0B41EC44
:105020001B0B53EC192B51EC100B00F0EFFC41EC77
:10503000190B53EC1B2B51EC180B00F0E7FC53EC55
:10504000192B00F023FE9FED2C0B41EC190B53ECB8
:10505000102B51EC180B00F0D9FC41EC100B284838
:10506000844210DA53EC192B51EC100B00F00EFEB9
:1050700053EC1A2B00F0FEFD41EC100B02B0BDEC1E
:10508000088B04B010BD1F48A042BCBF9FED1E1B83
:105090008DED001B06DBA4F50010019000200090B0
:1050A0009DED001B51EC100B53EC112B00F0EEFDAD
:1050B0009DED000B41EC180B53EC102B51EC1A0B2F
:1050C00000F0E4FD41EC1A0B53EC192B51EC180BDA
:1050D00000F0DCFD53EC1A2B00F0CCFD41EC100B82
:1050E000CCE7000000000000000000000000F03FDE
:1050F000740F000000000000000000000000E03F0E
:105100003333D33F0000E93F000000000000D23FEE
:1051100070B504462DED028B4D1E00EBC500B0EEC0
:10512000408AF0EE608A90ED000B35F0060017D053
:1051300053EC182B51EC100B00F068FC41EC100BF9
:105140006D1E04EBC50090ED001B51EC100B53ECF1
:10515000112B00F07DF941EC100B35F00600E7D182
:10516000022D36D0042D1CD0062D1CBFBDEC028BA9
:1051700070BD53EC182B51EC100B00F047FC94ED74
:105180000A1B53EC112B00F063F953EC182B00F0C1
:105190003DFC94ED081B53EC112B00F059F941EC48
:1051A000100B53EC182B51EC100B00F02FFC94ED6E
:1051B000061B53EC112B00F04BF953EC182B00F0AD
:1051C00025FC94ED040B53EC102B00F041F941EC5D
:1051D000100B53EC182B51EC100B00F017FC94ED56
:1051E000021B53EC112B00F033F953EC182B00F099
:1051F0000DFC94ED001B53EC112B00F029F9BDECD4
:10520000028B41EC100B70BD31B504462DED040B43
:105210002DED0A8BB0EE41BAF0EE61BA0B989DED20
:105220000A0B20F00040B0F1795F0DDA51EC100B61
:10523000FFF7ADFB042808BF00F09AF89DED0A0BBC
:10524000BDEC0A8B05B030BD53EC102B51EC100BAC
:1052500000F0DCFB41EC180B9DED0A0B53EC182B16
:1052600051EC100B00F0D2FB41EC190B2C48B0EEC6
:10527000480AF0EE680A05217844FFF749FF9FEDE0
:105280002ACBB0EE40AAF0EE60AA9CB353EC1C2BE4
:1052900051EC190B00F0BAFB41EC1C0B53EC1A2B30
:1052A00051EC190B00F0B2FB9FED210B41EC190BF7
:1052B00053EC102B51EC1B0B00F0A8FB53EC192BFB
:1052C00000F0E4FC53EC182B00F0A0FB53EC1B2B7C
:1052D00000F0DCFC53EC1C2B00F0D8FC9DED0A1B0D
:1052E00053EC112B00F0C6FCBDEC0A8B05B041EC71
:1052F000100B30BDFFE753EC1A2B51EC180B00F0EC
:1053000085FB53EC1C2B00F0A3F853EC192B00F099
:105310007DFB9DED0A1B53EC112B00F099F8E3E7A0
:10532000FC0D000000000000495555555555C5BFFE
:10533000000000000000E03F10B553EC102B51ECD2
:10534000100B00F085F841EC100B10BD00000000C0
:105350009FED050B10B553EC102B51EC100B00F02A
:105360002BF941EC100B10BD000000000000000004
:105370009FED050B10B553EC102B51EC100B00F00A
:1053800045FB41EC100B10BD0000000000000010B8
:1053900082B0CDE9000121F0004001909DED000BAD
:1053A00002B051EC100B704710B500290AD00878F4
:1053B000002807D005487844FEF7C8FE002801D031
:1053C000002010BD0248784410BD00009E0D000072
:1053D000960D000081F00041704780F0004070475A
:1053E00021F00041704720F00040704721F000425A
:1053F000A2F16052B2F5801F01F0004328BFD2F144
:105400007F6C0BD95FEA001C43EAC20242EB50708A
:1054100018BF704728BF20F001007047B2F5801F09
:10542000BCBF184670474FEA410C1CF5001F02D262
:10543000084600F08BBD70B500F092FB00000089BB
:10544000FFF7F6BF4FF00040A0F580007047000066
:1054500010B591EA030F48BF83F0004300F11E84AA
:10546000841A71EB030C05D2121943EB0C03001BD9
:1054700061EB0C01DFF824E14FEA1154A4EB135C5B
:105480001EEA430F18BF9EEA445F73D023EA0E035F
:10549000DCF1200E21EA045143F4801332D322FAC6
:1054A0000CFE10EB0E0023FA0CFE41EB0E01CCF1CA
:1054B000200E03FA0EFE10EB0E0051F10001B1F5C3
:1054C000801FCCF1200E32D201EB045112FA0EF201
:1054D000BDE8104058BF7047401C38BF5FEA420229
:1054E00018BF7047002814BF20F0010041F10001EF
:1054F0004FEA410313F5001F38BF7047A1F1C041C7
:1055000000F07CBB012A43EB0302ACF1200CDCF180
:105510001F0E32BF4FF0000E23FA0CF310EB030006
:1055200041EB0451B4EB115FD0D0A1EB045101F574
:10553000801149085FEA300001EB04510ED350F1AD
:10554000000038BF12FA0EFE08D1BDE81040C9E7CE
:10555000401C38BF5FEA4202CAD1C3E7BDE8104031
:105560004FEA410313F5001F38BF7047A1F1C04156
:1055700000F044BB9EEA445F08D011EA5E0FBDE82C
:10558000104004BF01F0004100207047BDE810400A
:1055900070B500F0E5FA00BF64FBBE3E0000E0FF1E
:1055A000491058BFC1F140415B1058BFC3F140439F
:1055B0008B42EFF3008070472DE9C04130B4DFF833
:1055C000A0C23CEA111418BF3CEA131400F0EC80AE
:1055D00081EA03051CEA111444EAD57418BF1CEAD9
:1055E000131500F0C780A4EB05044FF0004545EA11
:1055F000C12145EAC32341EA505143EA525304F121
:105600007F74994204F500344FEAC0204FEAC22269
:1056100008BF904200F09C804FEA13650FF24016DD
:10562000765D4FEA134506FB05F7C7F1807706FB69
:1056300007F74FEAD737A7FB03687642C8F58038EB
:10564000A7FB06CE38BFA8F1010807FB08E64FF01C
:10565000000EA6FB028CE6FB03CEDCF1000CCEF1C3
:10566000004E38BFAEF1010EA6FB0C584FF00007FC
:105670004FF00005E6FB0E87A1FB08C6A0FB07CE96
:1056800016EB0E0645F10005E1FB076515F1E04E4E
:105690007EBFA4F580345FEA46066D4116F18007AF
:1056A00045F100054FEA17274FEA066647EA056706
:1056B000A6F1DE46B6F1805F4FEA15251FD93846C0
:1056C00024F0010C05EBC471BCF1FE6F01EB0C1171
:1056D00002D8F0BCBDE8008124425CBF01F5801E09
:1056E0009EEAC47F02D4F0BCBDE80081244238D4D5
:1056F000F0BCA1F1C041BDE8004100F07FBA4FEA23
:10570000D22242EA43524FEAD323A7FB02864FEA52
:10571000D02040EA415007FB03661EEA0E0F4FEA15
:10572000D12105FB026658BFA6EB0056B6EB00562A
:105730004FEA520E4EEAC37E18EB0E0E56EB530E96
:10574000BDD518EB02085E417F1C55F10005B6E798
:105750004FF480154FF000074FF000064FF000089F
:10576000ADE7F0BC4FF0000001F1C04101F0004195
:10577000BDE8008111EA0C1F0CEA131500D00CE003
:1057800013EA0C1F00F025804FF00000F0BC81EA06
:10579000030101F00041BDE80081F0BCBDE800411B
:1057A00081EA030100F02ABAF0BCBDE8004170B5FF
:1057B00000F0D6F9097EFC3E00F007B881EA03014B
:1057C0004FF0000001F00041704781EA030100F052
:1057D00015BAF0BCBDE800414FF000002149704708
:1057E000FFFDFBF9F7F5F4F2F0EEEDEBE9E8E6E4A6
:1057F000E3E1E0DEDDDBDAD8D7D5D4D3D1D0CFCD2D
:10580000CCCBCAC8C7C6C5C4C2C1C0BFBEBDBCBB65
:10581000BAB9B8B7B6B5B4B3B2B1B0AFAEADACAB60
:10582000AAA9A8A8A7A6A5A4A3A3A2A1A09F9F9E3A
:105830009D9C9C9B9A9999989797969595949393EC
:10584000929191908F8F8E8E8D8C8C8B8B8A898983
:105850008888878786858584848383828281818006
:105860000000FF070000F87F51EA030C17D41CF575
:10587000801F58BFBCF5801F00F10680994218BFF9
:10588000704708BF9042704707D711F5801F58BF77
:1058900013F5801F19D499427047894270471CF54F
:1058A000801F08D5BCF5801FF7D58B4218BF704705
:1058B00008BF824270474FF4001C1CEB410F38BFF9
:1058C0001CEB430F01D28B42704770B500F048F9D2
:1058D000922449004FF000514FF08053FFF760BE13
:1058E0004FEA41034FEA5353A3F58063D3F11E03FC
:1058F000C8BFD3F1210C0CDD4FF0004242EAC122B7
:1059000042EA505232FA03FC8CEAE17CACEBE170E3
:105910007047102BC4BF0020704703F5787CBCF1A2
:10592000FF3F04D06FF0004282EA2100704770B55B
:1059300000F016F94992248000207047F2E710F039
:10594000004248BF4042B0FA80F310FA03F10AD097
:10595000C3F11D0303F580634FEA415002EB03528C
:1059600002EBD12170474FF000007047B0FA80F38E
:1059700010FA03F10AD0C3F11D0303F580634FEA67
:1059800041504FEA035202EBD12170474FF0000023
:105990007047000051EA030C17D41CF5801F58BF54
:1059A000BCF5801F00F10680994218BF704708BF00
:1059B0009042704707D711F5801F58BF13F5801F1D
:1059C00019D499427047894270471CF5801F08D549
:1059D000BCF5801FF7D58B4218BF704708BF8242C5
:1059E00070474FF4001C1CEB410F38BF1CEB430FFA
:1059F00001D28B42704770B500F0B2F89224490092
:105A00004FF000514FF08053FFF7CABDDFF848C197
:105A100070B51CEA111E1EBF1CEA13159EEA0C0F7E
:105A200095EA0C0F00F06F8081EA030423EA4C131F
:105A30004EEAD47E21EA4C1141F4801143F48013E4
:105A4000AE44A1FB024CA0FB0365AEF17F7E36198C
:105A500055EB0C05A1FB034C4CF10003A0FB021C11
:105A600016EB0C06654153F10003094218BF46F0DE
:105A7000010613F4007F0BD14FEA03314FEA0530E2
:105A8000340341EA155140EA16506FF003020AE070
:105A90004FEAC3214FEAC520F40241EA555140EADA
:105AA00056506FF0020202EB2E4201EB025585EADE
:105AB000CE710AD05FEA440C18BF24F0004450F1C4
:105AC000000041F1000120EAD47040F2FE7C624502
:105AD00000D270BDA84214BF4FF080444FF0404444
