:020000040800F2
:10000000C0AD012051130008B1050008B305000878
:10001000B7050008BB050008BF0500080000000088
:10002000000000000000000000000000C305000800
:10003000C505000800000000C7050008C905000844
:100040006B1300086B1300086B1300086B13000898
:100050006B1300086B1300086B1300086B13000888
:100060006B1300086B1300086B1300086B13000878
:100070006B1300086B1300086B1300086B13000868
:100080006B1300086B1300086B1300086B13000858
:100090006B1300086B1300086B1300086B13000848
:1000A0006B1300086B1300086B1300086B13000838
:1000B0006B1300086B1300086B1300086B13000828
:1000C0006B1300086B1300086B1300086B13000818
:1000D0006B1300086B130008711000083B0E00083A
:1000E0006B1300086B1300086B1300086B130008F8
:1000F0006B1300086B1300086B1300086B130008E8
:100100006B1300086B1300086B1300086B130008D7
:100110006B1300086B1300086B1300086B130008C7
:100120006B1300086B1300086B1300086B130008B7
:100130006B1300086B1300086B1300086B130008A7
:100140006B1300086B1300086B1300086B13000897
:100150006B1300086B1300086B1300086B13000887
:100160006B1300086B1300086B1300086B13000877
:100170006B1300086B1300086B1300086B13000867
:100180006B1300086B130008DFF80CD003F0ACFB16
:10019000004800479D010008C0AD01202DED108BE7
:1001A00088B0E5A00068079000274FF4A06001F038
:1001B000E1F8A82000F078FE4FF4E13000F0E0FD17
:1001C0004FF4E13000F002FF00F008FB002000F0E7
:1001D000C0FF022000F0BDFF0724B7EE000AF0EEDA
:1001E000408A9FEDD60AB0EE40FAB7EE000A8DEDD8
:1001F000060A9FEDD30A8DED050A9FEDD20BB0EEF6
:1002000040BAF0EE60BA22462146049802F01EFA87
:100210000490002527E04FF0000921E04D4507D16B
:100220004A4629469FEDC90B049802F099FA15E059
:1002300009F10100854207D14A4629469FEDC50BC9
:10024000049802F08DFA09E0681C814506D14A46FF
:1002500029469FEDC00B049802F082FA09F10109CA
:10026000A145DBDB6D1CA542D5DB224601214046C2
:1002700002F0ECF98046404602F05CFC204603F0B8
:1002800080F941EC1D0B53EC1D2B9FEDB40B51EC91
:10029000100B03F007F941EC1C0B03F0E5F908EE35
:1002A000100A22462146039802F0D0F90390002557
:1002B00029E04FF0000923E04D4507D14A46294681
:1002C0009FEDA20B039802F04BFA17E0A9EB050093
:1002D00000EE100AB8EEC00A20EE080A10EE101A5E
:1002E000084603F07EF941EC1C0B4A462946B0EE65
:1002F0004C0AF0EE6C0A039802F032FA09F1010997
:10030000A145D9DB6D1CA542D3DB02222146504614
:1003100002F09CF9824600250EE0002229469FED5E
:100320008B0B504602F01CFA012229469FED8D0BE3
:10033000504602F015FA6D1CDAF80400A842ECDC15
:1003400002220121304602F081F90646304602F0D1
:100350006DF99FED7E9B9FED7DAB002000F014FFBB
:100360000546294681A003F0DFFA022107A800F024
:10037000BCFE00BF00BF00BF02E081A003F0D4FAC2
:10038000012000F033FB0028F7D081A003F0CCFA65
:10039000D0E04FF4967097FBF0F100FB117000284D
:1003A0007DD10025B0E000222946504602F0C5F973
:1003B000B0EE40CAF0EE60CAB06890ED001BB0EE3F
:1003C000410AF0EE610A53EC102B51EC1C0B02F0C9
:1003D000F1FF41EC190B01222946504602F0ADF91C
:1003E000B0EE40CAF0EE60CAB06890ED021BB0EE0D
:1003F000410AF0EE610A53EC102B51EC1C0B02F099
:10040000D9FF41EC1A0B029802F050F9019802F062
:100410004DF9584602F04AF9534600954146B0EE70
:100420004B0AF0EE6B0ADDE9032001F0C1FF0290F8
:10043000D8F8080000EBC50090ED001BB0EE410AB3
:10044000F0EE610A51EC100B03F00EF90CEE100AFD
:10045000B0EE4C4A0298DDED063AB0EE4F3AF0EEBF
:10046000682A9DED052AB0EE4A1AF0EE6A1AB0EE3F
:10047000490AF0EE690A01F08FFE019031460198B9
:1004800002F07EF98346DBF8080090ED001BB0EE29
:10049000410AF0EE610A00222946504600E036E0AB
:1004A00002F05EF9DBF8080090ED021BB0EE410AA5
:1004B000F0EE610A01222946504602F051F9690026
:1004C0000022504602F039F9B0EE40EAF0EE60EA60
:1004D0009FED320B53EC102B51EC1E0B02F070FF12
:1004E00041EC1D0B9FED2F0B53EC102B02F0DAFFAC
:1004F00041EC1C0B03F0B8F80FEE900AE8B2B0EE36
:100500006F0A00F072FB6D1CA542FFF64CAF1E2077
:1005100097FBF0F100FB117038B92448006808B966
:10052000012100E00021214801600A2000F01EFDA9
:10053000781C87B22DE700000D0A0000DA0FC93FD2
:100540000AD7233C0000000000000040000000002B
:1005500000000000000000000000E03F3822CE79DB
:100560007CD922407B14AE47E17A843F0A0A0AC450
:10057000DAB4E6CAB9D3C3C2CAA3BA25640A000072
:1005800050696E67206661696C65640A000000004E
:1005900050696E67204F4B0A000000000000000009
:1005A000008066404AD8124DFB210940A482424295
:1005B000704700BFFEE700BFFEE700BFFEE700BFD9
:1005C000FEE7704770477047704700000CB5002089
:1005D000019000907648006840F4803074490860CB
:1005E00000BF7348006800F4003000900198401C80
:1005F0000190009818B90198B0F5A04FF1D16C485E
:10060000006800F4003010B10120009001E00020EB
:1006100000900098012846D165484030006840F0BD
:1006200080506349403108606248006840F44040AF
:10063000604908605E48083000685D49083108601C
:100640000846006840F4004008600846006840F42E
:10065000A05008605848091F0860081F006840F053
:100660008070091F086000BF5148006800F00070EA
:100670000028F9D040F20570504908604C48083015
:10068000006820F003004A49083108600846006805
:1006900040F00200086000BF45480830006800F0E4
:1006A0000C000828F8D10CBD10B54548006840F48E
:1006B0007000434908603E48006840F001003C4932
:1006C000086000203A4908310860394800683D490F
:1006D0000840374908603C48091D0860081F006849
:1006E00020F48020091F0860002031490C31086087
:1006F000FFF76CFF4FF0006031498039086010BD92
:1007000070B500200022022300240221284D083564
:100710002D6805F00C0020B1042806D0082834D13B
:1007200007E02A4D2A4E356033E02A4D284E3560C9
:100730002FE01F4D2D1D2D68C5F380541C4D2D1D20
:100740002D6805F03F0154B1224DB5FBF1F5184E6F
:10075000361D3668C6F3881605FB06F209E01B4D08
:10076000B5FBF1F5124E361D3668C6F3881605FB4B
:1007700006F20F4D2D1D2D68C5F301456D1C6B0054
:10078000B2FBF3F5124E356003E0104D104E3560AC
:1007900000BF00BF064D08352D68C5F303150E4E8A
:1007A000705D0B4D2D68C540094E356070BD000071
:1007B000003802400070004008544007003C0240EE
:1007C00088ED00E0FFFFF6FE103000240024F40066
:1007D0000000002000127A00040000201CB5012156
:1007E000202001F05BF94FF4C060009001208DF8EB
:1007F000040000208DF8060003208DF8050001207C
:100800008DF807006946044800F0AAFE4FF4C06165
:10081000014800F021FF1CBD0014024010B5044641
:100820002146FE4801F0A8FB00BF4021FB4801F033
:1008300053FC0028F9D010BD2DE9F04706460F46BD
:1008400014469846B1460025FF20FFF7E7FFFF203A
:10085000FFF7E4FF3046FFF7E1FFA01CFFF7DEFFE4
:100860003846FFF7DBFFA01C3844484400F0FF097E
:1008700000BF0AE018F80500FFF7D0FF18F80500E0
:10088000484400F0FF09681CC5B2A542F2DB6FEADC
:10089000090188B2FFF7C2FFBDE8F087E0480068B1
:1008A000401CDF49086008460168DE48814202D3E7
:1008B0002038DB490860DA48006800787047D8487B
:1008C0000168D94802688A4201D3501A7047881AD1
:1008D000C0F12000FAE7D4480068D14908607047A9
:1008E0002DE9F04100250024D0480078CF4949780F
:1008F0000844CE4989780844C6B2FFF7CFFF0746BF
:10090000FFF7E9FF0CE0681CC5B2C82D05DDC8A0E3
:1009100003F00AF80020BDE8F0814B2000F0DEFA79
:10092000FFF7CDFF0428EED30025FFF7B7FFFFF751
:10093000B5FFFFF7B3FFBD490870FFF7AFFFBB4935
:100940004870084640781B2806DD08464178BFA05D
:1009500002F0EAFF0020DEE711E0681CC5B2C82DF6
:100960000ADDFFF7ACFF8046B04842784146BFA0A1
:1009700002F0DAFF0020CEE7872000F0AFFAFFF7A1
:100980009EFFAA4949788842E7D3FFF787FFA74926
:10099000887008468078C4490870002406E0FFF794
:1009A0007DFFA249C91C0855601CC4B29F4840780D
:1009B000801EA042F3DC002406E09C48C01C005DC1
:1009C0003044C6B2601CC4B298484078801EA04231
:1009D000F3DCF043C6B2BE4206D03A463146B3A07D
:1009E00002F0A2FF002096E7012094E710B504462C
:1009F00000231A4601212046FFF71EFF204604F07F
:100A00001FF908B9002010BD0120FCE738B50546E4
:100A10000C4605208DF80000204604EBD071C1F390
:100A200047018DF80110B4F5FF7F01DD002038BDCE
:100A30006B46022203212846FFF7FEFE284604F0FB
:100A4000FFF808B90020F2E70120F0E738B50546C5
:100A50000C4611208DF800008DF801406B460222F3
:100A600003212846FFF7E8FE284604F0E9F808B914
:100A7000002038BD0120FCE738B505460C461220A1
:100A80008DF800008DF801406B46022203212846B4
:100A9000FFF7D2FE284604F0D3F808B9002038BD8D
:100AA0000120FCE7F8B505460C46260AE7B22220ED
:100AB0008DF800008DF801708DF80260B4F5806F3C
:100AC00001DB0020F8BD6B46032211462846FFF7E4
:100AD000B3FE284604F0B4F808B90020F2E701207C
:100AE000F0E738B505460C467CA0006800906B46E0
:100AF000022211462846FFF79FFE284604F0A0F880
:100B000008B9002038BD49480079208020884FF678
:100B1000FF7101EA0020208020884449C9780843F9
:100B200020800120EEE7F8B505460C46260AE7B21C
:100B300020208DF800008DF801708DF80260B4F56A
:100B4000806F01DB0020F8BD6B460322114628466A
:100B5000FFF772FE284604F073F808B90020F2E7A8
:100B60000120F0E738B505460C465DA0006800900E
:100B70006B46022211462846FFF75EFE284604F027
:100B80005FF808B9002038BD284800792080208807
:100B90004FF6FF7101EA0020208020882349C978A0
:100BA000084320800120EEE738B505460C464DA0ED
:100BB000006800906B46022211462846FFF73CFE73
:100BC000284604F03DF808B9002038BD17480079E0
:100BD00020802078000200B22080B4F90000134980
:100BE000C978084320800120EFE7F0B52DED028B96
:100BF00081B00546B0EE408AB0EE080A28EE000A41
:100C0000BCEEC00A10EE100A84B2260AE7B21E201B
:100C10008DF800008DF8017066E00000004800408B
:100C200018000020A30000201C0000206400002009
:100C3000546F6F206D616E7920726574726965738F
:100C40002061742073746172740A000052657370BD
:100C50006F6E7365206C656E67746820746F6F20AB
:100C60006269673A2025640A00000000546F6F2013
:100C70006D616E7920726574726965732077616940
:100C800074696E6720666F7220706172616D732C7B
:100C900020676F74202564206F66202564207061B2
:100CA00072616D730A0000001400002043686563E0
:100CB0006B73756D206D69736D617463683A20257F
:100CC000782063616C63756C617465642C20257891
:100CD0002072656365697665640A0000220200007F
:100CE00020020000260200008DF80260B5EEC08AE6
:100CF000F1EE10FA06D39FED630AB4EEC08AF1EE6E
:100D000010FA04DD002001B0BDEC028BF0BD6B4693
:100D1000032211462846FFF78FFD284603F090FF77
:100D200008B90020EFE70120EDE7F8B506460D46CB
:100D300055A000680090554804796B460222114680
:100D40003046FFF779FD304603F07AFF08B90020FE
:100D5000F8BD4FF6FF7000EA04244C48C078044305
:100D600000EE104AB8EE400ADFED460A20EE200AF7
:100D7000DFED470A80EE201A85ED001A0120E7E733
:100D800010B588B004460121082000F087FE01213B
:100D9000880400F0CCFE072209213E4800F06BFCDD
:100DA000072208213B4800F066FC4FF44070069093
:100DB00002208DF81C0003208DF81D0000208DF806
:100DC0001E0001208DF81F0006A9324800F0C8FB64
:100DD00002940020ADF80C00ADF80E00ADF8100044
:100DE000ADF814000C20ADF8120002A92A4801F059
:100DF00010F80121284801F000F90121264801F0EE
:100E000090F8012240F22551234801F040F92720B3
:100E10008DF8040000208DF805008DF806000120F3
:100E20008DF8070001A800F0AAFA01224FF45871CA
:100E3000194801F02CF908B010BD10B540F2255149
:100E4000154801F05FF998B1134801F099F804468C
:100E500012480068401C11490860084601681048A3
:100E6000814202D320380D4908600C4909680C7092
:100E700010BD0C48002000BF00BF642000F076F8D1
:100E8000FBE70000000096432402000064000020FD
:100E900000C07F44000C0240004800401C000020BD
:100EA000A30000205C00002010B504466FF0040091
:100EB00000F0B2FAE11704EB5171C1F3C701394AEE
:100EC00011701046007800EB4001C1EBC0104FF6E6
:100ED000FF7101EAC0003449088010BD0146314A63
:100EE00012784A434FF0E0235A6100229A611A4671
:100EF000126942F001021A6100BF4FF0E02210694E
:100F000000F001021AB100F48032002AF5D04FF04F
:100F1000E022126922F001024FF0E0231A61002260
:100F20009A6170470146204A12884A434FF0E023F5
:100F30005A6100229A611A46126942F001021A614E
:100F400000BF4FF0E022106900F001021AB100F476
:100F50008032002AF5D04FF0E022126922F001021F
:100F60004FF0E0231A6100229A61704770B5044681
:100F70004FF4077094FBF0F0C6B24FF4077094FB87
:100F8000F0F100FB114085B205E04FF40770FFF768
:100F9000C9FF701EC6B2002EF7D115B12846FFF763
:100FA000C1FF70BD200000202200002000BF70475C
:100FB00000BF704700BF574A128802F04002002A63
:100FC000F9D0C2B2534B1B1D1A80704710B588B0C0
:100FD00004460121084600F061FD0121480400F0AB
:100FE000A6FD072202214C4800F045FB0722032101
:100FF000494800F040FB0C20069002208DF81C00B0
:101000008DF81D0000208DF81E0001208DF81F00B6
:1010100006A9414800F0A4FA02940020ADF80C00A3
:10102000ADF80E00ADF81000ADF814000C20ADF8CE
:10103000120002A9374800F0ECFE0121354800F00B
:1010400070FF012240F22551324801F020F826209D
:101050008DF8040000208DF8050003208DF80600AF
:1010600001208DF8070001A800F089F908B010BD33
:1010700010B540F22551274801F044F810B3254837
:1010800000F07EFFC4B22548008800F40040C8B9D3
:101090002248008800F4804060B10A2C03D0002070
:1010A0001E49088020E01D48008840F400401B498C
:1010B000088019E00D2C06D11848008840F48040C3
:1010C0001649088010E015480088C0F30D00144947
:1010D0000C5412480088401C1049088008460088BB
:1010E000132801DD0020088010BD70B506460C46AF
:1010F00000250BE0715D074800F03EFF00BF402176
:10110000044800F0E9FF0128F9D16D1CA542F1DB8C
:10111000204670BD00440040000002402400002032
:10112000A300002070B503460C4603E014F8015BF1
:1011300003F8015B151EA2F10102F7D170BD30B5B5
:10114000034601E003F8011B141EA2F10102F9D1CC
:1011500030BD10B504467A4951F824104A00794947
:1011600051F824000021FFF7EAFF774951F82420C5
:1011700074490C3951F824000021FFF7E0FF0121E8
:1011800070480C30015510BD10B5014600230022F7
:1011900007E06C4850F8210030F8120000B15B1CE9
:1011A000521C674850F821009042F2D864205843FE
:1011B000634C54F82140B0FBF4F0C0B210BD2DE9EF
:1011C000F04704460F460025A9465E480C30005DF6
:1011D00020B95C4814380168204688471FB94FF091
:1011E000FF30BDE8F087594850F82400B7FBF0F60F
:1011F000564850F82400B7FBF0F100FB117000B125
:10120000761C4F4850F82400451E20E04D4850F809
:10121000240030F8150010B909F1010901E04FF080
:101220000009B14512D14FF0000808E0454850F8D8
:10123000240005EB080220F8126008F10108B0450F
:10124000F4D3424850F824006843CAE76D1E002DCD
:10125000DCDA4FF0FF30C4E72DE9F04104460E46DA
:1012600038480C30005D38B93648143801682046DB
:1012700088470120BDE8F081334850F82400B0428F
:1012800017D9324850F82400B6FBF0F12D4850F839
:10129000240030F81120002507E00023294850F8E9
:1012A00024004F1920F817306D1C9542F5DB002003
:1012B000E0E70220DEE770B505460C4604B970BDD4
:1012C00020480C3850F82500261A31462846FFF7EA
:1012D000C3FF00BFF3E770B504460E463146204613
:1012E000FFF76DFF0546681C08B9002070BD154862
:1012F0000C3850F824002844F8E72DE9F041044662
:101300000F46164631462046FFF759FF0546681C32
:1013100010B90020BDE8F0810A490C3951F82410B9
:10132000481932463946FFF7FDFE39462046FFF799
:10133000C2FF04480C3850F824002844EAE70000B3
:10134000984C00083C000020B04C0008A44C000859
:101350000648804706480047FEE7FEE7FEE7FEE74F
:10136000FEE7FEE7FEE7FEE7FEE7FEE7A906000868
:101370008901000832490143324A1160704770B553
:10138000002100230F22C4781CB32E4C246804F4DF
:10139000E064C4F5E064C4F30721C1F10404E3B2DE
:1013A0000A4144789C40E1B28478144021430C0700
:1013B000210E254C05786155047804F01F050124A1
:1013C000AC4005786D11AD0005F1E025C5F8004190
:1013D00009E0047804F01F050124AC401B4D067899
:1013E000761145F8264070BD194A0A400243154B54
:1013F0001B1F1A60704739B1124A121D126802434E
:10140000104B1B1D1A6006E00E4A121D1268824323
:101410000C4B1B1D1A607047042808D14FF0E021C7
:10142000096941F004014FF0E022116107E04FF03B
:10143000E021096921F004014FF0E02211617047B9
:101440000000FA050CED00E000E400E080E100E0BF
:1014500080FFFF1F10B504469848844208D101213F
:10146000084600F086FB0021012000F082FB76E0B8
:101470009348844208D10121022000F07AFB002128
:10148000022000F076FB6AE08E48844208D10121F8
:10149000042000F06EFB0021042000F06AFB5EE0F7
:1014A0008948844208D10121082000F062FB002114
:1014B000082000F05EFB52E08448844208D10121FC
:1014C000102000F056FB0021102000F052FB46E0F7
:1014D0007F48844208D10121202000F04AFB0021EE
:1014E000202000F046FB3AE07A48844208D10121EE
:1014F000402000F03EFB0021402000F03AFB2EE0AF
:101500007548844208D10121802000F032FB00217F
:10151000802000F02EFB22E07048844208D1012197
:10152000801500F026FB0021A01500F022FB16E03C
:101530006B48844208D10121401500F01AFB0021BC
:10154000601500F016FB0AE06648844207D10121CD
:10155000001500F00EFB0021201500F00AFB10BD65
:10156000F0B50A4600210023002400BF3DE001251C
:1015700005FA01F3156805EA03049C4234D10568B5
:101580004F000326BE40B543056015794E00B540B7
:101590000668354305601579012D02D01579022DB5
:1015A00016D185684F000326BE40B5438560557946
:1015B0004E00B540866835438560456801268E40FB
:1015C000B5434560456896798E40B6B2354345606F
:1015D000C5684F000326BE40B543C560D5794E00AF
:1015E000B540C6683543C560491C1029BFD3F0BD5E
:1015F0004FF6FF7101600021017141718171C1716C
:10160000704708B54FF480320092009A0A43009266
:10161000009AC261C161009AC261C2690092C26946
:10162000009208BD0246002013690B400BB1012057
:1016300000E0002070470146086980B2704702460A
:10164000002053690B400BB1012000E000207047DF
:101650000146486980B270470183704741837047F3
:101660000AB1018300E041837047416170474269DC
:101670004A4042617047F0B5002300244D07ED0E4B
:1016800002FA05F3CE1000F1200555F826504E075A
:10169000F70E0F26BE40B543CF1000F1200646F8E6
:1016A0002750CE1000F1200555F8265045EA0304D6
:1016B000CE1000F1200545F82640F0BD00000240A4
:1016C0000004024000080240000C024000100240EA
:1016D0000014024000180240001C0240002002409A
:1016E0000024024000280240F948006840F0010050
:1016F000F74908600020F64908310860F44800689E
:10170000F4490840F2490860F348091D0860F348AD
:10171000EF4984310860F0481038091D0860EC4832
:10172000006820F48020EA4908600020E8490C3174
:101730000860E7498C31086070470021E44A921C38
:10174000117011460870704710B501460022002341
:1017500000204A11012A02D1DD4C236808E0022A48
:1017600003D1DB4C7034236802E0D94C7434236815
:1017700001F01F02012494401C400CB1012000E044
:10178000002010BD38B5002000900024002500BFC7
:101790003120FFF7D9FF05460098401C00900098C3
:1017A000B0F5A04F01D0002DF2D03120FFF7CCFFD3
:1017B00008B1012400E00024204638BD0146002085
:1017C000C34A106820F0F80040EAC100106070477A
:1017D000C349086070470021BD4A70321170117012
:1017E000012802D004280AD104E00121B84A70324D
:1017F000117005E00521B64A7032117000E000BF9B
:1018000000BF7047B7490860704770B5049C41EA53
:1018100082150126C6EB530645EA0645054345EA0F
:101820000465AB4E361D356070BDAD490866704726
:10183000820142EA0172A64B84331A607047A849BC
:101840008866704710B5830143EA016343EA027377
:101850009F4C8834236010BDA14908677047A04998
:10186000C864704702460020994B0833186820F07E
:10187000EC6042EA01031843954B08331860704747
:1018800002460020924B0833186820F0784042EA64
:10189000010318438E4B083318607047014600203F
:1018A0008B4A0832106820F003000843106070472C
:1018B00087480830006800F00C007047014600209F
:1018C000834A0832106820F0F00008431060704727
:1018D000014600207E4A0832106820F4E050084398
:1018E0001060704701460020794A0832106820F4E1
:1018F000604040EAC10010607047F0B5002100224E
:101900000024022500260223714F08373F6807F0A4
:101910000C0121B1042905D0082937D105E0724F07
:10192000076036E0714F076033E0694F3F1D3F6845
:10193000C7F38056664F3F1D3F6807F03F036EB107
:101940006A4FB7FBF3F7DFF888C10CF1040CDCF841
:1019500000C0CCF3881C07FB0CF40CE0624FB7FB13
:10196000F3F7DFF86CC10CF1040CDCF800C0CCF329
:10197000881C07FB0CF4564F3F1D3F68C7F3014717
:101980007F1C7D00B4FBF5F7076002E0564F07604F
:1019900000BF00BF4E4F08373F6807F0F00109094C
:1019A000534F7A5C0768D7404760494F08373F6814
:1019B00007F4E051890A4E4F7A5C4768D740876048
:1019C000434F08373F6807F46041490B484F7A5C42
:1019D0004768D740C760F0BD002100F44072B2F5FF
:1019E000407F0AD13A4A0832116821F4F811414A7D
:1019F00002401143364A08321160354A703212688B
:101A0000C0F30B031A43324B70331A6070473549E9
:101A10004439086070473349403908607047364997
:101A20000860704701460020294A8C32106820F077
:101A30001F004A1E1043264A8C3210607047014630
:101A40000020234A8C32106820F4F8504A1E40EAE5
:101A500002201F4A8C3210607047014600201C4A49
:101A60008C32106820F44010084310607047014623
:101A70000020174A8C32106820F4400008431060A0
:101A8000704701460020124A8C32106820F4403022
:101A900008431060704719490860704739B10C4A13
:101AA0003032126802430A4B30331A6006E0084AAB
:101AB000303212688243064B30331A607047F9B1F6
:101AC000034A343212680243014B34331A601CE07B
:101AD00000380240FFFFF6EA1030002400300020FA
:101AE00000004742800E47420024F40000127A00B2
:101AF0004C000020FFFCFF0F5C014742E011474211
:101B00008F4A126882438E4B1A60704739B18C4AF3
:101B1000121D126802438A4B1B1D1A6006E0884A98
:101B2000121D12688243864B1B1D1A60704739B123
:101B3000834A0C3212680243814B0C331A6006E070
:101B40007F4A0C32126882437D4B0C331A60704717
:101B500039B17B4A103212680243794B10331A6054
:101B600006E0774A103212688243754B10331A60D0
:101B7000704739B1724A243A12680243704B243BD1
:101B80001A6006E06E4A243A126882436C4B243B8A
:101B90001A60704739B16A4A203A12680243684BAA
:101BA000203B1A6006E0664A203A12688243644B82
:101BB000203B1A60704739B1614A1C3A12680243EF
:101BC0005F4B1C3B1A6006E05D4A1C3A1268824378
:101BD0005B4B1C3B1A60704739B1594A143A126882
:101BE0000243574B143B1A6006E0554A143A1268F8
:101BF0008243534B143B1A60704739B1504A103A34
:101C0000126802434E4B103B1A6006E04C4A103AF1
:101C1000126882434A4B103B1A60704739B1484AF8
:101C20001C3212680243464B1C331A6006E0444AD9
:101C30001C3212688243424B1C331A60704739B120
:101C40003F4A2032126802433D4B20331A6006E0BF
:101C50003B4A203212688243394B20331A60704766
:101C600039B1374A243212680243354B24331A60A3
:101C700006E0334A243212688243314B24331A601F
:101C8000704739B12E4A2C32126802432C4B2C3348
:101C90001A6006E02A4A2C3212688243284B2C3301
:101CA0001A60704739B1264A303212680243244B19
:101CB00030331A6006E0224A303212688243204BE9
:101CC00030331A607047012808D11D493C3109683A
:101CD00041F008011A4A3C32116007E018493C31D2
:101CE000096821F00801164A3C321160704739B189
:101CF000134A273A12780243114B273B1A7006E029
:101D00000F4A273A127882430D4B273B1A707047CF
:101D10000B484030006840F080700949403108604D
:101D2000704701460020064A283A12680A400AB164
:101D3000012000E0002070470149263908707047F3
:101D40003438024010B50446FA48844208D10121D3
:101D50001020FFF752FF00211020FFF74EFF57E041
:101D6000F548844209D101214804FFF735FF0021DD
:101D70004FF40030FFF730FF4AE0F048844209D1C9
:101D800001218804FFF728FF00214FF48020FFF78E
:101D900023FF3DE0EA48844209D10121C804FFF74E
:101DA0001BFF00214FF40020FFF716FF30E0E5484D
:101DB000844209D101210805FFF70EFF00214FF4ED
:101DC0008010FFF709FF23E0DF48844208D101219A
:101DD0002020FFF712FF00212020FFF70EFF17E061
:101DE000DA48844209D101218807FFF7F5FE002176
:101DF0004FF08040FFF7F0FE0AE0D548844207D15B
:101E000001214005FFF7E8FE00216005FFF7E4FE31
:101E100010BD2DE9FF4705460E460024A14600BF30
:101E2000A046B08900B100BF2C8A24F44054F08849
:101E300004432C82AC8941F20C608443B088318920
:101E40000843718908430443AC81AC8A24F440748C
:101E5000B0890443AC826846FFF74FFDB548854220
:101E600002D0B948854202D1DDF80C9001E0DDF8DE
:101E70000890A88900F4004040B109EBC90000EBCC
:101E8000091031684900B0FBF1F707E009EBC90020
:101E900000EB091031688900B0FBF1F76420B7FB53
:101EA000F0F004012009642101FB1078A88900F4F6
:101EB000004040B1322000EBC800B0FBF1F000F070
:101EC0000700044308E0322000EB08106421B0FB57
:101ED000F1F000F00F0004432C81BDE8FF874FF4C0
:101EE0001651016000218180C18001810C21418156
:101EF00000218181704710B502460020108A20F42D
:101F000070600B884C8823438C882343CC88234300
:101F10001843108210BD0021018041808180C18062
:101F2000704721B1828942F40052828104E08289A3
:101F30004DF6FF731A4082817047028B02F47F4294
:101F40000283028B0A430283704721B1828942F4E3
:101F50000042828103E08289C2F30E0282817047CF
:101F600021B1828A42F40062828204E0828A4FF2C6
:101F7000FF731A4082827047C1F308028280704763
:101F800001468888C0F308007047028A4FF6F07354
:101F90001A400282028A0A430282704721B1828972
:101FA00042F00202828104E082894FF6FD731A40FA
:101FB0008281704782894FF2FF731A408281828941
:101FC0000A4382817047028A4FF6DF731A40028209
:101FD000028A0A430282704721B1028A42F4804297
:101FE000028204E0028A4BF6FF731A4002827047B5
:101FF000818941F001018181704721B1828A42F0DB
:102000000802828204E0828A4FF6F7731A408282C5
:102010007047028BD2B20283028B42EA0122028312
:10202000704721B1828A42F02002828204E0828AD3
:102030004FF6DF731A408282704721B1828A42F0E4
:102040001002828204E0828A4FF6EF731A40828285
:102050007047828A4FF6FB731A408282828A0A4353
:102060008282704721B1828A42F00202828204E0B9
:10207000828A4FF6FD731A40828270471AB1838AB2
:102080000B43838202E0838A8B4383827047F0B5DF
:102090000346002400260025002040F66A17B942B6
:1020A00000D100BF1846C1F3421401F01F060127FA
:1020B00007FA06F5012C01D10C3004E0022C01D105
:1020C000103000E014301AB107682F43076002E0B7
:1020D0000768AF430760F0BD02460020B1F5007FFE
:1020E00000D100BF13880B400BB1012000E000209D
:1020F000704701F40072B2F5007F00D100BFCA43FF
:102100000280704770B5024600240023002500209D
:1021100040F66A16B14200D100BFC1F3421501F08A
:102120001F03012606FA03F3012D13D196893340CC
:1021300017E000000010014000440040004800404B
:10214000004C004000500040001401400078004066
:10215000007C0040022D02D1168A334001E0968AAD
:1021600033400C12012606FA04F41688344013B1E9
:102170000CB1012000E0002070BD10B5002200234A
:1021800040F66A14A14200D100BF0A120124944013
:10219000A3B2DC43048010BD30B52DED108B8FB0A1
:1021A000B0EE408AF0EE608AB0EE419AF0EE619AAD
:1021B000B0EE42AAF0EE62AAB0EE43BAB0EE63EA25
:1021C000F0EE44BA044653EC192B51EC190B01F014
:1021D000F7F841EC1F0B53EC182B51EC180B01F0E6
:1021E000EFF841EC1D0B53EC1F2B01F042F8CDE949
:1021F0000C012BEEAB0AF0EE40BA1EEE100A01F015
:10220000F0F9CDE906011BEE900A01F0EAF941EC84
:102210001D0B53EC1D2B9DED0C0B51EC100B01F025
:1022200041F941EC1F0B9DED060B53EC102B01F017
:10223000C1F841EC1C0B00221146204600F07DFA4B
:102240008DED060B1AEE900A01F0CBF941EC1D0B57
:1022500053EC1C2B01F0B4F841EC1F0B53EC182B82
:1022600001F0AEF8B1EE4B0ACDE9020110EE100A12
:1022700001F0B7F941EC1D0B53EC192B01F0A0F85C
:10228000CDE900019DED020B53EC102B9DED000BF1
:1022900051EC100B01F08EF8CDE904019DED060B19
:1022A00053EC102B9DED040B51EC100B00F0E1FFF3
:1022B000CDE90A0101220021204600F03EFA8DED11
:1022C000060B1AEE900A01F08CF941EC1D0B53EC51
:1022D0001C2B01F075F841EC1F0B53EC192B01F08E
:1022E0006FF8CDE902011BEE100A01F07AF941EC1A
:1022F0001D0B53EC182B01F063F8CDE900019DEDA7
:10230000020B53EC102B9DED000B51EC100B01F068
:1023100051F8CDE904019DED060B53EC102B9DED1A
:10232000040B51EC100B00F0A4FFCDE908010222D0
:102330000121284600F08AF905461AEE100A01F03C
:1023400050F941EC1D0B9DED0A0B53EC102B01F0E5
:1023500037F841EC1F0B53EC182B00F08AFF0022DA
:10236000CDE9060111469DED060B284600F0F8F96F
:102370001AEE100A01F035F941EC1D0B9DED080B2A
:1023800053EC102B01F01CF841EC1F0B53EC192BF4
:1023900000F06FFF0122CDE9060100219DED060B43
:1023A000284600F0DDF928460FB0BDEC108B30BD9B
:1023B0002DE9F04F2DED088B8DB0B0EE408AF0EE98
:1023C000608A81460E4617461D46DDF87880012258
:1023D00002210C9800F03AF90C90012202210B988E
:1023E00000F034F90B90022211460A9800F02EF901
:1023F0000A9001220221089800F028F90890D5F8E7
:1024000004A02021684600F029FF0022414628460A
:1024100000F093F9B0EE409AF0EE609A0022114677
:102420000C9800F09DF901224146284600F085F9FC
:10243000B0EE409AF0EE609A002201210C9800F074
:102440008FF90024CEE022464146384600F075F967
:10245000B0EE409AF0EE609A01F08EFA8DED000B2E
:1024600022464146384600F068F9B0EE40AAF0EE48
:1024700060AA01F0F1FAB0EE409AF0EE609A9FED9A
:10248000690B53EC102B51EC190B00F096FFCDE9C2
:1024900002019DED021BB0EE410AF0EE610A53EC21
:1024A000102B9FED601B51EC110B00F083FFCDE969
:1024B00004019DED000B8DED060B9DED001BB0EEB4
:1024C000410AF0EE610A002211460A9800F048F92C
:1024D0009DED021BB0EE410AF0EE610A01220021DF
:1024E0000A9800F03DF99DED041BB0EE410AF0EEB4
:1024F000610A002201210A9800F032F99DED061BC5
:10250000B0EE410AF0EE610A012211460A9800F08D
:1025100027F900222146284600F00FF9B0EE409A34
:10252000F0EE609A002211460B9800F019F9012292
:102530002146284600F001F9B0EE409AF0EE609A8C
:10254000002201210B9800F00BF9DDE90A0100F0EF
:102550001DFA099022460021304600F0EEF8B0EE58
:1025600040AAF0EE60AA42460021304600F0E5F8AD
:10257000B0EE40BAF0EE60BA53EC1A2B51EC1B0BE4
:1025800000F090FF41EC190BB0EE490AF0EE690A39
:10259000099800F089F90C99099800F03BF98346F5
:1025A000099800F083F822464146484600F0C5F8F5
:1025B000B0EE409AF0EE609A584600F075F9594630
:1025C000089800F0DDF80990584600F06FF8089878
:1025D00000F06CF8DDE9081000F073F8099800F0DD
:1025E00065F8641C5445FFF62EAFB0EE480AF0EED5
:1025F000680A089800F058F9089800F03AFA0C9820
:1026000000F054F80B9800F051F80A9800F04EF8DA
:10261000099800F04BF808980DB0BDEC088BBDE8A8
:10262000F08F00000000000000000000002107E023
:102630009FEDFE0B826802EBC10282ED000B491C8C
:10264000D0E900235A438A42F2DC704770B5044651
:102650000D461646002E14DD002D12DD0C21002043
:10266000FEF739FE044626606560F00000FB05F1C8
:102670000020FEF730FEA0602046FFF7D7FF20467F
:1026800070BD0020FCE770B504460D46A06838B167
:10269000D4E900135943CA002946A068FEF742FD59
:1026A00070BD0146D1E900025043704710B50446A1
:1026B0000020A168FEF7FFFD21460020FEF7FBFD8C
:1026C00010BD70B504460D462068286060686860DB
:1026D0002046FFF7E6FFC600A1683246A868FEF76D
:1026E00021FD70BD38B50446D2A00068009004B941
:1026F00038BD002500BF19E0A06800EBC50090EDD3
:10270000001BB0EE410AF0EE610A53EC102BCAA098
:1027100001F00AF9681C216890FBF1F201FB12003C
:1027200018B902216846FEF7E0FC6D1C2046FFF751
:10273000B8FFA842E0DC00BFDAE710B543688B427F
:1027400002DB0368934202DA9FEDB80B10BD046808
:1027500001FB0424836803EBC40393ED000BF5E74E
:1027600010B543688B420ADD0368934207DD0468B5
:1027700001FB0424836803EBC40383ED000B10BD4D
:102780002DE9F04104460F462068396888423FD160
:102790006068796888423BD14046D4E90021FFF760
:1027A00055FF804600252DE0002627E0B868216807
:1027B00005FB016100EBC10090ED002BB0EE420A79
:1027C000F0EE620A216805FB0161A06800EBC10020
:1027D00090ED002BB0EE421AF0EE621A53EC102B83
:1027E00051EC110B00F045FDD8F8003005FB0363F8
:1027F000D8F8082002EBC30203C2761C2068B0425E
:10280000D4DC6D1C6068A842CEDC4046BDE8F08197
:102810000020FBE72DE9F04104460F4620683968A7
:1028200088423FD16068796888423BD14046D4E90C
:102830000021FFF70BFF804600252DE0002627E052
:10284000B868216805FB016100EBC10090ED002B29
:10285000B0EE420AF0EE620A216805FB0161A06851
:1028600000EBC10090ED002BB0EE421AF0EE621AC0
:1028700053EC102B51EC110B00F09CFDD8F80030FC
:1028800005FB0363D8F8082002EBC30203C2761CE1
:102890002068B042D4DC6D1C6068A842CEDC4046A3
:1028A000BDE8F0810020FBE770B52DED028B0446FA
:1028B000B0EE408AF0EE608A002513E0A06800EBDD
:1028C000C50090ED001BB0EE410AF0EE610A53EC3A
:1028D000182B51EC100B00F073FDA26802EBC5023F
:1028E00003C26D1CD4E900104843A842E6DCBDECED
:1028F000028B70BD70B52DED028B0446B0EE408AA0
:10290000F0EE608A002513E0A06800EBC50090EDB2
:10291000001BB0EE410AF0EE610A53EC182B51ECAB
:10292000100B00F0A6FCA26802EBC50203C26D1CEE
:10293000D4E900104843A842E6DCBDEC028B70BD30
:1029400070B52DED028B0446B0EE408AF0EE608A41
:10295000002513E0A06800EBC50090ED001BB0EE71
:10296000410AF0EE610A53EC182B51EC100B00F009
:1029700021FDA26802EBC50203C26D1CD4E9001060
:102980004843A842E6DCBDEC028B70BD2DE9F04760
:102990002DED028B04460D4620686968884266D199
:1029A0002A6840466168FFF751FE8046002656E0DF
:1029B000002750E04FF0000949E0296809FB017148
:1029C000A86800EBC10090ED002BB0EE420AF0EEDB
:1029D000620A216806FB0191A06800EBC10090ED3E
:1029E000002BB0EE421AF0EE621A53EC102B51ECB1
:1029F000110B00F0E5FC41EC180BD8F8001006FBB9
:102A00000171D8F8080000EBC10090ED001BB0EE9A
:102A1000410AF0EE610A53EC102B51EC180B00F058
:102A200028FCD8F8003006FB037309E00000000022
:102A3000000000000D0A0000256C6609000000007F
:102A4000D8F8082002EBC30203C209F1010920688B
:102A50004845B2DC7F1C2868B842ABDC761C606855
:102A6000B042A5DC4046BDEC028BBDE8F0870020FB
:102A7000F9E72DE9F0410446D4E90001884229D163
:102A80003846D4E90021FFF7E1FD074639462046E4
:102A9000FFF717FE002516E0002610E0B868216851
:102AA00006FB015100EBC10090ED000B216805FB16
:102AB0000161A06800EBC10080ED000B761C60682E
:102AC000B042EBDC6D1C2068A842E5DC3846FFF71D
:102AD000EDFD2DE03846D4E90021FFF7B7FD0746AC
:102AE00039462046FFF7EDFD786820603868606061
:102AF000002516E0002610E0396806FB0151B86891
:102B000000EBC10090ED000B216805FB0161A0689E
:102B100000EBC10080ED000B761C2068B042EBDCBE
:102B20006D1C6068A842E5DC3846FFF7BFFD00BFBA
:102B3000BDE8F081002107E09FEDFE0B826802EB0B
:102B4000C10282ED000B491CD0E900235A438A429E
:102B5000F2DC7047002105E0826802EBC10282EDE1
:102B6000000B491CD0E900235A438A42F4DC704729
:102B700070B50646002416E0002510E0AC4202D1F4
:102B80009FEDEC1B01E01FED571BB0EE410AF0EE8C
:102B9000610A2A4621463046FFF7E2FD6D1C306887
:102BA000A842EBDC641C7068A042E5DC70BD2DE936
:102BB000F0472DED0C8B0746D7E90001884204D081
:102BC0000020BDEC0C8BBDE8F0877E684846D7E955
:102BD0000021FFF73BFD81465046D7E90021FFF772
:102BE00035FD8246002513E000240EE022462946EA
:102BF0003846FFF7A2FDB0EE401AF0EE601A22460A
:102C000029465046FFF7ACFD641CB442EEDB6D1C58
:102C1000B542E9DB002515E0002410E0A54202D111
:102C20009FEDC41B01E01FED7F1BB0EE410AF0EEEB
:102C3000610A224629464846FFF792FD641CB442C9
:102C4000ECDB6D1CB542E7DB002543E12A46294653
:102C50005046FFF772FDB0EE409AF0EE609AA8463B
:102C60006C1C2AE0B0EE490AF0EE690A00F0E8FEBA
:102C7000B0EE40AAF0EE60AA2A4621465046FFF781
:102C80005CFDB0EE40CAF0EE60CA00F0D9FEB0EED6
:102C900040BAF0EE60BA53EC1A2B51EC1B0B00F06B
:102CA000CBFC09D22A4621465046FFF746FDB0EE3E
:102CB000409AF0EE609AA046641CB442D2DBA8456C
:102CC00044D0002440E0224629465046FFF735FD17
:102CD000B0EE408AF0EE608A224641465046FFF749
:102CE0002CFDB0EE401AF0EE601A224629465046FE
:102CF000FFF736FD22464146B0EE480AF0EE680A7C
:102D00005046FFF72DFD224629464846FFF715FDA0
:102D1000B0EE408AF0EE608A224641464846FFF710
:102D20000CFDB0EE401AF0EE601A224629464846E5
:102D3000FFF716FD22464146B0EE480AF0EE680A5B
:102D40004846FFF70DFD641CB442BCDB2A46294609
:102D50005046FFF7F2FCB0EE40AAF0EE60AA1FED7D
:102D6000CD0B53EC102B51EC1A0B00F04DFC01D1A4
:102D7000002026E72A4629465046FFF7DEFCB0EE43
:102D8000408AF0EE608A002434E02246294650460C
:102D9000FFF7D3FCB0EE40BAF0EE60BA53EC182B5C
:102DA00051EC1B0B00F07EFB41EC1A0B224629462E
:102DB000B0EE4A0AF0EE6A0A5046FFF7D1FC22460E
:102DC00029464846FFF7B9FCB0EE40BAF0EE60BACB
:102DD00053EC182B51EC1B0B00F064FB41EC1A0B6D
:102DE00022462946B0EE4A0AF0EE6A0A4846FFF744
:102DF000B7FC641CB442C8DB002468E0AC4265D078
:102E00002A4621465046FFF798FCB0EE408AF0EE85
:102E1000608A4FF0000857E0424629465046FFF7C7
:102E20008CFCB0EE40DAF0EE60DA53EC182B51EC8B
:102E30001D0B00F0C5FA41EC1B0B424621465046E3
:102E4000FFF77BFCB0EE40CAF0EE60CA53EC1B2BE0
:102E500051EC1C0B00F0AEFA41EC1A0B4246214635
:102E6000B0EE4A0AF0EE6A0A5046FFF779FC424695
:102E700029464846FFF761FCB0EE40DAF0EE60DA32
:102E800053EC182B51EC1D0B00F09AFA41EC1B0B84
:102E9000424621464846FFF750FCB0EE40CAF0EEED
:102EA00060CA53EC1B2B51EC1C0B00F083FA41EC75
:102EB0001A0B42462146B0EE4A0AF0EE6A0A48462C
:102EC000FFF74EFC08F10108B045A5DB641CB442D5
:102ED00094DB6D1CB542FFF6B9AE5046FFF7E6FB3A
:102EE00048466EE670B52DED068B04460D466068CB
:102EF00003287DD120680128FBD16868032877D199
:102F00002868012874D1012203213046FFF79EFB77
:102F10000646A86890ED022BB0EE420AF0EE620A77
:102F2000A06890ED042BB0EE421AF0EE621A53EC5A
:102F3000102B03E0000000000000F03F51EC110BEB
:102F400000F03EFA41EC190BA86890ED042BB0EEAE
:102F5000420AF0EE620AA06890ED022BB0EE421A2F
:102F6000F0EE621A53EC102B51EC110B00F028FA22
:102F700041EC1A0B53EC192B00F01CFA41EC180B26
:102F800000221146B0EE480AF0EE680A3046FFF71C
:102F9000E7FBA86890ED042BB0EE420AF0EE620A5F
:102FA000A06890ED002BB0EE421AF0EE621A53ECDE
:102FB000102B51EC110B00F003FA41EC190BA8682F
:102FC00090ED002BB0EE420AF0EE620AA06890EDA0
:102FD000042BB0EE421AF0EE621A53EC102B51ECB7
:102FE000110B00F0EDF941EC1A0B53EC192B00E03A
:102FF0004BE000F0DFF941EC180B00220121B0EEAC
:10300000480AF0EE680A3046FFF7AAFBA86890ED80
:10301000002BB0EE420AF0EE620AA06890ED022B9F
:10302000B0EE421AF0EE621A53EC102B51EC110B79
:1030300000F0C6F941EC190BA86890ED022BB0EE38
:10304000420AF0EE620AA06890ED002BB0EE421A40
:10305000F0EE621A53EC102B51EC110B00F0B0F9AA
:1030600041EC1A0B53EC192B00F0A4F941EC180BAE
:1030700000220221B0EE480AF0EE680A3046FFF75F
:103080006FFB3046BDEC068B70BD6068012808D12F
:103090002068032805D16868012802D12868032820
:1030A00017D06068012808D12068032805D1686816
:1030B000032802D1286801280BD0606803287DD13D
:1030C000206801287AD16868012877D12868032808
:1030D00074D1032201213046FFF7B8FA0646A868EA
:1030E00090ED022BB0EE420AF0EE620AA06890ED7D
:1030F000042BB0EE421AF0EE621A53EC102B51EC96
:10310000110B00F05DF941EC190BA86890ED042B50
:10311000B0EE420AF0EE620AA06890ED022BB0EE2B
:10312000421AF0EE621A53EC102B51EC110B00F026
:1031300047F941EC1A0B53EC192B00F03BF941EC29
:10314000180B00221146B0EE480AF0EE680A30462D
:10315000FFF706FBA86890ED042BB0EE420AF0EEF4
:10316000620AA06890ED002BB0EE421AF0EE621AEF
:1031700053EC102B51EC110B00F022F941EC190B20
:10318000A86890ED002BB0EE420AF0EE620AA0684B
:1031900090ED042BB0EE421AF0EE621A53EC102BB5
:1031A00051EC110B00F00CF941EC1A0B53EC192BFC
:1031B00000F000F941EC180B012200E044E000218E
:1031C000B0EE480AF0EE680A3046FFF7C9FAA86880
:1031D00090ED002BB0EE420AF0EE620AA06890ED8E
:1031E000022BB0EE421AF0EE621A53EC102B51ECA7
:1031F000110B00F0E5F841EC190BA86890ED022BDB
:10320000B0EE420AF0EE620AA06890ED002BB0EE3C
:10321000421AF0EE621A53EC102B51EC110B00F035
:10322000CFF841EC1A0B53EC192B00F0C3F841EC2A
:10323000180B02220021B0EE480AF0EE680A304670
:10324000FFF78EFA30461DE700BF00201AE7D2B222
:1032500001E000F8012B491EFBD270470022F6E77F
:1032600010B513460A4604461946FFF7F0FF2046FC
:1032700010BD2DE9FE4F804681EA0300C00F0C46C9
:10328000009021F0004123F00045B8EB0200A94175
:1032900005D24046214690461C460B46024623F086
:1032A0000040104347D0270DC7F30A00C3F30A516B
:1032B0000290401A019040286BDAC3F3130040F4E7
:1032C000801B0098924620B10023D2EB030A63EBE7
:1032D0000B0B01985946C0F14002504600F027FA06
:1032E00006460D4650465946019A00F03FFA10EB4B
:1032F00008006141002487EA115284EAE7731A4307
:1033000040D0009A62B3019A012A4FEA075215DCB5
:10331000001B61EB02014FF0004202EA0752CDE9C7
:103320000042001C41F5801132462B4600F076FA2F
:1033300003B0BDE8F08F40462146F9E7001B61EB82
:103340000201001C41F5801300185B412018A2F512
:10335000001747EB030140EAD570B6196D4111E043
:103360006D084FEA360645EAC0754FEA0752001B62
:1033700061EB0201001C41F5801149084FEA300061
:103380000019514132462B4603B0BDE8F04F00F022
:1033900036BA0098012240000023D0EB020263EB12
:1033A000E073009821464FEAE074B8EB000061EB4F
:1033B0000401E9E783F000435BE781F0004158E74F
:1033C0002DE9FE4F81EA030404F0004421F000419E
:1033D00000944FF0000B23F0004350EA01045ED04C
:1033E00052EA03045BD0C3F30A54C1F30A552C44D8
:1033F000A4F2F3340194A0FB0254C1F3130141F48D
:103400008011C3F3130343F4801301FB024400FB58
:10341000034E840A970A44EA815447EA8357A4FB7F
:10342000076802958D0A05FB07854FEA932C04FB7C
:103430000C542705029D4FEA065847EA1637B5EBAC
:1034400008056EEB070C870E920E47EA811742EAD9
:103450008312A7FB0201B6EB0B0164EB00042B0DFA
:1034600043EA0C335E1844EB1C50DA465146E7FB46
:103470000201C5F313044FEA0B3343EA14534FEA36
:103480000432019C43EA0603A4F10C040294009C5C
:10349000CDE900B400F0C2F903B0BDE8F08F002020
:1034A0000146F9E72DE9F04D81EA030404F0004BF1
:1034B00021F0004514464FF0000A23F0004150EA85
:1034C000050220D054EA01021DD0C5F30A57024676
:1034D000C5F31303C1F31300C1F30A5640F480157A
:1034E00043F48013A7EB0608101BD64608F2FD38FC
:1034F00073EB050002D308F1010801E092185B416B
:10350000B8F1000F03DA00200146BDE8F08D00207D
:103510004FF48011064684460EE0171B73EB050737
:1035200005D3121B63EB050306434CEA010C490863
:103530004FEA300092185B4150EA0107EDD152EAA0
:10354000030012D082EA040083EA0501084305D093
:10355000101BAB4106D20122002306E000224FF0EF
:10356000004302E06FF0010253101AEB06004CEB2F
:10357000085110EB0A0041EB0B01BDE8F04D00F0E3
:103580003EB90EB5C10F80EAE0700844CA070021B9
:1035900040F233438DE80E000A460B4600F03EF938
:1035A00003B000BD70B5C1F30A5201F0004500241C
:1035B000C1F3130140F2FF3341F480119A4201DA62
:1035C000002070BD40F233439A42A2F2334203DC42
:1035D000524200F0BBF800E090402C43F1D0404252
:1035E00070BD00F0004230F000400AD0C10D01F57E
:1035F0006071C0F3160042EA0151C208400711434E
:10360000704700200146704730B5041E71F1000478
:1036100004DB4FF00044404264EB0101141E73F1DF
:10362000000405DB1C464FF00043524263EB0403E9
:103630008B4208BF824230BD30B5041E71F10004D8
:1036400004DB4FF00044404264EB0101141E73F1AF
:10365000000405DB1C464FF00043524263EB0403B9
:10366000994208BF904230BD01F0004330B421F0D0
:10367000004150EA010206D00A0DA2F56072C1F3C2
:103680001301002A02DC30BC00207047440F44EADA
:10369000C104C100E01830BC00EBC25000F078B8A3
:1036A00030B50B46014600202022012409E021FA12
:1036B00002F59D4205D303FA02F5491B04FA02F50F
:1036C0002844151EA2F10102F1DC30BD2DE9F05FA6
:1036D0000546002092469B46884606468146402481
:1036E0001BE0284641464746224600F02FF8534645
:1036F0005A46C01A914110D311461846224600F08E
:1037000016F82D1A67EB01084F46224601200021CA
:1037100000F00DF817EB00094E41201EA4F1010442
:10372000DFDC484631462A464346BDE8F09F202A62
:1037300004DB203A00FA02F1002070479140C2F108
:10374000200320FA03F3194390407047202A04DB3A
:10375000203A21FA02F00021704721FA02F3D0400A
:10376000C2F120029140084319467047202A06DB27
:10377000CB17203A41FA02F043EAE07306E041FA3F
:1037800002F3D040C2F1200291400843194670472D
:103790000029A8BF7047401C490008BF20F0010065
:1037A000704710B4B0FA80FC00FA0CF050EA010443
:1037B00004BF10BC704749B1CCF1200421FA04F4D5
:1037C00011FA0CF118BF012121430843A3EB0C01AE
:1037D000CB1D4FEA00614FEA102042BF002010BC11
:1037E000704700EBC35010440029A4BF10BC7047C1
:1037F000401C490008BF20F0010010BC704710B504
:10380000141E73F1000408DA401C41F10001921803
:103810005B411A4301D120F0010010BD2DE9F04DAC
:1038200092469B4611B1B1FA81F202E0B0FA80F201
:1038300020329046FFF77BFF04460F4640EA0A001D
:1038400041EA0B0153465A46084313D0114653EA46
:10385000010019D0C8F140025046FFF777FF054636
:103860000E46504659464246FFF761FF084305D0D1
:10387000012004E020463946BDE8F08D00200543D4
:1038800046EAE0762C4337430A986305E40AA0EB46
:1038900008000022FD0A44EA47540A3002D50020FD
:1038A0000146E9E7010510196941DDE908450019FC
:1038B0006941BDE8F04DA2E7C1F30A52C1F313011B
:1038C00040F2FF3341F480119A4202DA00200146AF
:1038D000704740F233439A42A2F2334202DC524232
:1038E000FFF734BFFFF723BF064C074D06E0E06843
:1038F00040F0010394E8070098471034AC42F6D337
:10390000FCF746FC8C4E0008AC4E00080EB540F2A9
:10391000334102910021CDE900110A460B46FFF721
:103920007DFF03B000BD00000FB4054B10B503A927
:10393000044A029800F0E0FD10BC5DF814FB0000A2
:10394000B50F00085C00002003B401984100009806
:1039500050EAC12018BF04204A0D18BF40F00100F2
:1039600040F2FF72B2EB515F08BF40F00200012845
:1039700008BF052002B0704710B52F499FED2C1BE2
:103980002DED020B84B0059820F000408842D8BF8E
:103990009DED040B2DDD2949884209D1049840B9D9
:1039A0004FF0010000F0E0FC00F0AEFC06B010BDEE
:1039B00005DB9DED040B00F09BFC06B010BD6846D6
:1039C0009DED040B00F0ACF810F0030004BF9DED7A
:1039D000021B9DED000B0CD001280ED09DED021BAB
:1039E0009DED000B022817D0012000F0E9FB06B086
:1039F00010BD00F0B1FA06B010BD9DED021B9DEDAB
:103A0000000B012000F0DCFB51EC100B81F00041B9
:103A100006B041EC100B10BD00F09EFA51EC100BFB
:103A200081F0004106B041EC100B10BD0000000019
:103A30000000000000000000FB21E93F0000F07FD3
:103A40002DED020B019820F0004001909DED000B40
:103A500002B070470000000010B52F499FED2C1BED
:103A60002DED020B84B0059820F000408842DCBFA9
:103A700000209DED040B32DD2849884209D10498CD
:103A800040B94FF0010000F06FFC00F03DFC06B0C3
:103A900010BD05DB9DED040B00F02AFC06B010BD47
:103AA00068469DED040B00F03BF810F0030011D0C8
:103AB000012818D09DED021B9DED000B02281AD0A5
:103AC00000F04AFA51EC100B81F0004106B041ECD5
:103AD000100B10BD9DED021B9DED000B012000F0B1
:103AE0006FFB06B010BD9DED021B9DED000B00F0BD
:103AF00033FA06B010BD012000F062FB51EC100B50
:103B000081F0004106B041EC100B10BD0000000038
:103B10000000000000000000FB21E93F0000F07FF2
:103B20002DE9F14F04462DED020B2DED088B8AB0E7
:103B30009FEDE70B80ED020B139EE74826F0004552
:103B400085420ADC9DED120B002084ED000B0AB0CB
:103B5000BDEC088B03B0BDE8F08FE0489FEDE0AB13
:103B60009FEDE1BBA84247DDE14F9FEDE39B9FED59
:103B7000E48B9DED120B53EC1A2B51EC100B002E25
:103B80001CDDFFF717FC41EC100BBD4208D053ECD5
:103B90001B2B51EC100BFFF70DFCC4E900010BE0EF
:103BA00053EC192B51EC100BFFF704FC53EC182BC2
:103BB000FFF700FCC4E900010120C8E7FFF759FB4B
:103BC00041EC100BBD4208D053EC1B2B51EC100BF9
:103BD000FFF74FFBC4E900010BE053EC192B51EC4C
:103BE000100BFFF746FB53EC182BFFF742FBC4E921
:103BF00000014FF0FF30AAE7C348A84279DB9DEDF2
:103C0000120B51EC100B01F00EF841EC180B9FED6C
:103C1000C00B53EC102BFFF7D3FB9FEDBF1B53ECF6
:103C2000112BFFF726FBFFF7BDFC0746FFF7A9FCAA
:103C300041EC190B53EC1A2BFFF7C2FB53EC182B7A
:103C4000FFF7BBFB41EC180B53EC1B2B51EC190B92
:103C5000FFF7B6FBDFF8C8A241EC100B4FEA15588E
:103C60000125FA4453EC102B51EC180BFFF7A2FB83
:103C7000032DC4E900013DD0C1F30A5005EB451105
:103C8000A8EB00001139814234DA0AEB051BB0EED3
:103C900048AA9BED000BF0EE68AA53EC102B51ECF8
:103CA000190BFFF78DFB41EC1B0B51EC1A0B53EC7E
:103CB0001B2BFFF77FFB41EC180B51EC1A0B53EC5D
:103CC000182BFFF777FB53EC1B2BFFF773FB9BEDD8
:103CD000020B41EC1A0B53EC102B51EC190BFFF7B4
:103CE0006FFB53EC1A2BFFF765FB41EC100B6D1CBF
:103CF000B8E70EE0002EA8BF3846BFF628AF94ED17
:103D0000000B51EC100B81F00041C4E90001784236
:103D10001DE7C6F3130040F4801EC6F30A50A0F25C
:103D2000F530471100F01F05C5F12000DDF848B05F
:103D300008900020069007900520EC467949002D58
:103D400007EB0002794408BF51F8221009D051F85E
:103D5000223001EB8201AB404A68089922FA01F156
:103D60001943A1FB0E26A1FB0B131A449A4234BF40
:103D70000123002303EB06080CEB8003D3E901A623
:103D80000E448E4234BF0121002192448A4411B175
:103D9000924502D903E0924501D2012100E00021C1
:103DA000C3E901A641444CF82010011EA0F1010016
:103DB000C4DC029800F10050850F0298DDE903672A
:103DC0008000DDF81480FFF7DCFB41EC1A0B304675
:103DD000FFF79CFD9FED541B53EC112BFFF7F0FAFE
:103DE00041EC1B0B3846FFF791FD9FED511B53EC47
:103DF000112BFFF7E5FA41EC180B4046FFF786FD63
:103E00009FED4D1B53EC112BFFF7DAFA41EC190B28
:103E100051EC180B53EC192BFFF72BFA53EC1B2B1F
:103E2000FFF727FA53EC1A2BFFF723FACDE9080125
:103E3000002008909DED080B53EC1A2B51EC100B51
:103E4000FFF7B8FA53EC1B2BFFF7B4FA53EC182B1F
:103E5000FFF7B0FA53EC192BFFF7AFFA9FED381BC1
:103E600053EC112BFFF7ACFA9FED370B41EC180B1D
:103E700053EC102B9DED080B51EC100BFFF7A0FA43
:103E800053EC182BFFF7F5F99FED310B41EC180BB4
:103E900053EC102B9DED080B51EC100BFFF790FA33
:103EA00053EC182BFFF7E5F941EC100B139810F0C9
:103EB000004F06D06D4251EC100B81F0004141ECF7
:103EC000100B284684ED000B41E6000000000000C6
:103ED0000000000000000000FB21E93F7CD9024007
:103EE00000004054FB21F93F3163621A61B4D03DB8
:103EF000FB21F93F000000000000601A61B4D03DD2
:103F00007370032E8A19A33BFB2139410000000086
:103F100083C8C96D305FE43F000000000000E03F4F
:103F20008A100000D80F0000000000000000103EC2
:103F3000000000000000103C000000000000103AEB
:103F4000182D4454FB21F93D3326A611460B113C94
:103F500000000054FB21F93D10B52DED040B2DEDB3
:103F6000088B82B0B0EE419AF0EE619A0B9820F087
:103F700000449FED4BABB4F1795F11DA9DED0A0B74
:103F800051EC100BFFF70EFB002801BFB0EE4A0A00
:103F9000F0EE6A0A02B0BDEC088B04BF04B010BD9D
:103FA0009DED0A0B53EC102B51EC100BFFF708FAA8
:103FB00041EC180B3C480621B0EE480AF0EE680AC6
:103FC000784400F081F853EC182B51EC100BFFF7FC
:103FD000F7F99DED0A0B41EC1B0B53EC192B51EC3F
:103FE000100BFFF7EDF941EC190B53EC1B2B51ECC7
:103FF000180BFFF7E5F953EC192BFFF7DBF99FEDF1
:104000002C0B41EC190B53EC102B51EC180BFFF758
:10401000D7F941EC100B2848844210DA53EC192BE5
:1040200051EC100BFFF7C6F953EC1A2BFFF7C5F94B
:1040300041EC100B02B0BDEC088B04B010BD1F4862
:10404000A042BCBF9FED1E1B8DED001B06DBA4F53F
:1040500000100190002000909DED001B51EC100B12
:1040600053EC112BFFF7A6F99DED000B41EC180B5B
:1040700053EC102B51EC1A0BFFF79CF941EC1A0B87
:1040800053EC192B51EC180BFFF794F953EC1A2B46
:10409000FFF793F941EC100BCCE7000000000000A3
:1040A000000000000000F03FFC0C000000000000D9
:1040B000000000000000E03F3333D33F0000E93F41
:1040C000000000000000D23F70B504462DED028BC9
:1040D0004D1E00EBC500B0EE408AF0EE608A90ED18
:1040E000000B35F0060017D053EC182B51EC100BD9
:1040F000FFF766F941EC100B6D1E04EBC50090ED67
:10410000001B51EC100B53EC112BFFF7B2F841ECF4
:10411000100B35F00600E7D1022D36D0042D1CD04F
:10412000062D1CBFBDEC028B70BD53EC182B51EC5F
:10413000100BFFF745F994ED0A1B53EC112BFFF719
:1041400098F853EC182BFFF73BF994ED081B53EC50
:10415000112BFFF78EF841EC100B53EC182B51ECA0
:10416000100BFFF72DF994ED061B53EC112BFFF705
:1041700080F853EC182BFFF723F994ED040B53EC64
:10418000102BFFF776F841EC100B53EC182B51EC89
:10419000100BFFF715F994ED021B53EC112BFFF7F1
:1041A00068F853EC182BFFF70BF994ED001B53EC58
:1041B000112BFFF75EF8BDEC028B41EC100B70BDCC
:1041C00031B504462DED040B2DED0A8BB0EE41BA4E
:1041D000F0EE61BA0B989DED0A0B20F00040B0F1B3
:1041E000795F0DDA51EC100BFFF7AEFB042808BF26
:1041F00000F09AF89DED0A0BBDEC0A8B05B030BDBE
:1042000053EC102B51EC100BFFF7DAF841EC180BC4
:104210009DED0A0B53EC182B51EC100BFFF7D0F867
:1042200041EC190B2C48B0EE480AF0EE680A052163
:104230007844FFF749FF9FED2ACBB0EE40AAF0EE9D
:1042400060AA9CB353EC1C2B51EC190BFFF7B8F888
:1042500041EC1C0B53EC1A2B51EC190BFFF7B0F887
:104260009FED210B41EC190B53EC102B51EC1B0B68
:10427000FFF7A6F853EC192BFFF79CF853EC182B1B
:10428000FFF79EF853EC1B2BFFF794F853EC1C2B15
:10429000FFF790F89DED0A1B53EC112BFFF78DF8FB
:1042A000BDEC0A8B05B041EC100B30BDFFE753ECC1
:1042B0001A2B51EC180BFFF783F853EC1C2BFEF76D
:1042C000D8FF53EC192BFFF77BF89DED0A1B53EC3D
:1042D000112BFEF7CEFFE3E7840B00000000000087
:1042E000495555555555C5BF000000000000E03F39
:1042F00010B553EC102B51EC100BFEF7BAFF41EC4C
:10430000100B10BD000000009FED050B10B553EC25
:10431000102B51EC100BFFF7C5F841EC100B10BD42
:1043200000000000000000009FED050B10B553ECED
:10433000102B51EC100BFFF743F841EC100B10BDA4
:10434000000000000000001002E008C8121F08C1B1
:10435000002AFAD170477047002001E001C1121F06
:10436000002AFBD170470000014908607047000037
:10437000600000202DE9FF5F82B00021DDE90430FC
:10438000020DDDF840B0034318D044F61050A2F2FD
:10439000FF3242431514119801281FD0A5EB0B00E2
:1043A000401C5FEA000A4FF000064E4FDFF83891DC
:1043B000B046504615D5CAF1000413E01198012407
:1043C0004AA3012801D16FEA0B010298119AC0E9B2
:1043D0000031C0E9024206B0BDE8F09FCBF1000019
:1043E000DFE704460021404A491842EB0450CDE97A
:1043F000001012E0E00707D032463B4640464946EF
:10440000FEF7DEFF8046894632463B461046194697
:10441000FEF7D6FF06460F466410002CEAD1DDE910
:104420000401DDE90023BAF1000F06DAFEF7C8FF48
:1044300042464B46FEF7C4FF05E0FFF733F842461D
:104440004B46FFF72FF804460E460022284BFFF795
:10445000F3F803D84FF0FF30014607E00022254B68
:1044600020463146FEF705FFFFF726FA102409E043
:10447000002C0ADB0A220023FFF728F9039B3032C5
:104480001A55641E50EA0102F2D1641C039AC4F169
:1044900011031444119A012A03D0012208430DD1BB
:1044A0000AE0084304D000204FF0110B119072E78E
:1044B000A3EB0B056D1E0DE05B4504DD4FF0000224
:1044C00005F1010504E003DA4FF00002A5F1010552
:1044D000002AECD002981199C0E90231C0E90045E8
:1044E00079E70000000014400000F03F30000000B9
:1044F0000000F0430000E03F2DE9FF4F95B09B46E0
:104500008946064600250FE2252877D10024274654
:10451000F84A0121059400E0044316F8013F203BCE
:1045200001FA03F01042F7D130782A2811D06FF049
:104530002F033078A0F13002092A16D8059A44F0EA
:10454000020402EB820203EB42021044761C059047
:10455000EFE759F8042B0592002A03DA504244F49D
:104560000054059044F00204761C30782E2816D1B1
:1045700016F8010F44F004042A280DD06FF02F0222
:104580003078A0F13003092B09D807EB870302EB41
:104590004303C718761CF3E759F8047B761C307880
:1045A0006C280FD006DC4C2817D068280DD06A285C
:1045B00014D104E0742810D07A280FD10DE044F40F
:1045C00000140AE044F4801401E044F440147278CA
:1045D000824202D104F58014761C761C307866285D
:1045E0000BD013DC582877D009DC002875D045287B
:1045F000F6D04628F4D047281AD19DE118E0632868
:1046000035D0642879D0652812D195E1702873D00F
:1046100008DC6728F1D069286FD06E280DD06F288C
:1046200006D1B5E073282CD0752875D0782874D0C1
:104630005A46179990476D1C75E1C4F30250022841
:1046400009D003280DD0D9F8001004280DD00D6032
:1046500009F1040967E1D9F80010EA17C1E900522D
:10466000F6E7D9F800100D80F2E70D70F0E719F8C1
:10467000041B8DF8001000208DF80100EA4601208F
:1046800003E059F804AB4FF0FF3061074FF0000131
:1046900002D40DE008F101018846B9420FDA8045E5
:1046A000F8DB1AF808100029F4D108E008F101013C
:1046B00088468142FADB1AF808100029F6D10598DD
:1046C0005B46A0EB080721463846179A00F094FA9B
:1046D000284400EB080507E04DE029E10DE01AF859
:1046E000010B5A4617999047B8F10108F7D25B467B
:1046F00021463846179A13E142E00A220092C4F399
:1047000002524FF0000A022A08D059F804CB032ABB
:104710004FEAEC710AD00DE029E02AE009F1070127
:1047200021F00702F2E802C1914609E00FFA8CFC81
:104730004FEAEC71042A03D14FFA8CFC4FEAEC717A
:10474000002907DA0A460021DCF1000C61EB0201C6
:104750002D2202E0220504D52B228DF8042001220F
:1047600003E0E20701D02022F7E7904659E00A2152
:1047700002E010220DE010214FF0000A00910BE042
:1047800010224FF0000A44F004040827009203E0CE
:1047900008224FF0000A0092C4F30252022A05D008
:1047A00059F804CB0021032A08D009E009F10701D8
:1047B00021F00702F2E802C1914605E01FFA8CFCE5
:1047C000042A01D10CF0FF0C4FF00008220728D575
:1047D000702806D0009B83F0100353EA0A0305D02B
:1047E0000EE040228DF80420012208E05CEA01027C
:1047F00006D030228DF804208DF805000222904664
:10480000009B83F0080353EA0A030AD15CEA010221
:1048100001D1620705D530228DF804204FF0010840
:104820007F1E582804D034A003900EA802900DE0FB
:1048300036A0F9E753466046009AFEF747FF8446E4
:104840000398825C0298401E029002705CEA0100AC
:10485000F0D1029806A9081A00F1200A600702D5D3
:1048600024F4803400E00127574502DDA7EB0A005D
:1048700000E0002000EB0A01009005984144401A36
:104880000590E00306D45B462146179A059800F090
:10489000B3F90544002706E001A85A46C05D179900
:1048A00090476D1C7F1C4745F6DBE0030CD55B464B
:1048B0002146179A059800F09FF9054404E030203E
:1048C0005A46179990476D1C0099481E0090002980
:1048D000F5DC08E0029802995A460078491C0291DA
:1048E000179990476D1CBAF10001AAF1010AF1DC99
:1048F00065E10000092801003031323334353637A4
:10490000383961626364656600000000303132331B
:1049100034353637383941424344454600000000BB
:1049200000F058F90544761C307800287FF4ECAD8F
:1049300019B02846BDE8F08F620700D4062709F1B8
:10494000070222F0070CFCE80223E14603F00048CE
:104950005FEA080C02D00FF2702C0DE05FEA045CF5
:1049600002D50FF2682C07E05FEAC47C02D00FF298
:10497000602C01E0AFF2700C4FF0FF3823F00043E1
:10498000CDF850C065280CD006DC452809D0462853
:104990001DD047283DD13DE0662818D067287ED13C
:1049A00038E00021112F01DB112000E0781CCDE957
:1049B000000106A90EA8FFF7DDFCDDE90F010E9A44
:1049C00003910021009207F1010A04914DE04FF09C
:1049D00000400097CDE9011006A90EA8FFF7CAFC18
:1049E000DDE90F0203920E9B11990022DDF80CA065
:1049F0000093049211B9791C00EB010AB7EB0A008D
:104A000004D4C0F1FF3007F1010A0490AAEB0700BB
:104A1000019044E0012F00DA01270021112F01DD70
:104A2000112000E03846CDE9000106A90EA8FFF7E5
:104A3000A1FCDDE90F010E9A03910021049100927F
:104A4000BA4621070CD40399514500DA8A46BAF1D7
:104A5000010F05DD009AAAF10101515C302908D04F
:104A6000B84202DA10F1040F06DA0121CDE9011093
:104A700015E0AAF10101E9E7002805DC04990144E9
:104A80000491AAEB000102E0411C514500DD8A4679
:104A90000499401A401C01904FF0004002902007FA
:104AA00004D40198504501DBCDF8048000208DF836
:104AB0004F0002980DF14F07B0F1004F25D02B2089
:104AC0000E9002984FF0020800280CDA4042029043
:104AD0002D200E9007E00A210298FEF7E1FD30310B
:104AE000029007F8011DB8F10001A8F10108F2DCFD
:104AF00002980028EFD1791E0E980870307800F0E7
:104B0000200040F0450007F8020D12A8C01B00F17C
:104B100007081498007800B1012000EB0A01019801
:104B200001EBE07105984144401A401E0590E003F6
:104B300006D45B462146179A059800F05DF80544B7
:104B40001498007818B15A46179990476D1CE003E5
:104B500024D55B462146179A059800F04DF8054488
:104B60001CE00498002807DBDDE90301884203DD2F
:104B70000098405C179901E0179930205A469047F9
:104B8000049805F10105401C04900198401E019015
:104B900004D12E205A46179990476D1CBAF1000196
:104BA000AAF1010ADDDC05E017F8010B5A46179956
:104BB00090476D1CB8F10001A8F10108F4DC5B46D8
:104BC0002146179A0598ABE62D0000002B00000047
:104BD000200000002DE9F041044600251E4617463E
:104BE000880404D405E039462020B0476D1C641EBB
:104BF000F9D52846BDE8F0812DE9F04104460025AD
:104C00001E469046C80301D5302700E020278804BF
:104C100004D505E041463846B0476D1C641EF9D501
:104C20002846BDE8F08182B0CDE9000121F00040C6
:104C300001909DED000B02B051EC100B704700008D
:104C400010B50446FBF74CFE28B921460E48FEF786
:104C50006BFE002010BD0D480078A04207D00B4825
:104C6000027801780A48FEF75FFE0020F2E7074865
:104C7000807830B1054881780648FEF755FE00205F
:104C8000E8E70120E6E70000504E0008640000203D
:104C9000144E0008E04D0008800C00000078000071
:104CA000800700002000000020000000200000001D
:104CB0000090010000000F0000F000000000000064
:104CC0004C5555555555A53F7751C1166CC156BF2A
:104CD0009015CB19A001FA3EAD529C804F7E92BE3A
:104CE000C4B1B4BD9EEE213ED43888BEE9FAA8BD59
:104CF00000004054FB21F93F3163621A61B4D03D9A
:104D00000000601A61B4D03D7370032E8A19A33B72
:104D10000000002E8A19A33BC14920259A837B39C4
:104D200000000000000000006E83F9A22915444E27
:104D3000D15727FCC0DD34F5999562DB4190433CA7
:104D4000AB6351FE61C5BBDE3A6E24B7E0D24D4283
:104D5000EA2E49061C92D1091CEB1DFE3EA729B183
:104D6000F53582E88444BB2E26709CE9417E5FB411
:104D700039D69139F43953838B5F849C3B28F9BD34
:104D8000FF97F81F0F9805DE8B112FEF1F6D0A5A42
:104D9000CF7E366DB709CB27663F464F2DEA5F9E23
:104DA000C7BA27757BF1E5EBF739073DEA92528ADE
:104DB000B15FFB6B085D8D1FA6F810111111813FCB
:104DC000D561C119A0012ABF7DFEB157E31DC73EC1
:104DD000EB9C2B8AE6E55ABE7CD5CF5A3AD9E53D05
:104DE000536572766F206572726F723A20526573E6
:104DF000706F6E7365206572726F7220636F646589
:104E000020776173206E6F6E7A65726F202825643B
:104E1000290A0000536572766F206572726F723ACC
:104E200020526573706F6E7365204944202564209D
:104E3000646F6573206E6F74206D617463682063A6
:104E40006F6D6D616E642049442025640A00000086
:104E5000536572766F206572726F723A2053657275
:104E6000766F20256420646964206E6F74207265FB
:104E700073706F6E6420636F72726563746C7920F7
:104E80006F7220617420616C6C0A0000AC4E0008E7
:104E9000000000206400000048430008104F000894
:104EA000640000205CAD010058430008007A030A4A
:104EB00000000000000000000102030406070809CA
:104EC000000000008300002083000020000000009C
:104ED000000000005311000889110008C0000020E4
:104EE0000000006800000010C090012000000F6862
:104EF00000F00010000000000000000001020304A8
:104F00000102030406070809000000000000000079
:040000050800018965
:00000001FF
