:020000040800F2
:10000000E0AF0120251500089105000893050008C0
:10001000970500089B0500089F05000800000000E8
:10002000000000000000000000000000A305000820
:10003000A505000800000000A7050008A9050008A4
:100040003F1500083F1500083F1500083F15000840
:100050003F1500083F1500083F1500083F15000830
:100060003F1500083F1500083F1500083F15000820
:100070003F1500083F1500083F1500083F15000810
:100080003F1500083F1500083F1500083F15000800
:100090003F1500083F1500083F1500083F150008F0
:1000A0003F1500083F1500083F1500083F150008E0
:1000B0003F1500083F1500083F1500083F150008D0
:1000C0003F1500083F1500083F1500083F150008C0
:1000D0003F1500083B1200083F1500083F150008B7
:1000E0003F1500083F1500083F1500083F150008A0
:1000F0003F1500083F1500083F1500083F15000890
:100100003F1500083F1500083F1500083F1500087F
:100110003F1500083F1500083F1500083F1500086F
:100120003F1500083F1500083F1500083F1500085F
:100130003F1500083F1500083F1500083F1500084F
:100140003F1500083F1500083F1500083F1500083F
:100150003F1500083F1500083F1500083F1500082F
:100160003F1500083F1500083F1500083F1500081F
:100170003F1500083F1500083F1500083F1500080F
:100180003F1500083F15000800F002F800F040F8A5
:100190000AA090E8000C82448344AAF10107DA45E2
:1001A00001D100F035F8AFF2090EBAE80F0013F0F4
:1001B000010F18BFFB1A43F0010318472C4C000035
:1001C0004C4C0000103A24BF78C878C1FAD85207C6
:1001D00024BF30C830C144BF04680C6070470000C1
:1001E0000023002400250026103A28BF78C1FBD840
:1001F000520728BF30C148BF0B6070471FB504F0DD
:1002000046FD9DE8030003F09FF91FBD10B510BD2A
:1002100003F005FA1146FFF7F1FF00F009F803F0CB
:1002200023FA03B4FFF7F2FF03BC00F091FF0000D4
:100230002DED108B84B000BF00264FF4A06001F0BC
:1002400091F9A82000F002FF4FF4E13000F090FF98
:1002500000F0B4FA002001F066F8022001F063F823
:100260000724B7EE000AF0EE408A9FEDBC0AB0EE1C
:1002700040BAB7EE000AF0EE40BA9FEDB90AB0EE10
:1002800040FA9FEDB80BB0EE40CAF0EE60CA2246CD
:100290002146039802F0C2FA0390002527E04FF0B0
:1002A000000921E04D4507D14A4629469FEDAF0B95
:1002B000039802F00FFB15E009F10100854207D118
:1002C0004A4629469FEDAB0B039802F003FB09E079
:1002D000681C814506D14A4629469FEDA60B039826
:1002E00002F0F8FA09F10109A145DBDB6D1CA5421A
:1002F000D5DB22460121404602F090FA8046404676
:1003000002F0C6FC204604F0C0F941EC1E0B53EC91
:100310001E2B9FED9A0B51EC100B03F0F3FF41ECF9
:100320001D0B03F009FF08EE100A22462146029831
:1003300002F074FA0290002529E04FF0000923E052
:100340004D4507D14A4629469FED880B029802F099
:10035000C1FA17E0A9EB050000EE100AB8EEC00ADA
:1003600020EE080A10EE101A084604F01FFC41ECBB
:100370001D0B4A462946B0EE4D0AF0EE6D0A029872
:1003800002F0A8FA09F10109A145D9DB6D1CA542CB
:10039000D3DB02222146504602F040FA8246002575
:1003A0000EE0002229469FED710B504602F092FAB2
:1003B000012229469FED730B504602F08BFA6D1C0B
:1003C000DAF80000A842ECDC02220121384602F0F3
:1003D00025FA0746384602F011FA9FED649B9FED1F
:1003E00063ABBAE04FF4967096FBF0F100FB11603E
:1003F00000287DD1002592E000222946504602F0D7
:1004000056FAB0EE40DAF0EE60DAB86890ED001B14
:10041000B0EE410AF0EE610A53EC102B51EC1D0BCB
:1004200004F0DAFA41EC190B01222946504602F099
:100430003EFAB0EE40DAF0EE60DAB86890ED021BFA
:10044000B0EE410AF0EE610A53EC102B51EC1D0B9B
:1004500004F0C2FA41EC1A0B534600954146B0EE47
:100460004C0AF0EE6C0ADDE9022002F099F80190E6
:10047000D8F8080000EBC50090ED001BB0EE410A73
:10048000F0EE610A51EC100B03F056FE0DEE100A6F
:10049000B0EE4D4AF0EE6B3AB0EE4B3AF0EE682A11
:1004A000B0EE4F2AB0EE4A1AF0EE6A1AB0EE490AE0
:1004B000F0EE690A019801F067FF8146394602F0C3
:1004C00019FA8346DBF8080090ED001BB0EE410AF4
:1004D000F0EE610A00222946504602F0FBF9DBF8F3
:1004E000080090ED021BB0EE410AF0EE610A00E058
:1004F00018E001222946504602F0ECF9690000227A
:10050000504602F0D4F9B0EE40DAF0EE60DA00F0D6
:100510006BFD81464946284600F07FFD6D1CA542D3
:10052000FFF66AAF1E2096FBF0F100FB116008B9E0
:1005300000F038FD1E2096FBF0F100FB116038B989
:100540001248006808B9012000E000200F49086047
:100550000A2000F0DDFD701C86B243E7DA0FC93FC8
:100560000AD7233C0000000000000040000000000B
:1005700000000000000000000000E03F3822CE79BB
:100580007CD922407B14AE47E17A843FA482424268
:10059000704700BFFEE700BFFEE700BFFEE700BFF9
:1005A000FEE7704770477047704700000CB50020A9
:1005B000019000907648006840F4803074490860EB
:1005C00000BF7348006800F4003000900198401CA0
:1005D0000190009818B90198B0F5A04FF1D16C487E
:1005E000006800F4003010B10120009001E000200C
:1005F00000900098012846D165484030006840F0DE
:1006000080506349403108606248006840F44040CF
:10061000604908605E48083000685D49083108603C
:100620000846006840F4004008600846006840F44E
:10063000A05008605848091F0860081F006840F073
:100640008070091F086000BF5148006800F000700A
:100650000028F9D040F20570504908604C48083035
:10066000006820F003004A49083108600846006825
:1006700040F00200086000BF45480830006800F004
:100680000C000828F8D10CBD10B54548006840F4AE
:100690007000434908603E48006840F001003C4952
:1006A000086000203A4908310860394800683D492F
:1006B0000840374908603C48091D0860081F006869
:1006C00020F48020091F0860002031490C310860A7
:1006D000FFF76CFF4FF0006031498039086010BDB2
:1006E00070B500200022022300240221284D083585
:1006F0002D6805F00C0020B1042806D0082834D15C
:1007000007E02A4D2A4E356033E02A4D284E3560E9
:100710002FE01F4D2D1D2D68C5F380541C4D2D1D40
:100720002D6805F03F0154B1224DB5FBF1F5184E8F
:10073000361D3668C6F3881605FB06F209E01B4D28
:10074000B5FBF1F5124E361D3668C6F3881605FB6B
:1007500006F20F4D2D1D2D68C5F301456D1C6B0074
:10076000B2FBF3F5124E356003E0104D104E3560CC
:1007700000BF00BF064D08352D68C5F303150E4EAA
:10078000705D0B4D2D68C540094E356070BD000091
:10079000003802400070004008544007003C02400E
:1007A00088ED00E0FFFFF6FE103000240024F40086
:1007B0000000002000127A00040000201CB5012176
:1007C000202001F063FA4FF4C060009001208DF802
:1007D000040000208DF8060003208DF8050001209C
:1007E0008DF807006946044800F0B2FF4FF4C0617D
:1007F000014801F029F81CBD0014024070B50546FF
:100800000C460020F9490880F9490880214628460D
:1008100000F028FDA04204D10020F6490860012024
:1008200070BD0020F449086000BFF9E77CB50446BC
:100830000D46A01C2844C043C6B2FF208DF801001D
:100840008DF800008DF8024002208DF803008DF82D
:1008500004508DF8056006216846FFF7CFFF50B1C0
:100860000620E6490870E64804700846007800F063
:1008700024FD01207CBD0020E0490870E04908709B
:1008800000BFF7E710B5044601212046FFF7CEFF71
:1008900010BD10B5044605212046FFF7C7FF10BD67
:1008A00010B5044606212046FFF7C0FF10BD10B565
:1008B000044608212046FFF7B9FF10BD2DE9F84F87
:1008C0000746884691461E46F01C00F0FF0AF01DC0
:1008D0000090009802F068FD04464FF0000B0025E0
:1008E00006E019F80500584400F0FF0B681CC5B27B
:1008F000B542F6DB07EB0A00C01C40445844C04335
:1009000000F0FF0BFF2060702070A77084F803A038
:100910000320207184F80580002505E019F80510F2
:10092000A81D2154681CC5B2B542F7DBA81D04F808
:1009300000B00AF10400C1B22046FFF75FFF70B1BA
:100940000620AE4908700846007800F0B6FCAC48B6
:100950000770204602F057FD0120BDE8F88F002007
:10096000A6490870A6490870204602F04CFD0020F8
:10097000F3E713B50446012301AA1A212046FFF725
:100980009DFF1CBD2DE9FC4104460E461546A01DE9
:1009900030442844C043C7B29AA103C9CDE900013D
:1009A0008DF802408DF805608DF806508DF80770BF
:1009B00008216846FFF722FF58B1A81D8F4908702B
:1009C0008F4804700846007800F077FC0120BDE8ED
:1009D000FC810020894908708949087000BFF6E74A
:1009E00010B5044601221A212046FFF7CBFF10BDA7
:1009F00013B50446012301AA1B212046FFF75EFF21
:100A00001CBD10B5044601221B212046FFF7BAFF8A
:100A100010BD13B50446012301AA1C212046FFF78F
:100A20004DFF1CBD10B5044601221C212046FFF7D6
:100A3000A9FF10BD13B50446012301AA1D212046BC
:100A4000FFF73CFF1CBD10B5044601221D212046C6
:100A5000FFF798FF10BD10B5044602220021204682
:100A6000FFF790FF10BD10B5044601220221204679
:100A7000FFF788FF10BD13B50446012301AA032127
:100A80002046FFF71BFF1CBD10B5044601220321C1
:100A90002046FFF777FF10BD13B50446012301AAD6
:100AA00004212046FFF70AFF1CBD10B504460122B1
:100AB00004212046FFF766FF10BD13B5044601234D
:100AC00001AA05212046FFF7F9FE1CBD10B504461A
:100AD000012205212046FFF755FF10BD13B504463E
:100AE000022301AA06212046FFF7E8FE1CBD13B52C
:100AF0000446022301AA08212046FFF7DFFE1CBDA1
:100B000010B50446022206212046FFF73BFF10BD28
:100B100010B50446022208212046FFF733FF10BD1E
:100B200013B50446012301AA0B212046FFF7C6FE98
:100B30001CBD10B5044601220B212046FFF722FF01
:100B400010BD13B50446012301AA0C212046FFF76E
:100B5000B5FE1CBD10B5044601220C212046FFF74E
:100B600011FF10BD13B50446012301AA0D21204633
:100B7000FFF7A4FE1CBD10B5044601220D2120463E
:100B8000FFF700FF10BD13B50446022301AA0E2192
:100B90002046FFF793FE1CBD10B5044602220E212D
:100BA0002046FFF7EFFE10BD13B50446012301AA4E
:100BB00010212046FFF782FE1CBD10B5044601221D
:100BC00010212046FFF7DEFE10BD13B504460123B9
:100BD00001AA11212046FFF771FE1CBD10B5044685
:100BE000012211212046FFF7CDFE10BD1400002088
:100BF0002400002020000020180000201600002003
:100C000017000020FFFF00040200000013B5044697
:100C1000012301AA12212046FFF750FE1CBD10B58A
:100C20000446012212212046FFF7ACFE10BD13B589
:100C30000446012301AA18212046FFF73FFE1CBDF0
:100C400010B50446012218212046FFF79BFE10BD77
:100C500013B50446012301AA19212046FFF72EFEF1
:100C60001CBD10B50446012219212046FFF78AFE5B
:100C700010BD13B50446022301AA1E212046FFF72A
:100C80001DFE1CBDF8B506460C461546ADF80040E5
:100C9000ADF8025004236A461E213046FFF70EFECF
:100CA000F8BD13B50446022301AA20212046FFF710
:100CB00005FE1CBD13B50446022301AA22212046CD
:100CC000FFF7FCFD1CBD10B504460222242120467E
:100CD000FFF758FE10BD10B504460222262120461B
:100CE000FFF750FE10BD10B5044602222821204611
:100CF000FFF748FE10BD10B5044601222A21204608
:100D0000FFF740FE10BD10B5044601222B212046FE
:100D1000FFF738FE10BD10B5044601222C212046F5
:100D2000FFF730FE10BD10B5044601222E212046EB
:100D3000FFF728FE10BD13B50446012301AA2F2199
:100D40002046FFF7BBFD1CBD10B5044601222F2134
:100D50002046FFF717FE10BD13B50446022301AA73
:100D600030212046FFF7AAFD1CBD10B50446022223
:100D700030212046FFF706FE10BD944908607047F9
:100D80009248006870472DE9F84F0746884691461B
:100D90001E46F01C00F0FF0AF01D0090009802F0C3
:100DA00003FB04464FF0000B002506E019F8050090
:100DB000584400F0FF0B681CC5B2B542F6DB07EBE8
:100DC0000A00001D40445844C04300F0FF0BFF20C0
:100DD00060702070A77084F803A00420207184F84C
:100DE0000580002505E019F80510A81D2154681C90
:100DF000C5B2B542F7DBA81D04F800B00AF1040043
:100E0000C1B22046FFF7FAFC70B1062070490870A5
:100E1000704807700846007800F04FFA204602F04C
:100E2000F2FA0120BDE8F88F00206949087069498D
:100E30000870204602F0E7FA0020F3E710B5644896
:100E4000007808B9002010BD00F03CFA604909782C
:100E5000884204DB6048006808B90120F3E70020FD
:100E6000F1E72DE9FC474FF0000859480078801F52
:100E7000C5B2A946484602F097FA0646C24600F0B7
:100E80001FFA044620788DF8000060788DF8010084
:100E9000A0788DF80200E0788DF8030020798DF8B5
:100EA0000400002007E061793154315C414401F0D5
:100EB000FF08411CC8B2A842F5DB0DB994F805A0A3
:100EC00094F806A09DF80000FF2801D1012000E061
:100ED00000209DF80110FF2901D1012100E000212F
:100EE000084028B93D48008840F400703B4908801C
:100EF0009DF8020037490978884205D037480088B4
:100F000040F48040354908809DF80310A81C8142B8
:100F100009D09DF80300801EC5B23048008840F417
:100F200000602E4908809DF8040030B19DF804004F
:100F30002A4909880843294908809DF802009DF83C
:100F4000031008449DF8041008444044C043C0B254
:100F5000504505D02148008840F400501F490880C2
:100F60001DB900201E4908800DE0012D03D1307805
:100F70001B49088007E0022D05D13078717840EADE
:100F800001201749088000201149087015490860A0
:100F90001049087012480788304602F034FA384683
:100FA000BDE8FC8710B500F08DF910B94FF6FF7061
:100FB00010BDFFF756FFFBE710B500F083F910B145
:100FC000FFF74FFF10BD05480088FBE71C0000201D
:100FD0001600002017000020200000201400002030
:100FE000240000201800002010B52DED048BB0EE79
:100FF000408AF0EE608A9FED130B53EC102B51ECFE
:10100000180B03F0A9FB41EC190B03F00FFB04468E
:1010100004F50070BDEC048B10BD70B504460D46A0
:10102000E0B24FF4FA7229B2FFF72CFE70BD70B532
:1010300004460D461646E0B232B229B2FFF722FE50
:1010400070BD0000000000000000084010B504461C
:101050006FF0040000F0D8FAE11704EB5171C1F30E
:10106000C701394A11701046007800EB4001C1EB0E
:10107000C0104FF6FF7101EAC0003449088010BD6E
:101080000146314A12784A434FF0E0235A61002268
:101090009A611A46126942F001021A6100BF4FF0CC
:1010A000E022106900F001021AB100F48032002A37
:1010B000F5D04FF0E022126922F001024FF0E02358
:1010C0001A6100229A6170470146204A12884A43F9
:1010D0004FF0E0235A6100229A611A46126942F0E9
:1010E00001021A6100BF4FF0E022106900F0010216
:1010F0001AB100F48032002AF5D04FF0E0221269D4
:1011000022F001024FF0E0231A6100229A61704739
:1011100070B504464FF4077094FBF0F0C6B24FF47C
:10112000077094FBF0F100FB114085B205E04FF42D
:101130000770FFF7C9FF701EC6B2002EF7D115B1B8
:101140002846FFF7C1FF70BD2600002028000020C0
:1011500000BF704700BF704700BF614A128802F0AD
:101160004002002AF9D0C2B25D4B1B1D1A807047A5
:1011700010B588B004460121084600F087FD012122
:10118000102000F0DDFD07220921564800F06BFB1E
:1011900001208DF81E008DF81F0002208DF81C0024
:1011A0000002069002208DF81D0006A94D4800F0AF
:1011B000CFFA02940020ADF80C00ADF80E00ADF8A7
:1011C0001000ADF814000C20ADF8120002A946483A
:1011D00000F017FF0121444801F007F801214248BF
:1011E00000F097FF4021404801F07BF8012240F2D7
:1011F00025513D4801F043F8012240F225513A487B
:1012000001F03DF825208DF8040003208DF805003D
:101210008DF8060001208DF8070001A800F0A7F95D
:101220003148808940F004002F4988810846808930
:1012300020F00800888108B010BD10B540F225519B
:10124000294801F057F860B1274800F091FFC4B277
:10125000264827490978445425480078401C2449E9
:10126000087010BD70B506460C461F48808940F0D6
:1012700008001D4988810846808920F00400888183
:1012800000250BE0715D184800F06EFF00BF4021A3
:10129000154801F019F80128F9D16D1CA542F1DBC0
:1012A0001148808940F004000F49888108468089F0
:1012B00020F008008881204670BD0E4908707047F4
:1012C0000A4870470B48007809490978884204D1D8
:1012D000002007490870012070470020FCE700004B
:1012E0000044004000000240001001406C0000205B
:1012F000340000202C00002070B503460C4603E0AB
:1013000014F8015B03F8015B151EA2F10102F7D18D
:1013100070BD30B5034601E003F8011B141EA2F1B5
:101320000102F9D130BD10B504467A4951F82410B4
:101330004A00794951F824000021FFF7EAFF774974
:1013400051F8242074490C3951F824000021FFF78A
:10135000E0FF012170480C30015510BD10B5014669
:101360000023002207E06C4850F8210030F81200FA
:1013700000B15B1C521C674850F821009042F2D823
:1013800064205843634C54F82140B0FBF4F0C0B2E1
:1013900010BD2DE9F04704460F460025A9465E48DA
:1013A0000C30005D20B95C4814380168204688473D
:1013B0001FB94FF0FF30BDE8F087594850F82400BE
:1013C000B7FBF0F6564850F82400B7FBF0F100FBED
:1013D000117000B1761C4F4850F82400451E20E0E3
:1013E0004D4850F8240030F8150010B909F10109F2
:1013F00001E04FF00009B14512D14FF0000808E0BC
:10140000454850F8240005EB080220F8126008F166
:101410000108B045F4D3424850F824006843CAE7B5
:101420006D1E002DDCDA4FF0FF30C4E72DE9F041EE
:1014300004460E4638480C30005D38B9364814383A
:101440000168204688470120BDE8F081334850F804
:101450002400B04217D9324850F82400B6FBF0F10E
:101460002D4850F8240030F81120002507E0002313
:10147000294850F824004F1920F817306D1C954268
:10148000F5DB0020E0E70220DEE770B505460C46FC
:1014900004B970BD20480C3850F82500261A314692
:1014A0002846FFF7C3FF00BFF3E770B504460E46BA
:1014B00031462046FFF76DFF0546681C08B900203D
:1014C00070BD15480C3850F824002844F8E72DE981
:1014D000F04104460F46164631462046FFF759FFB5
:1014E0000546681C10B90020BDE8F0810A490C3996
:1014F00051F82410481932463946FFF7FDFE3946A7
:101500002046FFF7C2FF04480C3850F82400284456
:10151000EAE70000A44C00084C000020BC4C000886
:10152000B04C00080948804709480047FEE7FEE73D
:10153000FEE7FEE7FEE7FEE7FEE7FEE7FEE7FEE783
:1015400004480549054A064B704700008906000813
:1015500089010008E0A90120E0AF0120E0AB0120F3
:10156000E0AB012032490143324A1160704770B547
:10157000002100230F22C4781CB32E4C246804F4ED
:10158000E064C4F5E064C4F30721C1F10404E3B2EC
:101590000A4144789C40E1B28478144021430C070E
:1015A000210E254C05786155047804F01F050124AF
:1015B000AC4005786D11AD0005F1E025C5F800419E
:1015C00009E0047804F01F050124AC401B4D0678A7
:1015D000761145F8264070BD194A0A400243154B62
:1015E0001B1F1A60704739B1124A121D126802435C
:1015F000104B1B1D1A6006E00E4A121D1268824332
:101600000C4B1B1D1A607047042808D14FF0E021D5
:10161000096941F004014FF0E022116107E04FF049
:10162000E021096921F004014FF0E02211617047C7
:101630000000FA050CED00E000E400E080E100E0CD
:1016400080FFFF1F10B504469848844208D101214D
:10165000084600F086FB0021012000F082FB76E0C6
:101660009348844208D10121022000F07AFB002136
:10167000022000F076FB6AE08E48844208D1012106
:10168000042000F06EFB0021042000F06AFB5EE005
:101690008948844208D10121082000F062FB002122
:1016A000082000F05EFB52E08448844208D101210A
:1016B000102000F056FB0021102000F052FB46E005
:1016C0007F48844208D10121202000F04AFB0021FC
:1016D000202000F046FB3AE07A48844208D10121FC
:1016E000402000F03EFB0021402000F03AFB2EE0BD
:1016F0007548844208D10121802000F032FB00218E
:10170000802000F02EFB22E07048844208D10121A5
:10171000801500F026FB0021A01500F022FB16E04A
:101720006B48844208D10121401500F01AFB0021CA
:10173000601500F016FB0AE06648844207D10121DB
:10174000001500F00EFB0021201500F00AFB10BD73
:10175000F0B50A4600210023002400BF3DE001252A
:1017600005FA01F3156805EA03049C4234D10568C3
:101770004F000326BE40B543056015794E00B540C5
:101780000668354305601579012D02D01579022DC3
:1017900016D185684F000326BE40B5438560557954
:1017A0004E00B540866835438560456801268E4009
:1017B000B5434560456896798E40B6B2354345607D
:1017C000C5684F000326BE40B543C560D5794E00BD
:1017D000B540C6683543C560491C1029BFD3F0BD6C
:1017E0004FF6FF7101600021017141718171C1717A
:1017F000704708B54FF480320092009A0A43009275
:10180000009AC261C161009AC261C2690092C26954
:10181000009208BD0246002013690B400BB1012065
:1018200000E0002070470146086980B27047024618
:10183000002053690B400BB1012000E000207047ED
:101840000146486980B27047018370474183704701
:101850000AB1018300E041837047416170474269EA
:101860004A4042617047F0B5002300244D07ED0E59
:1018700002FA05F3CE1000F1200555F826504E0768
:10188000F70E0F26BE40B543CF1000F1200646F8F4
:101890002750CE1000F1200555F8265045EA0304E4
:1018A000CE1000F1200545F82640F0BD00000240B2
:1018B0000004024000080240000C024000100240F8
:1018C0000014024000180240001C024000200240A8
:1018D0000024024000280240F948006840F001005E
:1018E000F74908600020F64908310860F4480068AC
:1018F000F4490840F2490860F348091D0860F348BC
:10190000EF4984310860F0481038091D0860EC4840
:10191000006820F48020EA4908600020E8490C3182
:101920000860E7498C31086070470021E44A921C46
:10193000117011460870704710B50146002200234F
:1019400000204A11012A02D1DD4C236808E0022A56
:1019500003D1DB4C7034236802E0D94C7434236823
:1019600001F01F02012494401C400CB1012000E052
:10197000002010BD38B5002000900024002500BFD5
:101980003120FFF7D9FF05460098401C00900098D1
:10199000B0F5A04F01D0002DF2D03120FFF7CCFFE1
:1019A00008B1012400E00024204638BD0146002093
:1019B000C34A106820F0F80040EAC1001060704788
:1019C000C349086070470021BD4A70321170117020
:1019D000012802D004280AD104E00121B84A70325B
:1019E000117005E00521B64A7032117000E000BFA9
:1019F00000BF7047B7490860704770B5049C41EA62
:101A000082150126C6EB530645EA0645054345EA1D
:101A10000465AB4E361D356070BDAD490866704734
:101A2000820142EA0172A64B84331A607047A849CA
:101A30008866704710B5830143EA016343EA027385
:101A40009F4C8834236010BDA14908677047A049A6
:101A5000C864704702460020994B0833186820F08C
:101A6000EC6042EA01031843954B08331860704755
:101A700002460020924B0833186820F0784042EA72
:101A8000010318438E4B083318607047014600204D
:101A90008B4A0832106820F003000843106070473A
:101AA00087480830006800F00C00704701460020AD
:101AB000834A0832106820F0F00008431060704735
:101AC000014600207E4A0832106820F4E0500843A6
:101AD0001060704701460020794A0832106820F4EF
:101AE000604040EAC10010607047F0B5002100225C
:101AF0000024022500260223714F08373F6807F0B3
:101B00000C0121B1042905D0082937D105E0724F15
:101B1000076036E0714F076033E0694F3F1D3F6853
:101B2000C7F38056664F3F1D3F6807F03F036EB115
:101B30006A4FB7FBF3F7DFF888C10CF1040CDCF84F
:101B400000C0CCF3881C07FB0CF40CE0624FB7FB21
:101B5000F3F7DFF86CC10CF1040CDCF800C0CCF337
:101B6000881C07FB0CF4564F3F1D3F68C7F3014725
:101B70007F1C7D00B4FBF5F7076002E0564F07605D
:101B800000BF00BF4E4F08373F6807F0F00109095A
:101B9000534F7A5C0768D7404760494F08373F6822
:101BA00007F4E051890A4E4F7A5C4768D740876056
:101BB000434F08373F6807F46041490B484F7A5C50
:101BC0004768D740C760F0BD002100F44072B2F50D
:101BD000407F0AD13A4A0832116821F4F811414A8B
:101BE00002401143364A08321160354A7032126899
:101BF000C0F30B031A43324B70331A6070473549F8
:101C000044390860704733494039086070473649A5
:101C10000860704701460020294A8C32106820F085
:101C20001F004A1E1043264A8C321060704701463E
:101C30000020234A8C32106820F4F8504A1E40EAF3
:101C400002201F4A8C3210607047014600201C4A57
:101C50008C32106820F44010084310607047014631
:101C60000020174A8C32106820F4400008431060AE
:101C7000704701460020124A8C32106820F4403030
:101C800008431060704719490860704739B10C4A21
:101C90003032126802430A4B30331A6006E0084AB9
:101CA000303212688243064B30331A607047F9B104
:101CB000034A343212680243014B34331A601CE089
:101CC00000380240FFFFF6EA103000240030002008
:101CD00000004742800E47420024F40000127A00C0
:101CE0005C000020FFFCFF0F5C014742E01147420F
:101CF0008F4A126882438E4B1A60704739B18C4A02
:101D0000121D126802438A4B1B1D1A6006E0884AA6
:101D1000121D12688243864B1B1D1A60704739B131
:101D2000834A0C3212680243814B0C331A6006E07E
:101D30007F4A0C32126882437D4B0C331A60704725
:101D400039B17B4A103212680243794B10331A6062
:101D500006E0774A103212688243754B10331A60DE
:101D6000704739B1724A243A12680243704B243BDF
:101D70001A6006E06E4A243A126882436C4B243B98
:101D80001A60704739B16A4A203A12680243684BB8
:101D9000203B1A6006E0664A203A12688243644B90
:101DA000203B1A60704739B1614A1C3A12680243FD
:101DB0005F4B1C3B1A6006E05D4A1C3A1268824386
:101DC0005B4B1C3B1A60704739B1594A143A126890
:101DD0000243574B143B1A6006E0554A143A126806
:101DE0008243534B143B1A60704739B1504A103A42
:101DF000126802434E4B103B1A6006E04C4A103A00
:101E0000126882434A4B103B1A60704739B1484A06
:101E10001C3212680243464B1C331A6006E0444AE7
:101E20001C3212688243424B1C331A60704739B12E
:101E30003F4A2032126802433D4B20331A6006E0CD
:101E40003B4A203212688243394B20331A60704774
:101E500039B1374A243212680243354B24331A60B1
:101E600006E0334A243212688243314B24331A602D
:101E7000704739B12E4A2C32126802432C4B2C3356
:101E80001A6006E02A4A2C3212688243284B2C330F
:101E90001A60704739B1264A303212680243244B27
:101EA00030331A6006E0224A303212688243204BF7
:101EB00030331A607047012808D11D493C31096848
:101EC00041F008011A4A3C32116007E018493C31E0
:101ED000096821F00801164A3C321160704739B197
:101EE000134A273A12780243114B273B1A7006E037
:101EF0000F4A273A127882430D4B273B1A707047DE
:101F00000B484030006840F080700949403108605B
:101F1000704701460020064A283A12680A400AB172
:101F2000012000E000207047014926390870704701
:101F30003438024010B50446FA48844208D10121E1
:101F40001020FFF752FF00211020FFF74EFF57E04F
:101F5000F548844209D101214804FFF735FF0021EB
:101F60004FF40030FFF730FF4AE0F048844209D1D7
:101F700001218804FFF728FF00214FF48020FFF79C
:101F800023FF3DE0EA48844209D10121C804FFF75C
:101F90001BFF00214FF40020FFF716FF30E0E5485B
:101FA000844209D101210805FFF70EFF00214FF4FB
:101FB0008010FFF709FF23E0DF48844208D10121A8
:101FC0002020FFF712FF00212020FFF70EFF17E06F
:101FD000DA48844209D101218807FFF7F5FE002184
:101FE0004FF08040FFF7F0FE0AE0D548844207D169
:101FF00001214005FFF7E8FE00216005FFF7E4FE40
:1020000010BD2DE9FF4705460E460024A14600BF3E
:10201000A046B08900B100BF2C8A24F44054F08857
:1020200004432C82AC8941F20C608443B08831892E
:102030000843718908430443AC81AC8A24F440749A
:10204000B0890443AC826846FFF74FFDB54885422E
:1020500002D0B948854202D1DDF80C9001E0DDF8EC
:102060000890A88900F4004040B109EBC90000EBDA
:10207000091031684900B0FBF1F707E009EBC9002E
:1020800000EB091031688900B0FBF1F76420B7FB61
:10209000F0F004012009642101FB1078A88900F404
:1020A000004040B1322000EBC800B0FBF1F000F07E
:1020B0000700044308E0322000EB08106421B0FB65
:1020C000F1F000F00F0004432C81BDE8FF874FF4CE
:1020D0001651016000218180C18001810C21418164
:1020E00000218181704710B502460020108A20F43B
:1020F00070600B884C8823438C882343CC8823430F
:102100001843108210BD0021018041808180C18070
:10211000704721B1828942F40052828104E08289B1
:102120004DF6FF731A4082817047028B02F47F42A2
:102130000283028B0A430283704721B1828942F4F1
:102140000042828103E08289C2F30E0282817047DD
:1021500021B1828A42F40062828204E0828A4FF2D4
:10216000FF731A4082827047C1F308028280704771
:1021700001468888C0F308007047028A4FF6F07362
:102180001A400282028A0A430282704721B1828980
:1021900042F00202828104E082894FF6FD731A4008
:1021A0008281704782894FF2FF731A40828182894F
:1021B0000A4382817047028A4FF6DF731A40028217
:1021C000028A0A430282704721B1028A42F48042A5
:1021D000028204E0028A4BF6FF731A4002827047C3
:1021E000818941F001018181704721B1828A42F0E9
:1021F0000802828204E0828A4FF6F7731A408282D4
:102200007047028BD2B20283028B42EA0122028320
:10221000704721B1828A42F02002828204E0828AE1
:102220004FF6DF731A408282704721B1828A42F0F2
:102230001002828204E0828A4FF6EF731A40828293
:102240007047828A4FF6FB731A408282828A0A4361
:102250008282704721B1828A42F00202828204E0C7
:10226000828A4FF6FD731A40828270471AB1838AC0
:102270000B43838202E0838A8B4383827047F0B5ED
:102280000346002400260025002040F66A17B942C4
:1022900000D100BF1846C1F3421401F01F06012708
:1022A00007FA06F5012C01D10C3004E0022C01D113
:1022B000103000E014301AB107682F43076002E0C5
:1022C0000768AF430760F0BD02460020B1F5007F0C
:1022D00000D100BF13880B400BB1012000E00020AB
:1022E000704701F40072B2F5007F00D100BFCA430D
:1022F0000280704770B502460024002300250020AC
:1023000040F66A16B14200D100BFC1F3421501F098
:102310001F03012606FA03F3012D13D196893340DA
:1023200017E0000000100140004400400048004059
:10233000004C004000500040001401400078004074
:10234000007C0040022D02D1168A334001E0968ABB
:1023500033400C12012606FA04F41688344013B1F7
:102360000CB1012000E0002070BD10B50022002358
:1023700040F66A14A14200D100BF0A120124944021
:10238000A3B2DC43048010BD30B52DED108B8FB0AF
:10239000B0EE408AF0EE608AB0EE419AF0EE619ABB
:1023A000B0EE42AAF0EE62AAB0EE43BAB0EE63EA33
:1023B000F0EE44BA044653EC192B51EC190B02F021
:1023C000CBF941EC1F0B53EC182B51EC180B02F01E
:1023D000C3F941EC1D0B53EC1F2B01F0DFFECDE9DF
:1023E0000C012BEEAB0AF0EE40BA1EEE100A02F022
:1023F000DDFBCDE906011BEE900A02F0D7FB41ECB4
:102400001D0B53EC1D2B9DED0C0B51EC100B01F033
:1024100079FF41EC1F0B9DED060B53EC102B02F0E6
:10242000DBFA41EC1C0B00221146204600F03FFA7B
:102430008DED060B1AEE900A02F0B8FB41EC1D0B75
:1024400053EC1C2B02F088F941EC1F0B53EC182BBA
:1024500002F082F9B1EE4B0ACDE9020110EE100A4A
:1024600002F0A4FB41EC1D0B53EC192B02F074F9A4
:10247000CDE900019DED020B53EC102B9DED000BFF
:1024800051EC100B02F0A8FACDE904019DED060B0A
:1024900053EC102B9DED040B51EC100B01F07EFE64
:1024A000CDE90A0101220021204600F000FA8DED5D
:1024B000060B1AEE900A02F079FB41EC1D0B53EC6F
:1024C0001C2B02F049F941EC1F0B53EC192B02F0C5
:1024D00043F9CDE902011BEE100A02F067FB41EC63
:1024E0001D0B53EC182B02F037F9CDE900019DEDDF
:1024F000020B53EC102B9DED000B51EC100B02F076
:102500006BFACDE904019DED060B53EC102B9DED0C
:10251000040B51EC100B01F041FECDE90801022241
:102520000121284600F07AF905461AEE100A02F059
:102530003DFB41EC1D0B9DED0A0B53EC102B02F003
:102540000BF941EC1F0B53EC182B01F027FE002276
:10255000CDE9060111469DED060B284600F0BAF9BB
:102560001AEE100A02F022FB41EC1D0B9DED080B48
:1025700053EC102B02F0F0F841EC1F0B53EC192B2D
:1025800001F00CFE0122CDE9060100219DED060BB4
:10259000284600F09FF928460FB0BDEC108B30BDE7
:1025A0002DE9F04F2DED088B8DB0B0EE408AF0EEA6
:1025B000608A81460E4617461D46DDF87880012266
:1025C0000221584600F02AF98346012202210B9885
:1025D00000F024F90B90022211460A9800F01EF92F
:1025E0000A9001220221089800F018F90890D5F805
:1025F00004A02021684600F05FFF002241462846E3
:1026000000F055F9B0EE409AF0EE609A00221146C3
:10261000584600F05FF901224146284600F047F98C
:10262000B0EE409AF0EE609A00220121584600F088
:1026300051F90024BEE022464146384600F037F901
:10264000B0EE409AF0EE609A01F076F88DED000B56
:1026500022464146384600F02AF9B0EE40AAF0EE94
:1026600060AA01F0D9F8B0EE409AF0EE609A9FEDC2
:10267000610B53EC102B51EC190B02F0A1F9CDE9D1
:1026800002019DED021BB0EE410AF0EE610A53EC2F
:10269000102B9FED581B51EC110B02F09DF9CDE969
:1026A00004019DED000B8DED060B9DED001BB0EEC2
:1026B000410AF0EE610A002211460A9800F00AF978
:1026C0009DED021BB0EE410AF0EE610A01220021ED
:1026D0000A9800F0FFF89DED041BB0EE410AF0EE01
:1026E000610A002201210A9800F0F4F89DED061B12
:1026F000B0EE410AF0EE610A012211460A9800F09C
:10270000E9F800222146284600F0D1F8B0EE409AC0
:10271000F0EE609A002211460B9800F0DBF80122DF
:102720002146284600F0C3F8B0EE409AF0EE609AD9
:10273000002201210B9800F0CDF8DDE90A0100F03C
:10274000DFF9099022460021304600F0B0F8B0EEE3
:1027500040AAF0EE60AA42460021304600F0A7F8F9
:10276000B0EE40BAF0EE60BA53EC1A2B51EC1B0BF2
:1027700001F0C8FD41EC190BB0EE490AF0EE690A10
:10278000099800F04BF95946099800F0FDF80990B6
:1027900022464146484600F08AF8B0EE409AF0EEF4
:1027A000609A099800F03AF9DDE9080100F0A2F812
:1027B0000890641C5445FFF63EAFB0EE480AF0EEB8
:1027C000680A089800F02AF9089800F001FA5846BB
:1027D00000F054F80B9800F051F80A9800F04EF809
:1027E000099800F04BF808980DB0BDEC088BBDE8D7
:1027F000F08F00000000000000000000002107E052
:102800009FEDFD0B826802EBC10282ED000B491CBB
:10281000D0E900235A438A42F2DC704770B504467F
:102820000D461646002E14DD002D12DD0C21002071
:10283000FEF73BFE044626606560F00000FB05F1F4
:102840000020FEF732FEA0602046FFF7D7FF2046AB
:1028500070BD0020FCE770B504460D46A06838B195
:10286000D4E900135943CA002946A06800F0F2FDDC
:1028700070BD0146D1E900025043704710B50446CF
:1028800021460020FEF701FE10BD70B504460D463E
:1028900020682860606868602046FFF7EAFFC6008D
:1028A000A1683246A86800F0D5FD70BD704710B52C
:1028B00043688B4202DB0368934202DA9FEDCE0B42
:1028C00010BD046801FB0424836803EBC40393ED8B
:1028D000000BF5E710B543688B420ADD03689342AD
:1028E00007DD046801FB0424836803EBC40383ED64
:1028F000000B10BD2DE9F04104460F4620683968F1
:1029000088423FD16068796888423BD14046D4E92B
:102910000021FFF783FF804600252DE0002627E0F9
:10292000B868216805FB016100EBC10090ED002B48
:10293000B0EE420AF0EE620A216805FB0161A06870
:1029400000EBC10090ED002BB0EE421AF0EE621ADF
:1029500053EC102B51EC110B01F020FCD8F8003097
:1029600005FB0363D8F8082002EBC30203C2761C00
:102970002068B042D4DC6D1C6068A842CEDC4046C2
:10298000BDE8F0810020FBE72DE9F04104460F4649
:102990002068396888423FD16068796888423BD1B5
:1029A0004046D4E90021FFF739FF804600252DE09D
:1029B000002627E0B868216805FB016100EBC10033
:1029C00090ED002BB0EE420AF0EE620A216805FBA2
:1029D0000161A06800EBC10090ED002BB0EE421A3F
:1029E000F0EE621A53EC102B51EC110B01F0F4FFD6
:1029F000D8F8003005FB0363D8F8082002EBC302C7
:102A000003C2761C2068B042D4DC6D1C6068A8420A
:102A1000CEDC4046BDE8F0810020FBE770B52DED2F
:102A2000028B0446B0EE408AF0EE608A002513E087
:102A3000A06800EBC50090ED001BB0EE410AF0EE7F
:102A4000610A53EC182B51EC100B01F085FEA268C3
:102A500002EBC50203C26D1CD4E900104843A84232
:102A6000E6DCBDEC028B70BD70B52DED028B04462B
:102A7000B0EE408AF0EE608A002513E0A06800EB1B
:102A8000C50090ED001BB0EE410AF0EE610A53EC78
:102A9000182B51EC100B01F081FBA26802EBC50270
:102AA00003C26D1CD4E900104843A842E6DCBDEC2B
:102AB000028B70BD70B52DED028B0446B0EE408ADE
:102AC000F0EE608A002513E0A06800EBC50090EDF1
:102AD000001BB0EE410AF0EE610A53EC182B51ECEA
:102AE000100B01F079FFA26802EBC50203C26D1C56
:102AF000D4E900104843A842E6DCBDEC028B70BD6F
:102B00002DE9F0472DED028B04460D4620686968DB
:102B100088425BD12A6840466168FFF77FFE8046A5
:102B200000264BE0002745E04FF000093EE0296811
:102B300009FB0171A86800EBC10090ED002BB0EE1D
:102B4000420AF0EE620A216806FB0191A06800EBE0
:102B5000C10090ED002BB0EE421AF0EE621A53EC79
:102B6000102B51EC110B01F0F7FD41EC180BD8F8CC
:102B7000001006FB0171D8F8080000EBC10090EDD1
:102B8000001BB0EE410AF0EE610A53EC102B51EC41
:102B9000180B01F003FBD8F8003006FB0373D8F8DC
:102BA000082002EBC30203C209F10109206848456D
:102BB000BDDC7F1C2868B842B6DC761C6068B04279
:102BC000B0DC4046BDEC028BBDE8F0870020F9E7A1
:102BD0002DE9F0410446D4E9000188422BD1384662
:102BE000D4E90021FFF71AFE074639462046FFF7D1
:102BF0004CFE00251BE0000000000000000000006B
:102C0000002610E0B868216806FB015100EBC10006
:102C100090ED000B216805FB0161A06800EBC1008D
:102C200080ED000B761C6068B042EBDC6D1C206808
:102C3000A842E5DC2AE03846D4E90021FFF7EEFDA2
:102C4000074639462046FFF720FE7868206038683E
:102C50006060002516E0002610E0396806FB01518F
:102C6000B86800EBC10090ED000B216805FB016125
:102C7000A06800EBC10080ED000B761C2068B0421C
:102C8000EBDC6D1C6068A842E5DC00BFBDE8F081AC
:102C9000002107E09FEDFE0B826802EBC10282ED8E
:102CA000000B491CD0E900235A438A42F2DC7047EA
:102CB000002105E0826802EBC10282ED000B491C95
:102CC000D0E900235A438A42F4DC704770B50646C7
:102CD000002416E0002510E0AC4202D19FEDEC1B71
:102CE00001E01FED3B1BB0EE410AF0EE610A2A46FF
:102CF00021463046FFF7EEFD6D1C3068A842EBDC44
:102D0000641C7068A042E5DC70BD2DE9F0472DED34
:102D10000C8B0746D7E90001884204D00020BDECA7
:102D20000C8BBDE8F0877E684846D7E90021FFF7A5
:102D300075FD81465046D7E90021FFF76FFD8246B9
:102D4000002513E000240EE0224629463846FFF70E
:102D5000AEFDB0EE401AF0EE601A2246294650460B
:102D6000FFF7B8FD641CB442EEDB6D1CB542E9DB35
:102D7000002515E0002410E0A54202D19FEDC41B00
:102D800001E01FED631BB0EE410AF0EE610A22463E
:102D900029464846FFF79EFD641CB442ECDB6D1CDF
:102DA000B542E7DB002543E12A4629465046FFF7B6
:102DB0007EFDB0EE409AF0EE609AA8466C1C2AE0C8
:102DC000B0EE490AF0EE690A00F01AFDB0EE40AA32
:102DD000F0EE60AA2A4621465046FFF768FDB0EEA5
:102DE00040CAF0EE60CA00F00BFDB0EE40BAF0EE63
:102DF00060BA53EC1A2B51EC1B0B01F0ABFD09D25E
:102E00002A4621465046FFF752FDB0EE409AF0EEBA
:102E1000609AA046641CB442D2DBA84544D000248A
:102E200040E0224629465046FFF741FDB0EE408A79
:102E3000F0EE608A224641465046FFF738FDB0EE7C
:102E4000401AF0EE601A224629465046FFF742FD2E
:102E500022464146B0EE480AF0EE680A5046FFF7B7
:102E600039FD224629464846FFF721FDB0EE408A4B
:102E7000F0EE608A224641464846FFF718FDB0EE64
:102E8000401AF0EE601A224629464846FFF722FD16
:102E900022464146B0EE480AF0EE680A4846FFF77F
:102EA00019FD641CB442BCDB2A4629465046FFF794
:102EB000FEFCB0EE40AAF0EE60AA1FEDB10B53ECA1
:102EC000102B51EC1A0B01F075FB01D1002026E705
:102ED0002A4629465046FFF7EAFCB0EE408AF0EE5B
:102EE000608A002434E0224629465046FFF7DFFC82
:102EF000B0EE40BAF0EE60BA53EC182B51EC1B0B5D
:102F000001F000FA41EC1A0B22462946B0EE4A0ABB
:102F1000F0EE6A0A5046FFF7DDFC22462946484695
:102F2000FFF7C5FCB0EE40BAF0EE60BA53EC182BD8
:102F300051EC1B0B01F0E6F941EC1A0B2246294635
:102F4000B0EE4A0AF0EE6A0A4846FFF7C3FC641C7A
:102F5000B442C8DB002468E0AC4265D02A46214672
:102F60005046FFF7A4FCB0EE408AF0EE608A4FF0C6
:102F7000000857E0424629465046FFF798FCB0EE5D
:102F800040DAF0EE60DA53EC182B51EC1D0B01F037
:102F9000E3FB41EC1B0B424621465046FFF787FC02
:102FA000B0EE40CAF0EE60CA53EC1B2B51EC1C0B88
:102FB00001F012FD41EC1A0B42462146B0EE4A0ADE
:102FC000F0EE6A0A5046FFF785FC4246294648461D
:102FD000FFF76DFCB0EE40DAF0EE60DA53EC182B40
:102FE00051EC1D0B01F0B8FB41EC1B0B4246214696
:102FF0004846FFF75CFCB0EE40CAF0EE60CA53EC06
:103000001B2B51EC1C0B01F0E7FC41EC1A0B424668
:103010002146B0EE4A0AF0EE6A0A4846FFF75AFC2B
:1030200008F10108B045A5DB641CB44294DB6D1CBB
:10303000B542FFF6B9AE484671E670B52DED068B88
:1030400004460D46606803287ED120680128FBD124
:103050006868032878D12868012875D101220321E6
:103060003046FFF7DBFB0646A86890ED022BB0EE7A
:10307000420AF0EE620AA06890ED042BB0EE421A0C
:10308000F0EE621A53EC102B51EC110B04E000002F
:10309000000000000000F03F01F05EFB41EC190B66
:1030A000A86890ED042BB0EE420AF0EE620AA06828
:1030B00090ED022BB0EE421AF0EE621A53EC102B98
:1030C00051EC110B01F048FB41EC1A0B53EC192B9E
:1030D00001F082FC41EC180B00221146B0EE480AC8
:1030E000F0EE680A3046FFF7F5FBA86890ED042B78
:1030F000B0EE420AF0EE620AA06890ED002BB0EE4E
:10310000421AF0EE621A53EC102B51EC110B01F045
:1031100023FB41EC190BA86890ED002BB0EE420A9E
:10312000F0EE620AA06890ED042BB0EE421AF0EEC9
:10313000621A53EC102B51EC110B01F00DFB41EC1A
:103140001A0B53EC192B00E04BE001F045FC41EC6D
:10315000180B00220121B0EE480AF0EE680A304652
:10316000FFF7B8FBA86890ED002BB0EE420AF0EE36
:10317000620AA06890ED022BB0EE421AF0EE621ADD
:1031800053EC102B51EC110B01F0E6FA41EC190B4A
:10319000A86890ED022BB0EE420AF0EE620AA06839
:1031A00090ED002BB0EE421AF0EE621A53EC102BA9
:1031B00051EC110B01F0D0FA41EC1A0B53EC192B26
:1031C00001F00AFC41EC180B00220221B0EE480A83
:1031D000F0EE680A3046FFF77DFB3046BDEC068B0B
:1031E00070BD6068012808D12068032805D168688F
:1031F000012802D12868032817D06068012808D167
:103200002068032805D16868032802D128680128AE
:103210000BD0606803287DD1206801287AD16868C6
:10322000012877D12868032874D103220121304670
:10323000FFF7F4FA0646A86890ED022BB0EE420ABA
:10324000F0EE620AA06890ED042BB0EE421AF0EEA8
:10325000621A53EC102B51EC110B01F07DFA41EC8A
:10326000190BA86890ED042BB0EE420AF0EE620A4A
:10327000A06890ED022BB0EE421AF0EE621A53EC09
:10328000102B51EC110B01F067FA41EC1A0B53ECC7
:10329000192B01F0A1FB41EC180B00221146B0EEF6
:1032A000480AF0EE680A3046FFF714FBA86890ED74
:1032B000042BB0EE420AF0EE620AA06890ED002BFB
:1032C000B0EE421AF0EE621A53EC102B51EC110BD7
:1032D00001F042FA41EC190BA86890ED002BB0EE1A
:1032E000420AF0EE620AA06890ED042BB0EE421A9A
:1032F000F0EE621A53EC102B51EC110B01F02CFA8A
:1033000041EC1A0B53EC192B01F066FB41EC180B46
:10331000012200E044E00021B0EE480AF0EE680A25
:103320003046FFF7D7FAA86890ED002BB0EE420ABE
:10333000F0EE620AA06890ED022BB0EE421AF0EEB9
:10334000621A53EC102B51EC110B01F005FA41EC11
:10335000190BA86890ED022BB0EE420AF0EE620A5B
:10336000A06890ED002BB0EE421AF0EE621A53EC1A
:10337000102B51EC110B01F0EFF941EC1A0B53EC4F
:10338000192B01F029FB41EC180B02220021B0EEB1
:10339000480AF0EE680A3046FFF79CFA30461DE70F
:1033A00000BF00201AE7704770B5064600F0B0F87D
:1033B000056806F10B0020F00704B4429CBF002012
:1033C00070BD2B466A68BAB11068A04210D304F1F0
:1033D000080188423CBF5068586007D351681019F3
:1033E00041601168091B016058601460101D70BDB8
:1033F00013465268002AE7D12146284600F090F88B
:103400000028DED170BD70B50446051F00F080F8BD
:103410000068002C14BF446870BD002C18BFAC427B
:103420003CBF20466468F8D301680A18AA4218BF56
:10343000456003D12A680546114401602868411996
:10344000A1421CBF6C6070BD61686960216808445E
:10345000286070BD10B5203AC0F00B80B1E818505C
:10346000203AA0E81850B1E81850A0E81850BFF46E
:10347000F5AF5FEA027C24BFB1E81850A0E818500D
:1034800044BF18C918C0BDE810405FEA827C24BF61
:1034900051F8043B40F8043B08BF7047D20728BFEF
:1034A00031F8023B48BF11F8012B28BF20F8023B3E
:1034B00048BF00F8012B70474FF0000200B51346DB
:1034C00094469646203922BFA0E80C50A0E80C5044
:1034D000B1F12001BFF4F7AF090728BFA0E80C50F5
:1034E00048BF0CC05DF804EB890028BF40F8042BEE
:1034F00008BF704748BF20F8022B11F0804F18BF5B
:1035000000F8012B70477047704770477047000004
:103510000048704788A9012070477047704770477E
:1035200038B504460A4600206946AFF300800028FB
:1035300008BF38BD02460099204600F04FF8012030
:1035400038BD012000F064B8F8B5AFF3008005463F
:1035500000200C46102000BF0646A819A0420DD935
:10356000324669460020AFF30080070008BF00F034
:103570004FF80098A04218BF0546C419FFF7C8FFCE
:1035800005600746F01D20F007004619284600F0A8
:103590000AF8B44208BFF8BDA21B31463868BDE83E
:1035A000F84000F01BB800210160C0E9011070472D
:1035B0001020704710B500F00DF8006810BD10B570
:1035C000044600F007F8046010BD00000048704792
:1035D00080A901200048704780A901200346406867
:1035E0008C46002818BF88423CBF03464068F8D389
:1035F00018681844884207D00CF1030020F0070037
:10360000001D411A521A0146081D0A60FFF7FBBE51
:1036100010B500F037F8BDE8104000F02EB8754640
:10362000FFF7D4FFAE4605006946534620F0070079
:10363000854618B020B5FDF783FFBDE820404FF068
:1036400000064FF000074FF000084FF0000B21F08C
:103650000701AC46ACE8C009ACE8C009ACE8C00959
:10366000ACE8C0098D46704710B50446AFF3008042
:103670002046BDE81040FCF7D4BD002801D0FDF77E
:1036800067BD704710B5012805D0002103A000F0E8
:1036900021F8012010BD09A1F8E700005349475265
:1036A000544D454D3A204F7574206F662068656112
:1036B00070206D656D6F7279000000003A204865DA
:1036C0006170206D656D6F727920636F72727570B5
:1036D0007465640070B505460C460A2000E06D1C58
:1036E000FDF738FD35B128780028F8D102E0641CD8
:1036F000FDF730FD14B120780028F8D1BDE8704006
:103700000A20FDF727BD03B401984100009850EA54
:10371000C12018BF04204A0D18BF40F0010040F23C
:10372000FF72B2EB515F08BF40F00200012808BFF2
:10373000052002B07047000010B52F499FED2C1BEB
:103740002DED020B84B0059820F000408842D8BFD0
:103750009DED040B2DDD2949884209D1049840B91B
:103760004FF00100FFF72BFF00F0AEFC06B010BDDC
:1037700005DB9DED040B00F09BFC06B010BD684618
:103780009DED040B00F0ACF810F0030004BF9DEDBC
:10379000021B9DED000B0CD001280ED09DED021BED
:1037A0009DED000B022817D0012000F0E9FB06B0C8
:1037B00010BD00F0B1FA06B010BD9DED021B9DEDED
:1037C000000B012000F0DCFB51EC100B00F0A8FC1A
:1037D00006B041EC100B10BD00F09EFA51EC100B3E
:1037E00000F09EFC06B041EC100B10BD0000000084
:1037F0000000000000000000FB21E93F0000F07F16
:103800002DED020B019820F0004001909DED000B82
:1038100002B070470000000010B52F499FED2C1B2F
:103820002DED020B84B0059820F000408842DCBFEB
:1038300000209DED040B32DD2849884209D104980F
:1038400040B94FF00100FFF7BAFE00F03DFC06B0B2
:1038500010BD05DB9DED040B00F02AFC06B010BD89
:1038600068469DED040B00F03BF810F0030011D00A
:10387000012818D09DED021B9DED000B02281AD0E7
:1038800000F04AFA51EC100B00F04AFC06B041EC93
:10389000100B10BD9DED021B9DED000B012000F0F3
:1038A0006FFB06B010BD9DED021B9DED000B00F0FF
:1038B00033FA06B010BD012000F062FB51EC100B92
:1038C00000F02EFC06B041EC100B10BD0000000013
:1038D0000000000000000000FB21E93F0000F07F35
:1038E0002DE9F14F04462DED020B2DED088B8AB02A
:1038F0009FEDE70B80ED020B139EE74826F0004595
:1039000085420ADC9DED120B002084ED000B0AB00D
:10391000BDEC088B03B0BDE8F08FE0489FEDE0AB55
:103920009FEDE1BBA84247DDE14F9FEDE39B9FED9B
:10393000E48B9DED120B53EC1A2B51EC100B002E67
:103940001CDD01F049F841EC100BBD4208D053ECEE
:103950001B2B51EC100B01F03FF8C4E900010BE008
:1039600053EC192B51EC100B01F036F853EC182BDB
:1039700001F032F8C4E900010120C8E700F00EFCB4
:1039800041EC100BBD4208D053EC1B2B51EC100B3B
:1039900000F004FCC4E900010BE053EC192B51ECDE
:1039A000100B00F0FBFB53EC182B00F0F7FBC4E905
:1039B00000014FF0FF30AAE7C348A84279DB9DED34
:1039C000120B51EC100B00F09FFB41EC180B9FED1C
:1039D000C00B53EC102B00F0BFFE9FEDBF1B53EC50
:1039E000112B00F0DBFB00F021FE074600F04DFE3E
:1039F00041EC190B53EC1A2B00F0AEFE53EC182BD4
:103A000000F0DEFF41EC180B53EC1B2B51EC190BB3
:103A100000F0A2FEDFF8C8A241EC100B4FEA1558E7
:103A20000125FA4453EC102B51EC180B00F0D4FF95
:103A3000032DC4E900013DD0C1F30A5005EB451147
:103A4000A8EB00001139814234DA0AEB051BB0EE15
:103A500048AA9BED000BF0EE68AA53EC102B51EC3A
:103A6000190B00F079FE41EC1B0B51EC1A0B53ECD7
:103A70001B2B00F0B1FF41EC180B51EC1A0B53EC6F
:103A8000182B00F0A9FF53EC1B2B00F0A5FF9BEDBA
:103A9000020B41EC1A0B53EC102B51EC190B00F0FC
:103AA0005BFE53EC1A2B00F097FF41EC100B6D1CE2
:103AB000B8E70EE0002EA8BF3846BFF628AF94ED59
:103AC000000B51EC100B00F02BFBC4E90001784215
:103AD0001DE7C6F3130040F4801EC6F30A50A0F29F
:103AE000F530471100F01F05C5F12000DDF848B0A2
:103AF00008900020069007900520EC467949002D9B
:103B000007EB0002794408BF51F8221009D051F8A0
:103B1000223001EB8201AB404A68089922FA01F198
:103B20001943A1FB0E26A1FB0B131A449A4234BF82
:103B30000123002303EB06080CEB8003D3E901A665
:103B40000E448E4234BF0121002192448A4411B1B7
:103B5000924502D903E0924501D2012100E0002103
:103B6000C3E901A641444CF82010011EA0F1010058
:103B7000C4DC029800F10050850F0298DDE903676C
:103B80008000DDF8148000F080FD41EC1A0B304617
:103B900000F092FD9FED541B53EC112B00F0DCFD67
:103BA00041EC1B0B384600F087FD9FED511B53EC99
:103BB000112B00F0D1FD41EC180B404600F07CFDCC
:103BC0009FED4D1B53EC112B00F0C6FD41EC190B82
:103BD00051EC180B53EC192B00F0E0FA53EC1B2BB3
:103BE00000F0DCFA53EC1A2B00F0D8FACDE908010A
:103BF000002008909DED080B53EC1A2B51EC100B94
:103C000000F0EAFE53EC1B2B00F0E6FE53EC182B01
:103C100000F0E2FE53EC192B00F0D2FE9FED381BB2
:103C200053EC112B00F098FD9FED370B41EC180B76
:103C300053EC102B9DED080B51EC100B00F08CFD9C
:103C400053EC182B00F0AAFA9FED310B41EC180B46
:103C500053EC102B9DED080B51EC100B00F07CFD8C
:103C600053EC182B00F09AFA41EC100B139810F05B
:103C7000004F06D06D4251EC100B00F051FA41ECB0
:103C8000100B284684ED000B41E600000000000008
:103C90000000000000000000FB21E93F7CD9024049
:103CA00000004054FB21F93F3163621A61B4D03DFA
:103CB000FB21F93F000000000000601A61B4D03D14
:103CC0007370032E8A19A33BFB21394100000000C9
:103CD00083C8C96D305FE43F000000000000E03F92
:103CE000D212000020120000000000000000103E70
:103CF000000000000000103C000000000000103A2E
:103D0000182D4454FB21F93D3326A611460B113CD6
:103D100000000054FB21F93D10B52DED040B2DEDF5
:103D2000088B82B0B0EE419AF0EE619A0B9820F0C9
:103D300000449FED4BABB4F1795F11DA9DED0A0BB6
:103D400051EC100B00F072FC002801BFB0EE4A0AE3
:103D5000F0EE6A0A02B0BDEC088B04BF04B010BDDF
:103D60009DED0A0B53EC102B51EC100B00F0F4FC02
:103D700041EC180B3C480621B0EE480AF0EE680A08
:103D8000784400F081F853EC182B51EC100B00F044
:103D9000E3FC9DED0A0B41EC1B0B53EC192B51EC92
:103DA000100B00F0D9FC41EC190B53EC1B2B51EC20
:103DB000180B00F0D1FC53EC192B00F00DFE9FED19
:103DC0002C0B41EC190B53EC102B51EC180B00F0A1
:103DD000C3FC41EC100B2848844210DA53EC192B39
:103DE00051EC100B00F0F8FD53EC1A2B00F0E8FD3D
:103DF00041EC100B02B0BDEC088B04B010BD1F48A5
:103E0000A042BCBF9FED1E1B8DED001B06DBA4F581
:103E100000100190002000909DED001B51EC100B54
:103E200053EC112B00F0D8FD9DED000B41EC180B6D
:103E300053EC102B51EC1A0B00F0CEFD41EC1A0B99
:103E400053EC192B51EC180B00F0C6FD53EC1A2B58
:103E500000F0B6FD41EC100BCCE7000000000000C4
:103E6000000000000000F03F440F000000000000D0
:103E7000000000000000E03F3333D33F0000E93F83
:103E8000000000000000D23F70B504462DED028B0B
:103E90004D1E00EBC500B0EE408AF0EE608A90ED5A
:103EA000000B35F0060017D053EC182B51EC100B1B
:103EB00000F052FC41EC100B6D1E04EBC50090EDC0
:103EC000001B51EC100B53EC112B00F067F941EC87
:103ED000100B35F00600E7D1022D36D0042D1CD092
:103EE000062D1CBFBDEC028B70BD53EC182B51ECA2
:103EF000100B00F031FC94ED0A1B53EC112B00F079
:103F00004DF953EC182B00F027FC94ED081B53ECF3
:103F1000112B00F043F941EC100B53EC182B51EC32
:103F2000100B00F019FC94ED061B53EC112B00F064
:103F300035F953EC182B00F00FFC94ED040B53EC07
:103F4000102B00F02BF941EC100B53EC182B51EC1B
:103F5000100B00F001FC94ED021B53EC112B00F050
:103F60001DF953EC182B00F0F7FB94ED001B53ECFC
:103F7000112B00F013F9BDEC028B41EC100B70BD5E
:103F800031B504462DED040B2DED0A8BB0EE41BA90
:103F9000F0EE61BA0B989DED0A0B20F00040B0F1F5
:103FA000795F0DDA51EC100BFFF7ADFB042808BF69
:103FB00000F09AF89DED0A0BBDEC0A8B05B030BD00
:103FC00053EC102B51EC100B00F0C6FB41EC180B1E
:103FD0009DED0A0B53EC182B51EC100B00F0BCFBC1
:103FE00041EC190B2C48B0EE480AF0EE680A0521A6
:103FF0007844FFF749FF9FED2ACBB0EE40AAF0EEE0
:1040000060AA9CB353EC1C2B51EC190B00F0A4FBE1
:1040100041EC1C0B53EC1A2B51EC190B00F09CFBE0
:104020009FED210B41EC190B53EC102B51EC1B0BAA
:1040300000F092FB53EC192B00F0CEFC53EC182B44
:1040400000F08AFB53EC1B2B00F0C6FC53EC1C2B3E
:1040500000F0C2FC9DED0A1B53EC112B00F0B0FCEC
:10406000BDEC0A8B05B041EC100B30BDFFE753EC03
:104070001A2B51EC180B00F06FFB53EC1C2B00F0CB
:104080008DF853EC192B00F067FB9DED0A1B53ECE8
:10409000112B00F083F8E3E7CC0D000000000000D6
:1040A000495555555555C5BF000000000000E03F7B
:1040B00010B553EC102B51EC100B00F06FF841ECE5
:1040C000100B10BD000000009FED050B10B553EC68
:1040D000102B51EC100B00F015F941EC100B10BD3A
:1040E00000000000000000009FED050B10B553EC30
:1040F000102B51EC100B00F02FFB41EC100B10BDFE
:10410000000000000000001082B0CDE9000121F0A5
:10411000004001909DED000B02B051EC100B704778
:1041200081F00041704780F00040704721F000416D
:10413000704720F00040704721F00042A2F1605229
:10414000B2F5801F01F0004328BFD2F17F6C0BD97C
:104150005FEA001C43EAC20242EB507018BF70478E
:1041600028BF20F001007047B2F5801FBCBF184681
:1041700070474FEA410C1CF5001F02D2084600F0C0
:104180008BBD70B500F092FB00000089FFF7F6BF11
:104190004FF00040A0F580007047000010B591EA94
:1041A000030F48BF83F0004300F11E84841A71EBB3
:1041B000030C05D2121943EB0C03001B61EB0C013D
:1041C000DFF824E14FEA1154A4EB135C1EEA430F1D
:1041D00018BF9EEA445F73D023EA0E03DCF1200E81
:1041E00021EA045143F4801332D322FA0CFE10EB7F
:1041F0000E0023FA0CFE41EB0E01CCF1200E03FA67
:104200000EFE10EB0E0051F10001B1F5801FCCF154
:10421000200E32D201EB045112FA0EF2BDE810402A
:1042200058BF7047401C38BF5FEA420218BF704752
:10423000002814BF20F0010041F100014FEA4103C2
:1042400013F5001F38BF7047A1F1C04100F07CBBDF
:10425000012A43EB0302ACF1200CDCF11F0E32BF4C
:104260004FF0000E23FA0CF310EB030041EB045166
:10427000B4EB115FD0D0A1EB045101F580114908D6
:104280005FEA300001EB04510ED350F1000038BF5B
:1042900012FA0EFE08D1BDE81040C9E7401C38BF35
:1042A0005FEA4202CAD1C3E7BDE810404FEA4103CA
:1042B00013F5001F38BF7047A1F1C04100F044BBA7
:1042C0009EEA445F08D011EA5E0FBDE8104004BFCB
:1042D00001F0004100207047BDE8104070B500F0CB
:1042E000E5FA00BF64FBBE3E0000E0FF491058BF86
:1042F000C1F140415B1058BFC3F140438B42EFF323
:10430000008070472DE9C04130B4DFF8A0C23CEA1C
:10431000111418BF3CEA131400F0EC8081EA030585
:104320001CEA111444EAD57418BF1CEA131500F0F6
:10433000C780A4EB05044FF0004545EAC12145EADA
:10434000C32341EA505143EA525304F17F74994226
:1043500004F500344FEAC0204FEAC22208BF904261
:1043600000F09C804FEA13650FF24016765D4FEA2D
:10437000134506FB05F7C7F1807706FB07F74FEA01
:10438000D737A7FB03687642C8F58038A7FB06CE6F
:1043900038BFA8F1010807FB08E64FF0000EA6FBA6
:1043A000028CE6FB03CEDCF1000CCEF1004E38BFF0
:1043B000AEF1010EA6FB0C584FF000074FF00005C0
:1043C000E6FB0E87A1FB08C6A0FB07CE16EB0E0688
:1043D00045F10005E1FB076515F1E04E7EBFA4F550
:1043E00080345FEA46066D4116F1800745F100050D
:1043F0004FEA17274FEA066647EA0567A6F1DE4649
:10440000B6F1805F4FEA15251FD9384624F0010C1C
:1044100005EBC471BCF1FE6F01EB0C1102D8F0BCCE
:10442000BDE8008124425CBF01F5801E9EEAC47F86
:1044300002D4F0BCBDE80081244238D4F0BCA1F124
:10444000C041BDE8004100F07FBA4FEAD22242EA03
:1044500043524FEAD323A7FB02864FEAD02040EA1B
:10446000415007FB03661EEA0E0F4FEAD12105FB00
:10447000026658BFA6EB0056B6EB00564FEA520E46
:104480004EEAC37E18EB0E0E56EB530EBDD518EB5D
:1044900002085E417F1C55F10005B6E74FF4801518
:1044A0004FF000074FF000064FF00008ADE7F0BCFA
:1044B0004FF0000001F1C04101F00041BDE8008172
:1044C00011EA0C1F0CEA131500D00CE013EA0C1FC4
:1044D00000F025804FF00000F0BC81EA030101F0FC
:1044E0000041BDE80081F0BCBDE8004181EA030164
:1044F00000F02ABAF0BCBDE8004170B500F0D6F972
:10450000097EFC3E00F007B881EA03014FF000008D
:1045100001F00041704781EA030100F015BAF0BCD8
:10452000BDE800414FF0000021497047FFFDFBF955
:10453000F7F5F4F2F0EEEDEBE9E8E6E4E3E1E0DED6
:10454000DDDBDAD8D7D5D4D3D1D0CFCDCCCBCAC848
:10455000C7C6C5C4C2C1C0BFBEBDBCBBBAB9B8B76F
:10456000B6B5B4B3B2B1B0AFAEADACABAAA9A8A862
:10457000A7A6A5A4A3A3A2A1A09F9F9E9D9C9C9B30
:104580009A999998979796959594939392919190DB
:104590008F8F8E8E8D8C8C8B8B8A8989888887876C
:1045A0008685858484838382828181800000FF07E1
:1045B0000000F87F51EA030C17D41CF5801F58BF88
:1045C000BCF5801F00F10680994218BF704708BFF4
:1045D0009042704707D711F5801F58BF13F5801F11
:1045E00019D499427047894270471CF5801F08D53D
:1045F000BCF5801FF7D58B4218BF704708BF8242B9
:1046000070474FF4001C1CEB410F38BF1CEB430FED
:1046100001D28B42704770B500F048F992244900EE
:104620004FF000514FF08053FFF760BE4FEA410357
:104630004FEA5353A3F58063D3F11E03C8BFD3F1F0
:10464000210C0CDD4FF0004242EAC12242EA5052F6
:1046500032FA03FC8CEAE17CACEBE1707047102B82
:10466000C4BF0020704703F5787CBCF1FF3F04D045
:104670006FF0004282EA2100704770B500F016F931
:104680004992248000207047F2E710F0004248BFB2
:104690004042B0FA80F310FA03F10AD0C3F11D03CF
:1046A00003F580634FEA415002EB035202EBD12144
:1046B00070474FF000007047B0FA80F310FA03F132
:1046C0000AD0C3F11D0303F580634FEA41504FEA5E
:1046D000035202EBD12170474FF0000070470000F9
:1046E00051EA030C17D41CF5801F58BFBCF5801F7E
:1046F00000F10680994218BF704708BF904270478A
:1047000007D711F5801F58BF13F5801F19D49942A0
:104710007047894270471CF5801F08D5BCF5801F83
:10472000F7D58B4218BF704708BF824270474FF4DD
:10473000001C1CEB410F38BF1CEB430F01D28B4216
:10474000704770B500F0B2F8922449004FF0005164
:104750004FF08053FFF7CABDDFF848C170B51CEABF
:10476000111E1EBF1CEA13159EEA0C0F95EA0C0FD2
:1047700000F06F8081EA030423EA4C134EEAD47EF2
:1047800021EA4C1141F4801143F48013AE44A1FBA3
:10479000024CA0FB0365AEF17F7E361955EB0C058C
:1047A000A1FB034C4CF10003A0FB021C16EB0C0612
:1047B000654153F10003094218BF46F0010613F4A6
:1047C000007F0BD14FEA03314FEA0530340341EA51
:1047D000155140EA16506FF003020AE04FEAC32178
:1047E0004FEAC520F40241EA555140EA56506FF0B5
:1047F000020202EB2E4201EB025585EACE710AD08D
:104800005FEA440C18BF24F0004450F1000041F16D
:10481000000120EAD47040F2FE7C624500D270BDF7
:10482000A84214BF4FF080444FF04044002E08BF10
:104830000024BEF1806FA8BFA1F1C041BDE8704067
:1048400080F282804FF0000001F1C04101F0004190
:1048500070479EEA0C0F0CEA131518BF95EA0C0F6F
:1048600006D04FF0000081EA030E0EF0004170BD4B
:1048700000F01CF88900013E00F007B800F009B80C
:104880004FEA430C5FEA5C5C08D081EA030100F068
:104890005BB84FEA410C5FEA5C5CF6D14FF0000078
:1048A000014970470000FF070000F87F0EF1020E7B
:1048B0002EF0030E5EF8046B364205D4012A43EB5A
:1048C000030515F5001F12D8012841EB010C1CF55A
:1048D000001F0CD80ED14FEAD17C15F5001F0CEB50
:1048E0004C0C0CF1020C08BF4CEBD37C04E04FF0F5
:1048F000080C01E04FEAD37C0CEB4C0526FA05F6D8
:1049000006F00706B6F1040C06D20EEB860CBDE8E5
:1049100070404CF0010C6047DFE80CF0090B02021C
:104920004FF000414FF00000A1F5002170BD194685
:104930001046012851EB010418BFD4F5001484BFC0
:10494000002001F0004170BD0808A0F500114FEAF9
:104950003101704753EA010C17D41CF5801F58BF72
:10496000BCF5801F00F106808B4218BF704708BF5E
:104970008242704707D713F5801F58BF11F5801F7B
:1049800019D48B4270479B4270471CF5801F08D595
:10499000BCF5801FF7D5994218BF704708BF9042F9
:1049A00070474FF4001C1CEB430F38BF1CEB410F4A
:1049B00001D2994270470FB40CBC03BCFFF7C1BED3
:1049C00091EA030F10B581F000413FF5EFAB83F0A2
:1049D000004300F009B8000010B591EA030F48BF8A
:1049E00083F000433FF5E2AB841A71EB030C07D26E
:1049F00012198CF0004C43EB0C03001B61EB0C0113
:104A0000DFF8A4E14FEA1154A4EB135C1EEA430F54
:104A100018BF9EEA445F00F0B08023EA6E03524262
:104A200021EA0451C3EB6E0338BF5B1EDCF1200E9C
:104A300025D322FA0CFE10EB0E0043FA0CFE41EBDC
:104A40000E01CCF1200E03FA0EFE10EB0E0051F118
:104A50000001CCF1200E29D412FA0EF201EB045120
:104A6000BDE8104058BF7047401C1CBFB2F1004F5A
:104A7000704700280CBF491C20F00100704712EB62
:104A8000020E43EB030218BF4FF0010E4EEA420242
:104A9000ACF1200CDCF11E0E54D943FA0CFE10EBE5
:104AA0000E0051F1FF31CCF11E0ED5D50EF1010EE5
:104AB00012FA0EFE404141EB010101EB445C5FEA5A
:104AC0005C5C10D910EBDE7001EB045138BFBEF115
:104AD000004FBDE8104018BF704700280CBF491CAC
:104AE00020F00100704730D24FEAD42C11F50011AC
:104AF00024F400641BD0B1FA81F20B3AA41AA41E6C
:104B0000D2F12003914030FA03F31943904001EBB6
:104B1000CC71002C01EB0451BDE81040A8BF7047D8
:104B200001F1C0414FF0000001F000417047B0FAC0
:104B300080F310FA03F100D110BDE41A173C4805C8
:104B4000C90AE4E701EB045110BD491001EB04511F
:104B5000BDE810404FEA300002E04FF0000170471E
:104B60004A0008BF0042F8D0B2F5001F28BF7047C6
:104B700001F000414FF0000070479EEA445F07D00B
:104B800011EA5E0FBDE8104004BF0021002070470D
:104B9000BDE8104070B5FFF789FE00BF40DFF63E6C
:104BA00083F00041104670470000E0FF43004FEAE9
:104BB000D30C4FEA3C0C43401FBF40070CF160513F
:104BC00013F0FE4F70471CF0006F03D100200CF073
:104BD000004170470CF0004343EA507010B540EAC2
:104BE000CC0000F00EF800BF000000924FEA000178
:104BF000FFF7AABE4FF000414FF00000A1F50021E1
:104C000070470EF1020E2EF0030E5EF8044B2442A4
:104C100004D44FEA4102B2F17F4F11D84FEA40036A
:104C2000B3F17F4F0CD80ED14FEAD07CB2F17F4F59
:104C30000CEB4C0C0CF1020C08BF4CEBD17C04E0EB
:104C40004FF0080C01E04FEAD17C0CEB4C0324FA46
:104C500003F404F00704B4F1040C06D20EEB840C48
:104C6000BDE810404CF0010C6047DFE80CF007088D
:104C700002024FF00040A0F5800010BD084642003F
:104C800018BFD2F1807288BF00F0004010BD4FF015
:104C90004070E1EE100A7047FF2141EAD050C00594
:104CA00070470000800C00000078000080070000C2
:104CB0002000000020000000200000000090010003
:104CC00000000F0000F000004C5555555555A53F0C
:104CD0007751C1166CC156BF9015CB19A001FA3E91
:104CE000AD529C804F7E92BEC4B1B4BD9EEE213EBB
:104CF000D43888BEE9FAA8BD00004054FB21F93F32
:104D00003163621A61B4D03D0000601A61B4D03DD5
:104D10007370032E8A19A33B0000002E8A19A33B4F
:104D2000C14920259A837B39000000000000000063
:104D30006E83F9A22915444ED15727FCC0DD34F506
:104D4000999562DB4190433CAB6351FE61C5BBDE8C
:104D50003A6E24B7E0D24D42EA2E49061C92D109A0
:104D60001CEB1DFE3EA729B1F53582E88444BB2E1D
:104D700026709CE9417E5FB439D69139F43953836A
:104D80008B5F849C3B28F9BDFF97F81F0F9805DEC9
:104D90008B112FEF1F6D0A5ACF7E366DB709CB27C7
:104DA000663F464F2DEA5F9EC7BA27757BF1E5EB5C
:104DB000F739073DEA92528AB15FFB6B085D8D1FA0
:104DC000A6F810111111813FD561C119A0012ABFA8
:104DD0007DFEB157E31DC73EEB9C2B8AE6E55ABE2C
:104DE0007CD5CF5A3AD9E53D084E00080000002096
:104DF0006C000000C4010008744E00086C00002024
:104E000074AF0100E0010008007A030A000000000E
:104E1000000000000102030406070809000000006A
:104E20000000000000000000000000000000000082
:104E30000000000000000000000000000000000072
:104E4000271300085D1300088000002000000068A0
:104E5000000000108090012000000F6800F000109A
:104E6000000000000000000001020304010203042E
:044E70000607080920
:040000050800018965
:00000001FF
